:020000040800F2
:10000000E8040020D50000089F1300089D13000895
:1000100000000000000000000000000000000000E0
:10002000000000000000000000000000A313000812
:100030000000000000000000A1130008A513000844
:10004000E7000008E7000008E7000008E7000008F4
:10005000E700000885010008E7000008E700000845
:10006000E7000008E7000008E7000008E7000008D4
:10007000E7000008E7000008E7000008B1130008E7
:10008000E7000008E7000008E7000008E7000008B4
:10009000E7000008E7000008E7000008E7000008A4
:1000A000E7000008E7000008E7000008E700000894
:1000B000E7000008E7000008E7000008E700000884
:1000C0000348854600F046F800480047CD18000870
:1000D000E80400200448804704480047FEE7FEE7A4
:1000E000FEE7FEE7FEE7FEE7AD130008C1000008EB
:1000F000D2B201E00270401C491EFBD270470022C0
:10010000F6E710B513460A4604461946FFF7F0FF16
:10011000204610BD70B50446002903D000202022DF
:10012000012310E0002801D00020C043C046C04693
:100130000DE02546D5408D4205D30D469540641B04
:100140001D46954040191546521E002DF1DC2146F2
:1001500070BD00001CB50948009009480190054693
:100160000126009C05E0E36807CC33430C3C98472C
:100170001034AC42F7D3FFF7A7FF0000801C000843
:10018000A01C000810B5094C2068C0070DD0322013
:1001900000F018F806480068C00702D105A001F079
:1001A00023FD206801210143216010BD140401409A
:1001B0001000004850432E302073656E736F720A32
:1001C0000D000000B0B5044600F0E2F80546601CE2
:1001D00002D08C480078041900F0DAF8401BA042E5
:1001E000FAD3B0BDF0B58BB006900C68002C00D1EE
:1001F000BDE06048069A824201D0052000E004205C
:100200001723DB06069AD2180A23DA410192042A40
:1002100000D30190069820300090002635463346E2
:10022000099122460BE03C43089E14605B1C0A685F
:100230001046D840361DAD1C002800D197E00120A3
:1002400007469F403A40F1D00490089603200446A8
:10025000AC400295E54349680E460640741E012CE9
:1002600005920795039110D8069A90682840099C3A
:10027000E468029DAC4004439460C806C00F9840F7
:100280005468BC430443546006E0032E029D03D12E
:100290000646059F039C1FE0069AD0680799084010
:1002A00009998C68AC400443D460022E059F039CDE
:1002B00012D11C20089908400F218140DC08A400BD
:1002C000009A16598E43099F396981403143115173
:1002D0007C68059F03262640AE4006990868079A69
:1002E000104030430860A003800F0999089E049ACB
:1002F0009CD04F49086810430860086810400A9075
:100300000C2030400F21814003241E46A6430A9C46
:100310001A4AB4588C43019981402143B15009993C
:10032000154A96684868C4020FD53E439660D66861
:1003300084020FD4BE43D660566884030FD4BE43F4
:1003400056601468C00310D56DE7BE439660D6684A
:100350008402EFD53E43D66056688403EFD53E4312
:1003600056601468C00300D55DE7BC435CE70BB082
:10037000F0BDC046001000480004014008000140E4
:10038000002A02D0182281507047282281507047DD
:10039000054800687047C0461A48007802490A6854
:1003A000101808607047C046E400002010B5DD4812
:1003B000016810220A4302600024204600F004F87D
:1003C00000F022F8204610BD70B504467D20C00024
:1003D0000C4E3178FFF79EFE0146DA480068FFF7C1
:1003E00099FE00F02DFC0125032C08D8002806D129
:1003F0000025E84321462A4600F028F87460284684
:1004000070BDC0460400002082B009480168012286
:10041000114301600168114001910199110742687F
:100420000A434260406808400090009802B070475C
:1004300018100240002805D41F21084001218140E6
:10044000014801607047C04600E100E0002805D483
:100450000322034693430A4A9A1803E00C220240FF
:10046000064BD2188007C00E8901C9B28140FF2314
:1004700083401068984308431060704714ED00E013
:1004800000E400E0F0B587B004468078C0074C4F28
:100490004FD00120059001073A1F106808400490D2
:1004A00006D110680843106010680840069006984E
:1004B00002920391434F3868C00512D40598060292
:1004C000386830433860FFF763FF054638683042CC
:1004D00007D1FFF75DFF401B6428F7D9032007B061
:1004E000F0BD032001900002354F3968014012D061
:1004F0006268024091420ED00598000439683A685B
:1005000002433A603A6882433A6008462E4A1040F5
:100510003860C80745D138682B49084061680143F5
:1005200039600498002804D1029A1068039988431E
:1005300010602168C8070AD1880710D4880617D42C
:1005400088031DD40020490523D407B0F0BD3869C5
:1005500003229043A26802433A618807EED5032044
:1005600000043A698243E068104338618806E7D5A1
:10057000386910229043226902433A618803E1D529
:10058000386980229043A26902433A6100204905FC
:10059000DBD539694022914362690A433A6107B069
:1005A000F0BDFFF7F5FE05465F4E38688007B2D410
:1005B000FFF7EEFE401BB042F7D9019807B0F0BD3F
:1005C0002010024000700040FFFCFFFFF0B581B03A
:1005D000002842D00D460446524B186801210840BD
:1005E000A84208D21A68012082432A431A601A6876
:1005F0000240AA4251D120688207674E0CD54207BB
:1006000004D5072212023368134333603268F023A3
:100610009A43A36813433360C00721D1414A11684C
:1006200001200140A94205D9116881431160116878
:10063000C90732D121784907574F06D5072109024A
:100640003A688A43E168114339603B681907890FAA
:10065000524A022912D2144655E0012001B0F0BDE1
:100660006268032A14D0022A4B4B0BD0181F012AB0
:1006700015D10068800308460FD514E003292CD15A
:10068000474C40E0181F00688001084605D50AE085
:10069000414B186B8003084605D401B0F0BD0068DB
:1006A00080070846F9D51868032100918843104354
:1006B0001860FFF76DFE06461B4F374800680C2197
:1006C0000140606880008142A8D0FFF761FE801B76
:1006D000B842F2D9009801B0F0BD0321CD039902D0
:1006E0002B40090F2F4C645CB96A0F260E402E492F
:1006F000895DAB4203D000048342104600E02848E5
:10070000FFF708FD444338680006000F0749085CFE
:10071000C4400C48046000242046FFF755FE2046E4
:1007200001B0F0BD0020024088130000381C000812
:1007300004480068184909684905490F024A515C94
:10074000C84070470C000020481C0008B0B5124992
:100750000A681007830F1148022B02D3032B01D123
:100760000F48B0BD0323DB0394021A40240F0D4D44
:100770002C5D896A0F250D400B49495D9A4203D0D3
:1007800001231B049A4200E00548FFF7C3FC014621
:1007900020464843B0BDC0460410024000127A0013
:1007A000006CDC02501C0008601C0008F0B587B02B
:1007B00004460120002C00D13CE204902078C007C0
:1007C000F64E05940CD071680C200140042900D02D
:1007D0008FE03068800303D56068002800D131E1E4
:1007E0002078800721D570680007800F0ED07068D0
:1007F0000C210140082900D098E00320C003716853
:1008000001400120C003814200D08FE030688007A2
:10081000059C03D5E068012800D013E13068F82179
:1008200088432169C90001433160059C2078000795
:1008300024D42078400736D42078C00600D4CEE0F7
:10084000706B059949694A1D00D1BDE0012900D0AE
:100850003EE1042108437063706B01210143716321
:10086000FFF796FD0546706B800700D5AFE0FFF7F8
:100870008FFD411B03200229F5D9DBE1706AE16994
:1008800000297ED0012108437062FFF781FD0546F3
:10089000706A8007CDD4FFF77BFD401B0228F7D993
:1008A000032007B0F0BD012003900107F069084064
:1008B000029006D1F0690843F061F06908400690A3
:1008C00006980191DC4F3868C00546D403980402AD
:1008D000386820433860FFF75BFD054638682042E2
:1008E0003BD1FFF755FD401B6428F7D9032007B023
:1008F000F0BD71680140082908D10320C003716868
:10090000014001200004814200D162E76268306842
:1009100001214F04002A00D129E1052A00D11FE15D
:10092000012A00D03CE1090408433FE13068059CFE
:10093000E168002937D0012108433060FFF728FD26
:1009400005463068800700D568E7FFF721FD401BAA
:100950000228F6D9032007B0F0BD05988168306AF7
:10096000B64F002900D1DDE0052900D1C5E00129FD
:1009700000D1C6E0039988433062306A042188437D
:10098000C1E0012188437062FFF702FD0546706AED
:10099000800700D44DE7FFF7FBFC401B0228F6D987
:1009A000032007B0F0BD012188433060FFF7F0FC61
:1009B00005463068800700D437E7FFF7E9FC411BA4
:1009C00003200229F5D935E1042188437063706B57
:1009D000F821884305998969C90001437163059825
:1009E000007880060BD571680C2001400C294DD190
:1009F000706B800303D50598006A012822D1059801
:100A0000446A002C1BD070680C21014008291CD1BD
:100A1000012C17D00320C20370680240F16A059CC4
:100A2000A36A9A420ED10F221140236B994209D139
:100A300091040840E16A8842049800D0FAE000205E
:100A400007B0F0BD049807B0F0BD01200206316880
:100A50000492914331604706FFF79AFC0546022C49
:100A60000AD13068384200D1C3E0FFF791FC411B46
:100A700003200229F5D9DDE030683842DFD0FFF7E6
:100A800087FC411B03200229F6D9D3E0716801409D
:100A9000082905D10320C003716801408142A7D015
:100AA000706B0599096A002900D18FE001210A04C1
:100AB000104370634C04FFF76BFC0546706B2042DB
:100AC0009DD1FFF765FC411B03200229F6D9B1E057
:100AD000042108437063706B012188437063FFF742
:100AE00057FC0546706B800700D478E7FFF750FC91
:100AF000411B03200229F5D99CE004210843306200
:100B0000306A039908433062FFF742FC0546306AB9
:100B100080071BD4FFF73CFC401BB842F7D90320E9
:100B200007B0F0BD039988433062306A04218843DE
:100B30003062FFF72DFC0546306A800706D5FFF7C7
:100B400027FC411B0320B942F6D973E00298002824
:100B5000059C00D070E6F06901998843F0616BE66E
:100B60008A04104330600904306808431EE00A0418
:100B7000904330608804316881433160FFF708FC9E
:100B80000546059C3068384200D129E6FFF700FC95
:100B9000411B03206429F5D94CE0C04600100240F7
:100BA0000A04904330608904306888433060FFF75E
:100BB000EFFB05463068384200D011E6FFF7E8FB4E
:100BC000401B6428F6D9032007B0F0BD01210A04B8
:100BD000904370634C04FFF7DBFB0546706B2042CB
:100BE00000D10CE7FFF7D4FB411B03200229F5D904
:100BF00020E0F06A0F218843059A116B0143F162EE
:100C00007B20C00371688143D06A0843916A014325
:100C100071603068049908433060FFF7B9FB0446FF
:100C20003068384200D00AE7FFF7B2FB011B03200F
:100C30000229F5D907B0F0BD00700040881300000C
:100C4000401E010E01D0012070470749074A50603D
:100C5000074803680B4003218907591801600020E9
:100C60009060072111607047FFFFFF0010E000E077
:100C700020ED00E07047704710B53C22825C012AED
:100C800001D1022010BD02463C320223537000689D
:100C900043687024A3430C681C43836844600D4C74
:100CA000A04207DC0124A407A04209D00C4CA042BA
:100CB00006D00AE0084CA04202D0084CA04204D161
:100CC0008024A343496819438160002010700121EA
:100CD000517010BDFF2B014000400140002C01402D
:100CE000000400407047F0B585B004460068C56850
:100CF0000227294639404A424A4101690491394054
:100D00004B424B41134380210291C9430391002B75
:100D100013D103997E310161012121778069800718
:100D200003D02046FFF7DEFF05E0204600F0E2F8A2
:100D3000204600F0C9FA0020207701260422294627
:100D400011404842484104994907314600D50146BF
:100D5000032000020190002916D100922068039917
:100D60007C310161277780690199084203D02046D0
:100D7000FFF7B8FF05E0204600F0BCF8204600F081
:100D8000A3FA00202077009A0827294639404842D4
:100D9000484104990907314600D50146002913D17D
:100DA00020680399783101612277C069800703D0F8
:100DB0002046FFF797FF05E0204600F09BF820460D
:100DC00000F082FA00202077102129404842484153
:100DD0000499C906314600D50146002914D120687E
:100DE0000399703101612777C0690199084203D0E6
:100DF0002046FFF777FF05E0204600F07BF820460D
:100E000000F062FA00202077012129404842484141
:100E10000499C907314600D00146002906D120684F
:100E200003997F310161204600F04FFA0299294071
:100E30004842484104990906314600D50146002937
:100E400005D12068039901612046FFF713FF402177
:100E500029404842484104994906314600D5014697
:100E6000002906D12068039940310161204600F035
:100E70002DFA20200540684268410499890603D470
:100E8000002E04D005B0F0BD0646002EFAD1206831
:100E90000399603101612046FFF7EDFE05B0F0BD1A
:100EA00010B586B000210591049103910291019142
:100EB000012293070068984201D006B010BD90044B
:100EC0000A4B1C6804431C601B680340009302200B
:100ED00005900491039102909002019000980448BB
:100EE00001A9FFF77FF906B010BDC04614100240FB
:100EF0000004004870470000F0B583B03C23C35C99
:100F0000012B02D1022003B0F0BD07463C3702237B
:100F1000DA41032A00D9B0E00297C0467A44127938
:100F2000520097440197485D0268156A146A0120CF
:100F300084431462D44C14190A26F4419D438E68EC
:100F40002E43536800930B6801939569072C00D9D1
:100F500010E10346A340E1273B4200D103E10C230B
:100F60009E43CB680427BB433343029F072C00D921
:100F700004E1A040E124204200D1FFE00320000270
:100F8000009E86434C6988693443044310461830F8
:100F900054607324A543019C254395614C685463B8
:100FA0001362936908241C43946193690424A34346
:100FB00093610969C9E00268106A01273B02146A5B
:100FC0009C4314627B0298438B681B020343506866
:100FD0000C680194D569A44EB24253D01E465AE023
:100FE0000268156A01263003136A83431362A64818
:100FF00013180A20C34150688C680F680197D7699D
:10100000072B00D9B4E0009434469C40E1231C42F5
:1010100000D1A6E0B30398434B699B010343009CB6
:1010200010461C30536073231B029F43019B1B021D
:101030003B43D3614B68136473039D4323032B43EA
:101040001362F302D4691C43D461B302D4699C4394
:10105000D46177E00268106A136A1024A343136214
:10106000202398438B681B01034350680D689469E3
:101070007D4EB24237D01E463CE00120002139703F
:1010800003B0F0BD0326B602B3433D4CFF3CCE682F
:10109000360226401E437C4BD3180A24E341072B1B
:1010A0005BD89F40E1231F4257D003231B03984383
:1010B0004B698C691C4323010343029F10461C307B
:1010C000536073239D43019B1D43D5614B68D363DC
:1010D0001662D36908241C43D461D3690424A34352
:1010E000D361096931E0C026B343CE683601402799
:1010F000BE431E43644BD3180A27FB41072B2ED84F
:1011000001279F40E1231F4229D003239B029843DC
:101110004B698F691F43BB0003431046183053606F
:1011200073231B029C432B02234393614B689363FD
:1011300016620123DC029569254395619B0294693F
:101140009C43946109690902029F02680A43026094
:1011500000200021397003B0F0BD0346ADE703461F
:10116000DBE703465BE73346029F072C06D800E720
:10117000034655E73346072C00D8FAE6009C05E7FE
:10118000FFFBFFFF70B5002829D005463C35697884
:10119000002905D100212970044600F077F8204687
:1011A000022169700268166801218C07A24205D0ED
:1011B0002D4B9A4202D02D4B9A4219D170239E4357
:1011C000836833432A4EB24216DD2A4CA24208DC21
:1011D000254CA24218D02A4CA24215D042E0012050
:1011E00070BD254CA2420FD0244CA2420CD039E055
:1011F00033461F4EB242E8DCA24205D01B4CA2424D
:1012000002D0204CA2422DD103242402A34304691E
:101210001C4380239C43836923431360C368D362C8
:1012200043689362184BD3180A24E341072B06D86E
:101230000C469C40E1231C4201D04069106351617F
:101240001069C00702D0106988431061A972A970A3
:10125000E97029716971A971E971297269726970FE
:10126000002070BD1C46D4E7002C01400004004063
:10127000FF2B0140FF430140004801400044014072
:10128000004001400020004000D4FEBF10B582B0F5
:1012900001218A070068904201D002B010BD0948C0
:1012A00002680A43026000680840019001980F2418
:1012B000002120460A46FFF7C9F82046FFF7BAF892
:1012C00002B010BD1C100240704770477047B0B5A7
:1012D00000281DD00446C06F002805D178200021C9
:1012E0002154204600F02AF82420E0672068016895
:1012F0000125A9430160606A002802D0204600F061
:101300006BF8204600F03AF9002803D02846B0BD1B
:101310000120B0BD0920C00221684A6882434A60AA
:1013200088682A22904388600868012202430A6084
:10133000204600F0BBF805462846B0BD80B586B013
:101340000021059104910391029101910068D94A0D
:10135000904201D006B080BD0F48826801230593FA
:101360005B041A43826082681A400092009A026805
:101370001A43026000681840009004910391022013
:1013800002900C2001900920C006009901A9FEF7E7
:1013900029FF06B080BDC04614100240FEE7FEE7FC
:1013A0007047704780B5FEF7F7FF80BD70470000BB
:1013B00080B506480168491C0160054801680122A2
:1013C000914301600348FFF78EFC80BDE0000020E0
:1013D0001000004010000020B0B5416A0A070CD48C
:1013E000CA0714D18A071CD44A0724D4CA062CD4AD
:1013F0008A0634D44A063CD44CE00122D203036866
:101400005C689443426B22435A60CA07EAD00122C7
:10141000520403685C689443826A22435A608A07D4
:10142000E2D50122120403685C689443C26A224335
:101430005A604A07DAD50122920403685C68944333
:10144000026B22435A60CA06D2D5012212030368F6
:101450009C689443826B22439A608A06CAD5012213
:10146000520303689C689443C26B22439A604A0605
:1014700010D501221305026854689C43056C2C4367
:1014800054609D4206D103235B0554689C43436C22
:1014900023435360090607D50121C9040268536834
:1014A0008B43806C18435060B0BD0000F0B583B032
:1014B0000446064678360025F560FEF769FF0346C8
:1014C00020680168090721D502952B480090012565
:1014D0006905002220461F4600F0F8F8002812D0C7
:1014E000EFF3108085F3108821680A6880239A43FF
:1014F0000A6080F31088032020227C21029D625024
:10150000357003B0F0BD20683B46029D006840077F
:1015100026D5194800900127B9050022204600F081
:10152000D5F800281CD0EFF3108087F3108809212C
:101530004901226813688B43136080F31088EFF32E
:10154000108087F3108821688A68BA438A6080F324
:1015500010880320202280216250357003B0F0BD36
:101560002020E067B060256664212A462846625044
:10157000357003B0F0BDC046FFFFFF01B0B50446B3
:1015800000680168474A0A40A16823690B436569FE
:101590001D431543E1690D430560032212034368AF
:1015A0009343E2681A434260A269236A13430B2201
:1015B0001202856895431D43856000223A4B98428C
:1015C00006DC3C4B984212D03B4B984216D00CE0C4
:1015D000364B984212D0364A904206D137480068BE
:1015E0008007000F364A125808E0102206E0334800
:1015F0000068800B0C220240314882580125EB0321
:101600003048994210D1082A47D8C0467A44127906
:101610005200974404422442194242422300FFF7F9
:1016200087F800281BD137E0082A36D87A44127987
:1016300052009744043225320E3232322400FFF732
:1016400077F800281CD127E0FFF780F8002806D1A2
:1016500022E0FFF77BF8002812D11DE01846400079
:1016600061684A081018FEF755FD0246103A1649FF
:101670008A4212D201400007400F08430AE0184690
:1016800061684A081018FEF745FD014610390E4AF8
:10169000914202D22168C86000250020A066E06661
:1016A0002846B0BDF369FFEFFF4B0040004C0040FF
:1016B0000038014000440040004800403010024023
:1016C000701C000800127A00F0FF0000F0B585B031
:1016D0001F4615460E460368D9693140891B4A42A8
:1016E0004A410021AA4222D10A9C002C22D0039117
:1016F000611C24D1D9693140891B4A424A41AA421E
:1017000031D1D9693140891B4A424A41AA422AD182
:10171000D9693140891B4A424A41AA4223D1D96939
:101720003140891B4A424A41AA42E3D01BE00846A5
:1017300005B0F0BDFEF72CFE032005B0F0BD402E35
:10174000049001D0802E14D1FEF722FEC01BA042CF
:101750000CD8049800680168C0693040801B414281
:101760004141A942F0D0039805B0F0BD032005B077
:10177000F0BD7830019001200090C002029006E098
:10178000C8693040801B41424141A942EBD1FEF77C
:10179000FFFDC11B0320A1423ED8049909680A68D5
:1017A0005207EDD5CA69120738D4CA69029B1A429A
:1017B000E6D0029A0A62EFF31082012181F31088C9
:1017C00009235B01049C246825689D43256082F3FE
:1017D0001088EFF3108281F31088049B1B689C68CB
:1017E0008C439C60049B82F310881A6E012A0BD1F3
:1017F000EFF3108281F3108819680B681024A3435B
:101800000B60049B82F310882021019CA1600022C0
:101810001A669A662270E16005B0F0BD08250D6277
:10182000EFF31081009880F3108809225201049B85
:101830001B681C6894431C6081F31088EFF31081CF
:1018400080F31088049A1268936883439360049B22
:1018500081F31088196E01290CD1EFF31081012258
:1018600082F310881A6813681024A3431360049B42
:1018700081F310882021019A9160002119669966F0
:101880001170D56005B0F0BD012001028207136A16
:101890008B431362116881431160704701208107F7
:1018A00000224A620A6802430A6000020A6A02438E
:1018B0000A62704780B5044A914202D00020C043BA
:1018C00080BD00F07BF980BD000000209AB0FEF7DB
:1018D0006DFD0DAD281D3021FEF711FC002416947E
:1018E0000120159020260D960894079406940594DF
:1018F000049403942846FEF759FF002803D0EFF321
:10190000108072B6FEE70C940B9403200A90072017
:10191000099009A801252946FEF758FE002803D0A2
:10192000EFF3108072B6FEE705940220029002A841
:10193000FEF7A8FD002803D0EFF3108072B6FEE793
:10194000119410940F940E940D94E9049248026837
:101950000A43026002680A4002920299A9050268DD
:101960000A43026002680A4002920299690402680E
:101970000A43026002680A4002920299A9040268BE
:101980000A43026000680840029002980920C006DD
:10199000019031462246FEF7F3FC0F94212000040B
:1019A0000E9068030D907D480DAF3946FEF71AFC86
:1019B0000F94112000040E900D9501983946FEF702
:1019C00011FC10940F940E950D9601983946FEF770
:1019D00009FC0526032130462246FEF737FD304636
:1019E000FEF728FD6E4880218161FF2190316D4A0C
:1019F000AE07066042608460C16004610394029493
:101A00001394129411941094FFF7BCFB002803D098
:101A1000EFF3108072B6FEE7614802A9FFF72CF9D8
:101A2000002803D0EFF3108072B6FEE711940F94F4
:101A30000E9460200D905A480DA90822FFF75CFA19
:101A4000002803D0EFF3108072B6FEE73068284319
:101A50003060F0682843F0605148FFF721FA52489F
:101A60000C214B225202514B036042608460C460DF
:101A7000046141618461C46104624462FFF727FC30
:101A8000002803D0EFF3108072B6FEE7FFF706FFE1
:101A90000524204600F08CF864252846FEF792FBCA
:101AA000062000F085F82846FEF78CFB072000F0A2
:101AB0007FF82846FEF786FB082000F079F82846D4
:101AC000FEF780FB092000F073F82846FEF77AFB4A
:101AD0000A2000F06DF82846FEF774FB0B2000F09A
:101AE00067F82846FEF76EFB0C2000F061F82846E8
:101AF000FEF768FB0D2000F05BF82846FEF762FB5E
:101B00000E2000F055F82846FEF75CFB0F2000F091
:101B10004FF82846FEF756FB102000F049F82846FB
:101B2000FEF750FB112000F043F82846FEF74AFB71
:101B3000122000F03DF82846FEF744FB132000F089
:101B400037F82846FEF73EFB142000F031F828460F
:101B5000FEF738FB152000F02BF82846FEF732FB85
:101B6000162000F025F82846FEF72CFB172000F081
:101B70001FF82846FEF726FB182000F019F8284623
:101B8000FEF720FB204600F013F87D20C000FEF792
:101B900019FBFFF779FEFEE7141002400008004829
:101BA00010000020BF120000580000200044004038
:101BB000014908607047C0463C00004008490A6877
:101BC000120608D40A68120605D40A68120602D45E
:101BD0000A681206F3D5034A02408A817047C0465C
:101BE0001C440040FF01000010B5024A024900F009
:101BF00014F810BDB51800080000002002E008C865
:101C0000121F08C1002AFAD170477047002001E076
:101C100001C1121F002AFBD17047F8B516460F46C6
:101C20000446002503E03946B047641C6D1C20784B
:101C30000028F8D12846F8BD000000000000000090
:101C40000102030406070809000000000102030462
:101C500002030405060708090A0B0C0D0E0F1010ED
:101C60000102030405060708090A0B0C0D0E0F10EC
:101C70000000000004000000080000000200000056
:101C8000A01C00080000002010000000FC1B000841
:101C9000B01C000810000020D80400000C1C000834
:101CA00000000000010000000400000000127A00A3
:04000005080000C12E
:00000001FF
