:020000040800F2
:10000000D8050020D5000008831B0008811B0008CC
:1000100000000000000000000000000000000000E0
:10002000000000000000000000000000871B000826
:100030000000000000000000851B0008891B00086C
:10004000E7000008E7000008E7000008E7000008F4
:10005000E7000008950700080D080008B10800082F
:10006000E7000008E7000008E7000008E7000008D4
:10007000E7000008E7000008E7000008E7000008C4
:10008000E7000008951B0008B11B0008E700000806
:10009000E7000008E7000008E7000008E7000008A4
:1000A000E7000008E7000008E7000008E700000894
:1000B000E7000008E7000008E7000008E700000884
:1000C0000348854600F01AFB004800472D21000830
:1000D000D80500200448804704480047FEE7FEE7B3
:1000E000FEE7FEE7FEE7FEE7911B0008C1000008FF
:1000F000D2B201E00270401C491EFBD270470022C0
:10010000F6E710B513460A4604461946FFF7F0FF16
:10011000204610BDF0B51FB488B00B990998002493
:1001200048400999C00F490049080991C0070B9937
:100130000090490049080B9109990898A646084380
:100140001CD00B990A98084318D009980124400044
:10015000420D4800410D099824050003000B20437F
:1001600009900B980003000B20430B9050181C497A
:100170004018002201901446104605E00020014678
:100180000DB0F0BD032801DA034600E003239C46CE
:10019000C11A0AAE0AE05F0008ADED5B4F00F75BE5
:1001A0007D430027AA187C41491C5B1E6145F2DD96
:1001B000410004AB5A522104120C0A43240C401C87
:1001C0000828DFDB019802900099704601910090A9
:1001D000059B049A0799069800F0DFF8D0E7000025
:1001E0000DFCFFFF0EB505490291002100910A4662
:1001F0000B46019100F0D1F803B000BD33040000BC
:10020000C20FD207400040080BD0C10D0723DB010D
:10021000C91840020905400A1143C20840071143AA
:100220007047002001467047CB0FDB07490010B52F
:10023000490802460A4307D00A0D07240903E401CE
:10024000090B121B002A01DC002010BDC900440F5D
:100250000C43C100E018D205801800F050F810BD22
:1002600070B50446002903D000202022012310E0AD
:10027000002801D00020C043C046C0460DE02546FE
:10028000D5408D4205D30D469540641B1D469540D3
:1002900040191546521E002DF1DC214670BDF0B507
:1002A0001FB40646002082B005464024019100900C
:1002B0001BE0019922460F46304600F047FA049AA7
:1002C000059B801A994110D310461946224600F02A
:1002D0002DFA361A8F410197224601200021009FF6
:1002E00000F024FA38184D4100902046641E002882
:1002F000DFDC019B00982946324607B0F0BD00299B
:1003000004DA401C490001D140084000704770B435
:100310000024050C05D11024000402D1002921D0AD
:100320001124050E01D100020834050F01D100018E
:10033000241D850F01D18000A41C002801DB400092
:10034000641C002908D020252E1B0D46F540A14035
:1003500000D001212943084301061B1B000ADB1DB5
:1003600002D5002070BC7047DB05181880180029E2
:10037000F8DA401C4900F5D170BC400840007047D5
:1003800010B5002B08DA0024401C614192185B4133
:100390001A4301D14008400010BDF0B51FB482B02F
:1003A00005460C0003D0084602F066FA02E002F0AF
:1003B00063FA2030024600902146284600F0B6F944
:1003C000049B059A04460F4618431143084314D072
:1003D000184610431BD0009840210A1A1846059968
:1003E00000F0B4F905460E46009A0599049800F00D
:1003F0009DF9084305D0012004E02046394607B0A6
:10040000F0BD0020C11705430E432C43374300992C
:100410000E986305401A7905E40A00220C43FD0A90
:100420000A3002D500200146E9E7010510196941AB
:100430000C9C0D9D00196941FFF7A2FFDFE700004A
:10044000F0B507460846584087B0C00F04904800F2
:100450000E46590040084908BC1A884105D2384662
:1004600031461E4617460B460246580040081043C8
:100470004CD0300D039040055900400D490D0590BA
:10048000401A0290402872DA18030121000B090576
:100490000843019004980092002805D00199524227
:1004A0000020884100920190029840210A1A019987
:1004B000009800F03BF905460C466B4607CB00F070
:1004C00056F9C0197141039A0E0D0023D7175640F3
:1004D0001A467A40164344D0049A002A2DD0029A34
:1004E000012A039A15DC1205C01A9141012636052E
:1004F000001C7141D20F059ED20700930192029613
:100500002A462346FFF749FF07B0F0BD384631467B
:10051000FAE71605224A0F46B218C01AB741012160
:100520000905001C4F4100187F41114618187941F8
:10053000E20F10436D19644113E0E2076D081543A3
:100540006408C2071443039A01261205C01A914198
:100550003605001C7141CE07400830434908C018D9
:1005600051412A462346FFF70BFFCDE7FFE70498EA
:1005700001224000C117121A00238B410498314612
:10058000C417381AA141EEE730B40124E4076340F0
:1005900030BC55E730B40124E407614030BC4FE77C
:1005A0000000E0FFF0B50C465C4085B0E40FE407C6
:1005B00003944C00002664085900944649080246FA
:1005C0000296224321D062460A431ED06200570D94
:1005D0004A000E032303550D012402462C4924052D
:1005E000781B1B0B360B40182343264361460090B3
:1005F0001C46501AB44103D30098401C009002E0FE
:10060000921800985B41002803DA0020014605B0EB
:10061000F0BD0020012109050746864611E0644629
:100620001D46141BB54106D36546521BB3417446A3
:1006300007430C43A646CD074008490828439218B3
:100640005B4105460D43EAD11046184313D060467E
:10065000194650407140084306D06046101AB34115
:1006600006D20122002306E000220123DB0702E07C
:100670000122D2435310009874460105381C614191
:10068000029C039D00196941FFF77AFEBFE7000055
:10069000FD0300004A0009030123090B1B05194350
:1006A0000A4B10B5520D9A4202DA0020014610BDE5
:1006B000064B34339A4203DC9A1A00F047F810BD17
:1006C000034BD21800F032F810BD0000FF03000009
:1006D000CDFBFFFF10B5002904DB0124E4074042F5
:1006E0008C412146002B04DB1C460123DB075242D0
:1006F000A341994200D1904210BD00001CB50948A9
:1007000000900948019005460126009C05E0E36839
:1007100007CC33430C3C98471034AC42F7D3FFF777
:10072000D3FC0000B8310008D831000810B5202AE9
:1007300004DB0146203A9140002010BD9140202367
:100740009C1A0346E3401943904010BD10B5202A7F
:1007500004DB0846203AD040002110BD0B46D340B0
:10076000D0402024A21A91400843194610BD10B56C
:10077000202A06DBCB170846203A1041C1170B434D
:1007800006E00B461341D0402024A21A91400843B2
:10079000194610BDB0B5154C2068C1070CD18007B3
:1007A00023D517A002F058F8144D6878002814D00B
:1007B00001F0FEFF002013E00DA002F04DF80F4DF8
:1007C0002878002803D001F0E1FF002002E001F0CA
:1007D000E7FF01202870012004E001F0F3FF012071
:1007E00068700220216801432160B0BD14040140FB
:1007F00050612E3020696E74200A0D001000002018
:1008000050412E3120696E740A0D0000B0B51B4CAA
:100810002068400703D4206800071BD4B0BD3220F5
:1008200000F0E8F81648006840070CD415488168C5
:10083000C16001210171480213490A6802430A603C
:1008400012A002F009F82068042101432160206809
:100850000007E3D513A001F0FFFF0A4DA878002898
:1008600003D001F0B9FF002002E001F0BFFF01203A
:10087000A8702068082101432160B0BD1404014024
:1008800010040048100000201408004850422E3286
:100890002073656E736F72203120696E74200A0DAB
:1008A0000000000050422E3320696E74200A0D00B3
:1008B000B0B5334C2068C006324D06D420684006DF
:1008C00038D42068800646D4B0BD0A2000F092F8E3
:1008D000281F0168C9061BD40068C00623D4012064
:1008E00000022968814329602E4881680069081A3E
:1008F000FFF778FC2C4A2D4BFFF70CFCFFF794FC1C
:10090000FFF77EFC02462AA00B4601F0A5FF0AE095
:100910001DA001F0A1FF0120000229680143296008
:10092000204881680161206810210143216020680E
:100930004006C6D5322000F05DF8281F006840064A
:1009400002D424A001F088FF2068402101432160E7
:1009500020688006B8D524A001F07EFF114DE8780C
:10096000002803D001F04CFF002002E001F052FF0C
:100970000120E8702068202101432160B0BDC046FD
:10098000140401401408004850432E3420626F6460
:10099000792073656E736F722073746172740A0DBF
:1009A00000000000100000209A9999999999B93F88
:1009B00050432E3420626F64792073656E736F72BA
:1009C00020656E642074696D65203D2025660A0DE2
:1009D0000000000050432E362073656E736F722046
:1009E0003220696E740A0D0050422E3520696E74F3
:1009F000200A0D00B0B5044600F0E2F80546601C80
:100A000002D08C480078041900F0DAF8401BA042AC
:100A1000FAD3B0BDF0B58BB006900C68002C00D1B5
:100A2000BDE06048069A824201D0052000E0042023
:100A30001723DB06069AD2180A23DA410192042A08
:100A400000D30190069820300090002635463346AA
:100A5000099122460BE03C43089E14605B1C0A6827
:100A60001046D840361DAD1C002800D197E001206B
:100A700007469F403A40F1D0049008960320044670
:100A8000AC400295E54349680E460640741E012CB1
:100A900005920795039110D8069A90682840099C02
:100AA000E468029DAC4004439460C806C00F9840BF
:100AB0005468BC430443546006E0032E029D03D1F6
:100AC0000646059F039C1FE0069AD06807990840D8
:100AD00009998C68AC400443D460022E059F039CA6
:100AE00012D11C20089908400F218140DC08A40085
:100AF000009A16598E43099F39698140314311513B
:100B00007C68059F03262640AE4006990868079A30
:100B1000104030430860A003800F0999089E049A92
:100B20009CD04F49086810430860086810400A903C
:100B30000C2030400F21814003241E46A6430A9C0E
:100B40001A4AB4588C43019981402143B150099904
:100B5000154A96684868C4020FD53E439660D66829
:100B600084020FD4BE43D660566884030FD4BE43BC
:100B700056601468C00310D56DE7BE439660D66812
:100B80008402EFD53E43D66056688403EFD53E43DA
:100B900056601468C00300D55DE7BC435CE70BB04A
:100BA000F0BDC046001000480004014008000140AC
:100BB000002A02D0182281507047282281507047A5
:100BC000054800687047C0461A48007802490A681C
:100BD000101808607047C046D001002010B5DD48ED
:100BE000016810220A4302600024204600F004F845
:100BF00000F022F8204610BD70B504467D20C000EC
:100C00000C4E3178FFF72CFB0146DA480068FFF7FD
:100C100027FB00F02DFC0125032C08D8002806D165
:100C20000025E84321462A4600F028F8746028464B
:100C300070BDC0460400002082B00948016801224E
:100C40001143016001681140019101991107426847
:100C50000A434260406808400090009802B0704724
:100C600018100240002805D41F21084001218140AE
:100C7000014801607047C04600E100E0002805D44B
:100C80000322034693430A4A9A1803E00C220240C7
:100C9000064BD2188007C00E8901C9B28140FF23DC
:100CA00083401068984308431060704714ED00E0DB
:100CB00000E400E0F0B587B004468078C0074C4FF0
:100CC0004FD00120059001073A1F1068084004909A
:100CD00006D1106808431060106808400690069816
:100CE00002920391434F3868C00512D4059806025A
:100CF000386830433860FFF763FF05463868304294
:100D000007D1FFF75DFF401B6428F7D9032007B028
:100D1000F0BD032001900002354F3968014012D028
:100D20006268024091420ED00598000439683A6822
:100D300002433A603A6882433A6008462E4A1040BD
:100D40003860C80745D138682B49084061680143BD
:100D500039600498002804D1029A106803998843E6
:100D600010602168C8070AD1880710D4880617D4F4
:100D700088031DD40020490523D407B0F0BD38698D
:100D800003229043A26802433A618807EED503200C
:100D900000043A698243E068104338618806E7D569
:100DA000386910229043226902433A618803E1D5F1
:100DB000386980229043A26902433A6100204905C4
:100DC000DBD539694022914362690A433A6107B031
:100DD000F0BDFFF7F5FE05465F4E38688007B2D4D8
:100DE000FFF7EEFE401BB042F7D9019807B0F0BD07
:100DF0002010024000700040FFFCFFFFF0B581B002
:100E0000002842D00D460446524B18680121084084
:100E1000A84208D21A68012082432A431A601A683D
:100E20000240AA4251D120688207674E0CD5420782
:100E300004D5072212023368134333603268F0236B
:100E40009A43A36813433360C00721D1414A116814
:100E500001200140A94205D9116881431160116840
:100E6000C90732D121784907574F06D50721090212
:100E70003A688A43E168114339603B681907890F72
:100E8000524A022912D2144655E0012001B0F0BDA9
:100E90006268032A14D0022A4B4B0BD0181F012A78
:100EA00015D10068800308460FD514E003292CD122
:100EB000474C40E0181F00688001084605D50AE04D
:100EC000414B186B8003084605D401B0F0BD0068A3
:100ED00080070846F9D5186803210091884310431C
:100EE0001860FFF76DFE06461B4F374800680C215F
:100EF0000140606880008142A8D0FFF761FE801B3E
:100F0000B842F2D9009801B0F0BD0321CD03990297
:100F10002B40090F2F4C645CB96A0F260E402E49F6
:100F2000895DAB4203D000048342104600E02848AC
:100F3000FFF796F9444338680006000F0749085C3C
:100F4000C4400C48046000242046FFF755FE2046AC
:100F500001B0F0BD0020024088130000703100088D
:100F600004480068184909684905490F024A515C5C
:100F7000C84070470C00002080310008B0B512490D
:100F80000A681007830F1148022B02D3032B01D1EB
:100F90000F48B0BD0323DB0394021A40240F0D4D0C
:100FA0002C5D896A0F250D400B49495D9A4203D09B
:100FB00001231B049A4200E00548FFF751F901465E
:100FC00020464843B0BDC0460410024000127A00DB
:100FD000006CDC028831000898310008F0B587B059
:100FE00004460120002C00D13CE204902078C00788
:100FF000F64E05940CD071680C200140042900D0F5
:101000008FE03068800303D56068002800D131E1AB
:101010002078800721D570680007800F0ED0706897
:101020000C210140082900D098E00320C00371681A
:1010300001400120C003814200D08FE0306880076A
:10104000059C03D5E068012800D013E13068F82141
:1010500088432169C90001433160059C207800075D
:1010600024D42078400736D42078C00600D4CEE0BF
:10107000706B059949694A1D00D1BDE0012900D076
:101080003EE1042108437063706B012101437163E9
:10109000FFF796FD0546706B800700D5AFE0FFF7C0
:1010A0008FFD411B03200229F5D9DBE1706AE1695C
:1010B00000297ED0012108437062FFF781FD0546BB
:1010C000706A8007CDD4FFF77BFD401B0228F7D95B
:1010D000032007B0F0BD012003900107F06908402C
:1010E000029006D1F0690843F061F069084006906B
:1010F00006980191DC4F3868C00546D40398040275
:10110000386820433860FFF75BFD054638682042A9
:101110003BD1FFF755FD401B6428F7D9032007B0EA
:10112000F0BD71680140082908D10320C00371682F
:10113000014001200004814200D162E7626830680A
:1011400001214F04002A00D129E1052A00D11FE125
:10115000012A00D03CE1090408433FE13068059CC6
:10116000E168002937D0012108433060FFF728FDEE
:1011700005463068800700D568E7FFF721FD401B72
:101180000228F6D9032007B0F0BD05988168306ABF
:10119000B64F002900D1DDE0052900D1C5E00129C5
:1011A00000D1C6E0039988433062306A0421884345
:1011B000C1E0012188437062FFF702FD0546706AB5
:1011C000800700D44DE7FFF7FBFC401B0228F6D94F
:1011D000032007B0F0BD012188433060FFF7F0FC29
:1011E00005463068800700D437E7FFF7E9FC411B6C
:1011F00003200229F5D935E1042188437063706B1F
:10120000F821884305998969C900014371630598EC
:10121000007880060BD571680C2001400C294DD157
:10122000706B800303D50598006A012822D10598C8
:10123000446A002C1BD070680C21014008291CD185
:10124000012C17D00320C20370680240F16A059C8C
:10125000A36A9A420ED10F221140236B994209D101
:1012600091040840E16A8842049800D0FAE0002026
:1012700007B0F0BD049807B0F0BD01200206316848
:101280000492914331604706FFF79AFC0546022C11
:101290000AD13068384200D1C3E0FFF791FC411B0E
:1012A00003200229F5D9DDE030683842DFD0FFF7AE
:1012B00087FC411B03200229F6D9D3E07168014065
:1012C000082905D10320C003716801408142A7D0DD
:1012D000706B0599096A002900D18FE001210A0489
:1012E000104370634C04FFF76BFC0546706B2042A3
:1012F0009DD1FFF765FC411B03200229F6D9B1E01F
:10130000042108437063706B012188437063FFF709
:1013100057FC0546706B800700D478E7FFF750FC58
:10132000411B03200229F5D99CE0042108433062C7
:10133000306A039908433062FFF742FC0546306A81
:1013400080071BD4FFF73CFC401BB842F7D90320B1
:1013500007B0F0BD039988433062306A04218843A6
:101360003062FFF72DFC0546306A800706D5FFF78F
:1013700027FC411B0320B942F6D973E002980028EC
:10138000059C00D070E6F06901998843F0616BE636
:101390008A04104330600904306808431EE00A04E0
:1013A000904330608804316881433160FFF708FC66
:1013B0000546059C3068384200D129E6FFF700FC5D
:1013C000411B03206429F5D94CE0C04600100240BF
:1013D0000A04904330608904306888433060FFF726
:1013E000EFFB05463068384200D011E6FFF7E8FB16
:1013F000401B6428F6D9032007B0F0BD01210A0480
:10140000904370634C04FFF7DBFB0546706B204292
:1014100000D10CE7FFF7D4FB411B03200229F5D9CB
:1014200020E0F06A0F218843059A116B0143F162B5
:101430007B20C00371688143D06A0843916A0143ED
:1014400071603068049908433060FFF7B9FB0446C7
:101450003068384200D00AE7FFF7B2FB011B0320D7
:101460000229F5D907B0F0BD0070004088130000D4
:10147000401E010E01D0012070470749074A506005
:10148000074803680B4003218907591801600020B1
:101490009060072111607047FFFFFF0010E000E03F
:1014A00020ED00E010B53C22825C012A01D102202F
:1014B00010BD02463C32022353700068436870241A
:1014C000A3430C681C4383684460474CA04207DC7C
:1014D0000124A407A04209D07B4CA04206D00AE018
:1014E000454CA04202D03F4CA04204D18024A343EB
:1014F000496819438160002010700121517010BDAE
:1015000070B5002829D005463C356978002905D1F9
:1015100000212970044600F073F82046022169700A
:101520000268166801218C07A24205D02D4B9A4211
:1015300002D0654B9A4219D170239E43836833438E
:10154000294EB24216DD294CA24208DC254CA242AB
:1015500018D0294CA24215D042E0012070BD244C85
:10156000A2420FD0234CA2420CD039E033461E4E8B
:10157000B242E8DCA24205D0534CA24202D01F4C3A
:10158000A2422DD103242402A34304691C438023D7
:101590009C43836923431360C368D36243689362A7
:1015A000EE4BD3180A24E341072B06D80C469C4087
:1015B000E1231C4201D04069106351611069C007EA
:1015C00002D0106988431061A972A970E97029716D
:1015D0006971A971E971297269726970002070BD21
:1015E0001C46D4E7002C0140FF2B0140FF43014083
:1015F00000480140004401400040014000200040FC
:1016000010B582B00068134988420ED01249884252
:101610001DD112480168102211430160006810407A
:1016200001900198112401210AE00C480168202250
:1016300011430160006810400090009812240221BC
:1016400000222046FFF71AFB2046FFF70BFB02B0F3
:1016500010BDC04600140040001000401C100240A5
:1016600010B586B00021059104910391029101917A
:101670000068F64A904210D001229307984221D187
:101680009004124A136803431360126802400092E8
:1016900000980320820202200AE0012082040B4B02
:1016A0001C6814431C601B6813400093009A33228B
:1016B000059004910391022002900192044801A92F
:1016C000FFF7A8F906B010BD000400401410024056
:1016D00000040048F0B583B03C23C35C012B02D169
:1016E000022003B0F0BD07463C370223DA41032A4B
:1016F00000D9B0E00297C0467A441279520097446C
:101700000197485D0268156A146A012084431462D7
:10171000D54C14190A26F4419D438E682E43536814
:1017200000930B6801939569072C00D910E10346DB
:10173000A340E1273B4200D103E10C239E43CB6849
:101740000427BB433343029F072C00D904E1A04088
:10175000E124204200D1FFE003200002009E8643E6
:101760004C6988693443044310461830546073242C
:10177000A543019C254395614C68546313629369AA
:1017800008241C43946193690424A3439361096969
:10179000C9E00268106A01273B02146A9C43146284
:1017A0007B0298438B681B02034350680C680194CA
:1017B000D569A54EB24253D01E465AE00268156A5A
:1017C00001263003136A83431362A74813180A20C3
:1017D000C34150688C680F680197D769072B00D9FF
:1017E000B4E0009434469C40E1231C4200D1A6E0C2
:1017F000B30398434B699B010343009C10461C3084
:10180000536073231B029F43019B1B023B43D36125
:101810004B68136473039D4323032B431362F3024A
:10182000D4691C43D461B302D4699C43D46177E08A
:101830000268106A136A1024A3431362202398439A
:101840008B681B01034350680D6894697E4EB24259
:1018500037D01E463CE001200021397003B0F0BDB6
:101860000326B602B3433E4CFF3CCE683602264008
:101870001E437D4BD3180A24E341072B5BD89F40BE
:10188000E1231F4257D003231B0398434B698C6904
:101890001C4323010343029F10461C3053607323F3
:1018A0009D43019B1D43D5614B68D3631662D36989
:1018B00008241C43D461D3690424A343D361096978
:1018C00031E0C026B343CE6836014027BE431E43F5
:1018D000654BD3180A27FB41072B2ED801279F40C1
:1018E000E1231F4229D003239B0298434B698F6950
:1018F0001F43BB00034310461830536073231B0281
:101900009C432B02234393614B689363166201232C
:10191000DC029569254395619B0294699C4394611F
:1019200009690902029F02680A430260002000213F
:10193000397003B0F0BD0346ADE70346DBE703466D
:101940005BE73346029F072C06D800E7034655E7BE
:101950003346072C00D8FAE6009C05E700D4FEBF0A
:10196000FFFBFFFF70B5002829D005463C3569789C
:10197000002905D100212970044600F077F820469F
:10198000022169700268166801218C07A24205D005
:101990002D4B9A4202D0444B9A4219D170239E4358
:1019A000836833432A4EB24216DD2A4CA24208DC39
:1019B000254CA24218D02A4CA24215D042E0012068
:1019C00070BD254CA2420FD0244CA2420CD039E06D
:1019D00033461F4EB242E8DCA24205D0324CA2424E
:1019E00002D0204CA2422DD103242402A343046937
:1019F0001C4380239C43836923431360C368D362E1
:101A000043689362184BD3180A24E341072B06D886
:101A10000C469C40E1231C4201D040691063516197
:101A20001069C00702D0106988431061A972A970BB
:101A3000E97029716971A971E97129726972697016
:101A4000002070BD1C46D4E7002C0140000400407B
:101A5000FF2B0140FF43014000480140004401408A
:101A6000004001400020004000D4FEBF82B0016869
:101A70000D4881420DD001208207914212D10B49BD
:101A80000A6802430A60096801400191019802B0A6
:101A90007047064801680222114301600068104047
:101AA0000090009802B07047000400401C100240F3
:101AB000B0B500281DD00446C06F002805D178209D
:101AC00000212154204600F02BF82420E0672068F4
:101AD00001680125A9430160606A002802D0204600
:101AE00000F094F8204600F063F9002803D028465F
:101AF000B0BD0120B0BD0920C00221684A68824300
:101B00004A6088682A22904388600868012202435C
:101B10000A60204600F0E4F805462846B0BD000003
:101B200080B586B000210591049103910291019145
:101B30000068ED4A904201D006B080BD0F4882682F
:101B4000012305935B041A43826082681A40009265
:101B5000009A02681A4302600068184000900491DD
:101B60000391022002900C2001900920C0060099E8
:101B700001A9FEF74FFF06B080BDC0461410024019
:101B8000FEE7FEE77047704780B5FFF71DF880BDA0
:101B90007047000004480168491C0160034801685F
:101BA0000122914301607047CC01002010100040D9
:101BB00080B50E488168491C8160017900290FD0E9
:101BC0008168C268891A32290AD301214902084A68
:101BD00013688B4313600021017106A000F03CFEE6
:101BE0000948016801229143016080BD1000002076
:101BF0001408004873656E736F722031206C656441
:101C0000206F6666200A0D0010140040B0B5416ACE
:101C10000A070CD4CA0714D18A071CD44A0724D453
:101C2000CA062CD48A0634D44A063CD44CE001229D
:101C3000D20303685C689443426B22435A60CA072C
:101C4000EAD00122520403685C689443826A22430A
:101C50005A608A07E2D50122120403685C68944343
:101C6000C26A22435A604A07DAD501229204036805
:101C70005C689443026B22435A60CA06D2D50122A3
:101C8000120303689C689443826B22439A608A061D
:101C9000CAD50122520303689C689443C26B224355
:101CA0009A604A0610D501221305026854689C43C5
:101CB000056C2C4354609D4206D103235B05546898
:101CC0009C43436C23435360090607D50121C90493
:101CD000026853688B43806C18435060B0BD0000AD
:101CE000F0B583B00446064678360025F560FEF769
:101CF00067FF034620680168090721D502952B4834
:101D0000009001256905002220461F4600F0F8F8E2
:101D1000002812D0EFF3108085F3108821680A683C
:101D200080239A430A6080F31088032020227C21BC
:101D3000029D6250357003B0F0BD20683B46029DA5
:101D40000068400726D5194800900127B9050022F0
:101D5000204600F0D5F800281CD0EFF3108087F360
:101D6000108809214901226813688B43136080F3AE
:101D70001088EFF3108087F3108821688A68BA43CF
:101D80008A6080F310880320202280216250357001
:101D900003B0F0BD2020E067B060256664212A46CC
:101DA00028466250357003B0F0BDC046FFFFFF010A
:101DB000B0B5044600680168474A0A40A168236933
:101DC0000B4365691D431543E1690D43056003221B
:101DD000120343689343E2681A434260A269236A8C
:101DE00013430B221202856895431D438560002230
:101DF0003A4B984206DC3C4B984212D03B4B9842FF
:101E000016D00CE0364B984212D0364A904206D19A
:101E1000374800688007000F364A125808E0102241
:101E200006E033480068800B0C220240314882589B
:101E30000125EB033048994210D1082A47D8C04603
:101E40007A44127952009744044224421942424291
:101E50002300FFF785F800281BD137E0082A36D881
:101E60007A44127952009744043225320E323232CB
:101E70002400FFF775F800281CD127E0FFF77EF853
:101E8000002806D122E0FFF779F8002812D11DE0E2
:101E90001846400061684A081018FEF7E1F902464A
:101EA000103A16498A4212D201400007400F0843F7
:101EB0000AE0184661684A081018FEF7D1F9014691
:101EC00010390E4A914202D22168C86000250020D4
:101ED000A066E0662846B0BDF369FFEFFF4B004007
:101EE000004C0040003801400044004000480040E1
:101EF00030100240A831000800127A00F0FF000004
:101F0000F0B585B01F4615460E460368D9693140C5
:101F1000891B4A424A410021AA4222D10A9C002C34
:101F200022D00391611C24D1D9693140891B4A42D6
:101F30004A41AA4231D1D9693140891B4A424A41BA
:101F4000AA422AD1D9693140891B4A424A41AA4250
:101F500023D1D9693140891B4A424A41AA42E3D080
:101F60001BE0084605B0F0BDFEF72AFE032005B0D1
:101F7000F0BD402E049001D0802E14D1FEF720FE3B
:101F8000C01BA0420CD8049800680168C0693040AA
:101F9000801B41424141A942F0D0039805B0F0BDF9
:101FA000032005B0F0BD7830019001200090C00200
:101FB000029006E0C8693040801B41424141A9427D
:101FC000EBD1FEF7FDFDC11B0320A1423ED80499D1
:101FD00009680A685207EDD5CA69120738D4CA6978
:101FE000029B1A42E6D0029A0A62EFF310820121A4
:101FF00081F3108809235B01049C246825689D43B4
:10200000256082F31088EFF3108281F31088049B1F
:102010001B689C688C439C60049B82F310881A6E3A
:10202000012A0BD1EFF3108281F3108819680B6835
:102030001024A3430B60049B82F310882021019C91
:10204000A16000221A669A662270E16005B0F0BDB8
:1020500008250D62EFF31081009880F310880922A3
:102060005201049B1B681C6894431C6081F3108818
:10207000EFF3108180F31088049A12689368834309
:102080009360049B81F31088196E01290CD1EFF342
:102090001081012282F310881A6813681024A34368
:1020A0001360049B81F310882021019A9160002124
:1020B000196699661170D56005B0F0BD0120010266
:1020C0008207136A8B431362116881431160704762
:1020D000012001038207136A8B4313621168814355
:1020E000116070470120810700224A620A6802439A
:1020F0000A6000020A6A02430A62704701208107EF
:1021000000224A620A6802430A6000030A6A024324
:102110000A62704780B5044A914202D00020C04351
:1021200080BD00F083FB80BD00000020ACB0FEF756
:1021300055FD1EAD281D3021FDF7E1FF0024279439
:102140000120269020271E97189417941694159412
:10215000149413942846FEF741FF002803D0EFF3B0
:10216000108072B6FEE71D941C9403261B96072070
:102170001A901AA801252946FEF740FE002803D030
:10218000EFF3108072B6FEE715940220129012A8A9
:10219000FEF790FD002803D0EFF3108072B6FEE743
:1021A0002294219420941F941E94E904C748026845
:1021B0000A43026002680A4012921299A905026855
:1021C0000A43026002680A40129212996904026886
:1021D0000A43026002680A4012921299A904026836
:1021E0000A4302600068084012901298B848B94942
:1021F0002246FEF7DDFC0920C0060D903946224636
:10220000FEF7D6FC2094212000040F901F9081201F
:1022100080011E9011951EADAD482946FEF7FAFBD0
:102220002194209411981F90AB48D8381E90A8484C
:102230002946FEF7EFFB20941120000410901F9018
:102240001E960E960D9E30462946FEF7E3FB21941E
:10225000209411981F901E9730462946FEF7DAFB0E
:102260002094312000041F9010201E90984E30467C
:102270002946FEF7CFFB209410981F901E973046FA
:102280002946FEF7C7FB20940F981F9004201E904C
:10229000924F38462946FEF7BDFB209410981F90B8
:1022A00008201E9038462946FEF7B4FB052528462F
:1022B0000E9E31462246FEF7E1FC2846FEF7D2FC90
:1022C0000625284631462246FEF7D8FC2846FEF76A
:1022D000C9FC0725284631462246FEF7CFFC284692
:1022E000FEF7C0FC7E480C214B2252027D4B03605E
:1022F00042608460C460046141618461C4610462BD
:102300004462FFF7D5FB002803D0EFF3108072B6CC
:10231000FEE77548802585612F27744EC0C0046094
:102320006D4941601F941E940838FFF7E9F80028B2
:1023300003D0EFF3108072B6FEE76B481EA9FFF7DB
:10234000B1F8002803D0EFF3108072B6FEE73068D2
:10235000119908433060F0680843F0606448856173
:10236000644E6549491C0660416084605A49C160F9
:102370001F941E94FFF7C4F8002803D0EFF31080D9
:1023800072B6FEE75A481EA9FFF78CF8002803D062
:10239000EFF3108072B6FEE73068119908433060A1
:1023A000F0680843F060EC488561EC4982C0046045
:1023B000E7494160846013941294249423942294F6
:1023C00021940838FFF7CEFA002803D0EFF31080ED
:1023D00072B6FEE7E04812A9FFF764F8002803D0C0
:1023E000EFF3108072B6FEE7229420941F946027CA
:1023F0001E97D9481EA92246FFF76CF9002803D082
:10240000EFF3108072B6FEE7D3481EA90422FFF74F
:1024100061F9002803D0EFF3108072B6FEE7CE48D2
:102420001EA90822FFF756F9002803D0EFF3108009
:1024300072B6FEE7C8481EA90C22FFF74BF9002828
:1024400003D0EFF3108072B6FEE7C348FFF708F938
:10245000C3488561FF219031119A92070260BD4AFD
:1024600042608460C16004611394129424942394A4
:1024700022942194FFF776FA002803D0EFF310801E
:1024800072B6FEE7B64812A9FFF70CF8002803D091
:10249000EFF3108072B6FEE7229420941F941E97EB
:1024A000AF481EA90822FFF715F9002803D0EFF363
:1024B000108072B6FEE7AA481EA90C22FFF70AF99F
:1024C00000281BD0EFF3108072B6FEE71410024014
:1024D000000800480F030000E70300000004004864
:1024E0004401002000440040B400002000100040DF
:1024F000FC00002000140040BF1200009848FFF7C5
:10250000AFF898A000F0A8F900F040F900F050F9F9
:1025100000F062F900F074F9FFF7E4FD0527384692
:1025200000F028F964252846FEF764FA0620119089
:1025300000F020F92846FEF75DFA0720109000F021
:1025400019F92846FEF756FA08200F9000F012F904
:102550002846FEF74FFA09200E9000F00BF92846A6
:10256000FEF748FA0A200D9000F004F92846FEF71D
:1025700041FA0B200C9000F0FDF82846FEF73AFADD
:102580000C200B9000F0F6F82846FEF733FA0D20E9
:102590000A9000F0EFF82846FEF72CFA0E2009907A
:1025A00000F0E8F82846FEF725FA0F20089000F022
:1025B000E1F82846FEF71EFA1020079000F0DAF83E
:1025C0002846FEF717FA1120069000F0D3F82846A7
:1025D000FEF710FA1220059000F0CCF82846FEF71E
:1025E00009FA1320049000F0C5F82846FEF702FA15
:1025F0001420039000F0BEF82846FEF7FBF91520E2
:10260000029000F0B7F82846FEF7F4F91620019082
:1026100000F0B0F82846FEF7EDF91720009000F022
:10262000A9F82846FEF7E6F91826304600F0A2F889
:102630002846FEF7DFF9384600F09CF84448441C71
:102640002046FEF7D7F9FFF739FDFFF757FD38466B
:1026500000F096F82846FEF7CDF9119800F090F8B2
:102660002846FEF7C7F9109800F08AF82846FEF7CA
:10267000C1F90F9800F084F82846FEF7BBF90E98D0
:1026800000F07EF82846FEF7B5F90D9800F078F8CE
:102690002846FEF7AFF90C9800F072F82846FEF7CE
:1026A000A9F90B9800F06CF82846FEF7A3F90A98F0
:1026B00000F066F82846FEF79DF9099800F060F8EA
:1026C0002846FEF797F9089800F05AF82846FEF7D2
:1026D00091F9079800F054F82846FEF78BF9069810
:1026E00000F04EF82846FEF785F9059800F048F806
:1026F0002846FEF77FF9049800F042F82846FEF7D6
:1027000079F9039800F03CF82846FEF773F902982F
:1027100000F036F82846FEF76DF9019800F030F821
:102720002846FEF767F9009800F02AF82846FEF7D9
:1027300061F9304600F024F82846FEF75BF9384688
:1027400000F01EF82046FEF755F9FFF7C1FCFEE742
:10275000E7030000BF1200006C00002000040040EE
:10276000240000204750494F20636F6E74726F6CD5
:102770002E0A0D00014908607047C0463C00004029
:10278000014908607047C0464000004080B52648B7
:102790000168012291430160C820FEF72BF980BD3A
:1027A00080B5214801210160C820FEF723F980BDD2
:1027B00080B51D480168022291430160C820FEF7E0
:1027C00019F980BD80B51848016802220A430260E9
:1027D000C820FEF70FF980BD80B5134801680422B8
:1027E00091430160C820FEF705F980BD80B50E4811
:1027F000016804220A430260C820FEF7FBF880BD8E
:1028000080B509480168082291430160C820FEF79D
:10281000F1F880BD80B50448016808220A430260CF
:10282000C820FEF7E7F880BD1408004808490A6888
:10283000120608D40A68120605D40A68120602D4E1
:102840000A681206F3D5034A02408A817047C046DF
:102850001C440040FF0100000FB410B503A9044B55
:10286000044A029800F0E8F810BC08BC04B018470D
:1028700015210008000000202021020C01D01021A9
:102880001046020A01D010460839020901D010464C
:10289000091F820801D01046891E420801D0881EF7
:1028A0007047081A704702E008C8121F08C1002AC2
:1028B000FAD170477047002001E001C1121F002AC1
:1028C000FBD17047F0B51FB486B00998089A030D84
:1028D0000021024314D05148514A1818504305149E
:1028E0001198012810981AD0281A401C00264D4F24
:1028F0004D49009601910490002812DA444211E0FB
:102900001198012449A3012801D11098C1430698C8
:10291000119A84600360C26041600BB0F0BD404218
:10292000E4E70446210500203F4A001C5141039181
:10293000029012E0E00707D032463B46019900982A
:10294000FDF7E8FB0191009032463B4610461946E0
:10295000FDF7E0FB06460F466410002CEAD1049810
:10296000039B0028029A0999089806DAFDF7D2FB22
:10297000019B009AFDF7CEFB05E0FDF713FE019BDE
:10298000009AFDF70FFE04460E460022284BFDF785
:10299000A1FE03D80020C043014607E00022254BDA
:1029A00020463146FDF74CFDFDF774FE102409E08A
:1029B000002C0ADB0A220023FDF771FC079B303252
:1029C0001A55641E02460A43F2D11122641C079B69
:1029D000121B1C19119B012B03D0012308430ED19C
:1029E0000AE0084304D0112010900020119077E7EE
:1029F0001098151A6D1E0BE01098824202DD00231C
:102A00006D1C03E0824201DA00236D1E002BEED024
:102A1000069811998260C16030C07EE701FCFFFF1B
:102A2000104D0000000014400000F03F3000000096
:102A30000000F0430000E03FFFB597B006460025D8
:102A400018E2252877D100242746FD49049400E0A8
:102A50000443761C32780120203A90400842F7D196
:102A600030782A280ED002223078014630390929E0
:102A700016D804990A235943303940181443761C58
:102A80000490F1E7189802C804911890002904DA1C
:102A90000120400304434842049002200443761C72
:102AA00030782E2814D1042004437078761C2A280C
:102AB00009D11898761C80C8189009E00A214F4364
:102AC000303FC719761C3078014630390929F5D9CD
:102AD00030786C2810D006DC4C281AD068280ED02C
:102AE0006A2817D104E0742813D07A2812D110E094
:102AF0000120400504430CE00121090501E0032108
:102B000009050C437178814203D101200005241886
:102B1000761C761C3078119066280BD013DC582870
:102B20007DD009DC00287BD04528F6D04628F4D09B
:102B300047281AD1A5E118E0632835D0642870D061
:102B4000652812D19DE170286CD008DC6728F1D08F
:102B500069287BD06E280DD06F2806D1BAE0732883
:102B60002ED0752871D0782859D01A9A1999904783
:102B70006D1C7EE16002400F022809D003280DD0B1
:102B80000428189801680DD00D60001D189070E1A0
:102B90001898EA1701680D604A60F6E7189801680E
:102BA0000D80F2E70D70F0E718986A46017811720F
:102BB000001D18900020507202A80090012005E02E
:102BC000189802C8189000200091C04361070DD5E5
:102BD000002101E00199491C0191B94212DA8142B8
:102BE000F8DB009A515C0029F4D10BE0002101E0F0
:102BF0000199491C01918142FADB019A0099895C93
:102C00000029F5D1019904981A9B471A21463846A4
:102C1000199A00F097FA0199401945180BE04FE016
:102C20002CE113E04EE0009800990078491C0091D7
:102C30001A9A199990470198401E0190401CF2D1B0
:102C4000214638461A9B199A10E137E00A200021E4
:102C5000009001916002410F022907D0189A01CA21
:102C60001892C2179446032908D00AE01898C01D8C
:102C7000C108C90005C91891944607E000B2C217FF
:102C80009446042902D140B2C1178C460022614605
:102C9000944506DA0A460021404291418C462D2196
:102CA00002E0210504D52B216A461173012103E0BE
:102CB000E10701D02021F7E7029155E00A200AE060
:102CC000102008E01020009000210420044301910E
:102CD000082703E008200021019100906002410FC5
:102CE000022907D0189A01CA189200229446032993
:102CF00008D008E01898C01DC108C90005C918917E
:102D0000944603E080B2042900D1C0B200210291B0
:102D1000210729D51199702906D0009A1021019B0D
:102D20004A401A4305D00EE040216A461173012142
:102D300008E06146014306D030216A4611731199BB
:102D4000517302210291009A0821019B4A401A43C3
:102D50000AD16146014301D1610705D530216A4698
:102D6000117301217F1E02911199582904D035A1B8
:102D70000E910DA90D910DE037A1F9E76146019B78
:102D8000009AFDF78CFA0E9B8C469B5C0D9A521EA6
:102D90000D92137061460143F0D10D9805A9081AF0
:102DA00020300190600703D501200004844300E037
:102DB00001270198874201DD381A00E000200199BF
:102DC00000904118029809180498401A0490E003F2
:102DD00006D421461A9B199A049800F0B3F94519B4
:102DE000002706E003A81A9AC05D199990476D1C48
:102DF0007F1C02988742F5DBE0030CD521461A9B25
:102E0000199A049800F09EF9451904E01A9A3020A6
:102E1000199990476D1C0099481E00900029F5DC17
:102E200008E00D980D990078491C0D911A9A19998E
:102E300090476D1C0199481E01900029F1DC63E167
:102E40000928010030313233343536373839616280
:102E50006364656600000000303132333435363744
:102E600038394142434445460000000000F05AF919
:102E70004519761C3078002800D0E2E528461BB0C2
:102E8000F0BD600700D406271898C01DC108C9000E
:102E900048680A680831C30FDB071891190001D090
:102EA0009CA108E0210501D59BA104E0E10701D028
:102EB0009AA100E09AA1430011985B08109165283F
:102EC0000CD006DC452809D046281DD0472841D122
:102ED00041E0662818D067283CD13CE00021112F42
:102EE00001DB112000E0781C0191009008A911A8D5
:102EF000FFF7E8FC139905910021119A15927F1CA8
:102F000012980197009150E00120C0070390012022
:102F1000019008A9009711A8FFF7D4FC139A1499FF
:102F200005920022119B009212981593059A019226
:102F3000002901D0104602E0791C40180190381A8F
:102F400001D5019804E04042401E0090781C019099
:102F5000C01B029043E0012F00DA01270021112F4E
:102F600001DD112000E038460191009008A911A868
:102F7000FFF7A8FC13990591119A00211298159258
:102F80000091019721070CD40599B94201DB019901
:102F900000E00191012904DD159A491E515C302998
:102FA00006D0B84201DA011D05DA0121029115E0CF
:102FB0000199491EEDE7002805DC009941180091B0
:102FC0000199091A03E0019A411C914200DD019127
:102FD0000099401A401C02900120C007039020076E
:102FE00006D402990198814202DB0020C04302907E
:102FF00000206946C87707AF012103980337C90746
:10300000884224D0022011902B201290039800288F
:103010000CDA404203902D20129007E00A21039819
:10302000FDF71EF930317F1E039039701199481E4B
:1030300011900029F2DC03980028EFD1791E129834
:1030400008703078202108404530BF1E387006A82F
:10305000C01BC01D039010980078002800D00120EC
:10306000019941180298C017091803980918049883
:10307000401A401E0490E00306D421461A9B199A78
:10308000049800F05FF8451910980078002803D0E4
:103090001A9A199990476D1CE00324D521461A9B72
:1030A000199A049800F04EF845191CE00098002881
:1030B00007DB00990598884203DD1598405C199953
:1030C00001E0199930201A9A904700986D1C401C15
:1030D00000900298401E0290002804D11A9A2E20D7
:1030E000199990476D1C0199481E01900029DDDC5B
:1030F00005E038781A9A7F1C199990476D1C03993E
:10310000481E03900029F4DC21461A9B199A049862
:10311000ACE600002D0000002B00000020000000A5
:1031200000000000F8B5044600251E461746880436
:1031300004D405E039462020B0476D1C641EF9D543
:103140002846F8BDFFB50446002581B01E46C803D9
:1031500001D5302700E02027880404D505E0384653
:103160000399B0476D1C641EF9D5284605B0F0BD23
:103170000000000000000000010203040607080927
:103180000000000001020304020304050607080909
:103190000A0B0C0D0E0F10100102030405060708A0
:1031A000090A0B0C0D0E0F100000000004000000B7
:1031B0000800000002000000D831000800000020D4
:1031C00010000000A6280008E831000810000020C8
:1031D000C8050000B628000800000000010000003B
:0831E0000400000000127A0057
:04000005080000C12E
:00000001FF
