:020000040800F2
:100000000007002081010008AF0D0008AD0D0008B9
:1000100000000000000000000000000000000000E0
:10002000000000000000000000000000B30D000808
:100030000000000000000000B10D0008B50D000830
:100040009301000893010008930100089301000840
:100050009301000893010008930100089301000830
:100060009301000893010008930100089301000820
:100070009301000893010008930100089301000810
:100080009301000893010008930100089301000800
:1000900093010008930100089301000893010008F0
:1000A00093010008930100089301000893010008E0
:1000B00093010008930100089301000893010008D0
:1000C00000F002F800F04CF812A030C808382418EC
:1000D0002D18AC4201D100F043F80FCCA246AB463C
:1000E0000CA730CF2D1B083F3F197C427F1E544484
:1000F0002D090426F441641EAC4201D300F030F80F
:100100000126334200D0FB1A3343984754465D46DC
:10011000DFE70000D8140000F8140000103A02D302
:1001200078C878C1FAD8520701D330C830C101D598
:1001300004680C6070470000704700000023002432
:1001400000250026103A01D378C1FBD8520700D30E
:1001500030C100D50B6070471FB51FBD10B510BD75
:1001600000F04DF81146FFF7F7FF01F07FF800F0BF
:1001700065F803B4FFF7F2FF03BC00F06BF8000072
:100180000748804707480047FEE7FEE7FEE7FEE72F
:10019000FEE7FEE704480549054A064B70470000A4
:1001A000BD0D0008C100000800010020000700206C
:1001B000000300200003002001E004C0091F0429FF
:1001C000FBD28B0701D50280801CC90700D00270CA
:1001D000704700290BD0C30702D00270401C491E93
:1001E000022904D3830702D50280801C891EE3E71D
:1001F0000022EEE70022DFE7704770477047754640
:1002000000F024F8AE46050069465346C008C00019
:10021000854618B020B5FFF7BDFF60BCB646002686
:100220000027C0C5C0C5C0C5C0C5C0C5C0C5C0C504
:10023000C0C5403D490849008D46704710B5044689
:10024000C046C0462046FFF794FF10BD00487047E7
:100250001000002001491820ABBEFEE72600020076
:1002600070470000F0B58BB006900C68002C00D1F0
:10027000BDE06048069A824201D0052000E00420DB
:100280001723DB06069AD2180A23DA410192042AC0
:1002900000D3019006982030009000263546334662
:1002A000099122460BE03C43089E14605B1C0A68DF
:1002B0001046D840361DAD1C002800D197E0012023
:1002C00007469F403A40F1D0049008960320044628
:1002D000AC400295E54349680E460640741E012C69
:1002E00005920795039110D8069A90682840099CBA
:1002F000E468029DAC4004439460C806C00F984077
:100300005468BC430443546006E0032E029D03D1AD
:100310000646059F039C1FE0069AD068079908408F
:1003200009998C68AC400443D460022E059F039C5D
:1003300012D11C20089908400F218140DC08A4003C
:10034000009A16598E43099F3969814031431151F2
:100350007C68059F03262640AE4006990868079AE8
:10036000104030430860A003800F0999089E049A4A
:100370009CD04F49086810430860086810400A90F4
:100380000C2030400F21814003241E46A6430A9CC6
:100390001A4AB4588C43019981402143B1500999BC
:1003A000154A96684868C4020FD53E439660D668E1
:1003B00084020FD4BE43D660566884030FD4BE4374
:1003C00056601468C00310D56DE7BE439660D668CA
:1003D0008402EFD53E43D66056688403EFD53E4392
:1003E00056601468C00300D55DE7BC435CE70BB002
:1003F000F0BDC04600100048000401400800014064
:10040000002A02D01822815070472822815070475C
:10041000054800687047C0461A48007802490A68D3
:10042000101808607047C046F800002010B5D74883
:10043000016810220A4302600024204600F004F8FC
:1004400000F022F8204610BD70B504467D20C000A3
:100450000C4E317800F0AAFF0146D448006800F045
:10046000A5FF00F021FC0125032C08D8002806D1A7
:100470000025E84321462A4600F01CF8746028460F
:1004800070BDC0460000002082B00948016801220A
:1004900011430160016811400191019911074268FF
:1004A0000A434260406808400090009802B07047DC
:1004B00018100240002805D40322034693430A4A39
:1004C0009A1803E00C220240064BD2188007C00E97
:1004D0008901C9B28140FF238340106898430843D3
:1004E0001060704714ED00E000E400E0F0B587B064
:1004F00004468078C0074C4F4FD00120059001077B
:100500003A1F10680840049006D110680843106034
:10051000106808400690069802920391434F38688D
:10052000C00512D405980602386830433860FFF7DA
:100530006FFF05463868304207D1FFF769FF401B5F
:100540006428F7D9032007B0F0BD03200190000212
:10055000354F3968014012D06268024091420ED096
:100560000598000439683A6802433A603A68824361
:100570003A6008462E4A10403860C80745D13868AE
:100580002B4908406168014339600498002804D170
:10059000029A10680399884310602168C8070AD13D
:1005A000880710D4880617D488031DD40020490575
:1005B00023D407B0F0BD386903229043A2680243F8
:1005C0003A618807EED5032000043A698243E06867
:1005D000104338618806E7D53869102290432269B4
:1005E00002433A618803E1D5386980229043A269C9
:1005F00002433A6100204905DBD539694022914325
:1006000062690A433A6107B0F0BDFFF701FF054692
:100610005F4E38688007B2D4FFF7FAFE401BB04245
:10062000F7D9019807B0F0BD2010024000700040DB
:10063000FFFCFFFFF0B581B0002842D00D46044614
:10064000524B186801210840A84208D21A680120BC
:1006500082432A431A601A680240AA4251D1206894
:100660008207674E0CD5420704D507221202336871
:10067000134333603268F0239A43A3681343336013
:10068000C00721D1414A116801200140A94205D982
:100690001168814311601168C90732D12178490777
:1006A000574F06D5072109023A688A43E16811438A
:1006B00039603B681907890F524A022912D2144641
:1006C00055E0012001B0F0BD6268032A14D0022A6F
:1006D0004B4B0BD0181F012A15D100688003084628
:1006E0000FD514E003292CD1474C40E0181F0068B7
:1006F0008001084605D50AE0414B186B8003084687
:1007000005D401B0F0BD006880070846F9D5186827
:1007100003210091884310431860FFF779FE0646D5
:100720001B4F374800680C210140606880008142FF
:10073000A8D0FFF76DFE801BB842F2D9009801B037
:10074000F0BD0321CD0399022B40090F2F4C645CAF
:10075000B96A0F260E402E49895DAB4203D00004D2
:100760008342104600E0284800F020FE44433868E9
:100770000006000F0749085CC4400C4804600024D0
:100780002046FFF761FE204601B0F0BD0020024088
:1007900088130000A2150008044800681849096879
:1007A0004905490F024A515CC840704708000020C3
:1007B000B2150008B0B512490A681007830F114836
:1007C000022B02D3032B01D10F48B0BD0323DB035F
:1007D00094021A40240F0D4D2C5D896A0F250D409F
:1007E0000B49495D9A4203D001231B049A4200E061
:1007F000054800F0DBFD014620464843B0BDC04639
:100800000410024000127A00006CDC02CC150008D3
:10081000DC150008F0B587B004460120002C00D19B
:100820003CE204902078C007F64E05940CD0716825
:100830000C200140042900D08FE03068800303D5EC
:100840006068002800D131E12078800721D57068E8
:100850000007800F0ED070680C210140082900D0DD
:1008600098E00320C003716801400120C003814269
:1008700000D08FE030688007059C03D5E068012830
:1008800000D013E13068F82188432169C900014391
:100890003160059C2078000724D42078400736D4A6
:1008A0002078C00600D4CEE0706B059949694A1DD6
:1008B00000D1BDE0012900D03EE10421084370636E
:1008C000706B012101437163FFF7A2FD0546706B58
:1008D000800700D5AFE0FFF79BFD411B03200229F5
:1008E000F5D9DBE1706AE16900297ED00121084376
:1008F0007062FFF78DFD0546706A8007CDD4FFF763
:1009000087FD401B0228F7D9032007B0F0BD012066
:1009100003900107F0690840029006D1F06908438E
:10092000F061F0690840069006980191DC4F386844
:10093000C00546D403980402386820433860FFF7A6
:1009400067FD0546386820423BD1FFF761FD401B3B
:100950006428F7D9032007B0F0BD71680140082969
:1009600008D10320C00371680140012000048142C6
:1009700000D162E76268306801214F04002A00D18B
:1009800029E1052A00D11FE1012A00D03CE1090438
:1009900008433FE13068059CE168002937D0012118
:1009A00008433060FFF734FD05463068800700D506
:1009B00068E7FFF72DFD401B0228F6D9032007B09A
:1009C000F0BD05988168306AB64F002900D1DDE09E
:1009D000052900D1C5E0012900D1C6E0039988436B
:1009E0003062306A04218843C1E00121884370628B
:1009F000FFF70EFD0546706A800700D44DE7FFF74C
:100A000007FD401B0228F6D9032007B0F0BD0121E5
:100A100088433060FFF7FCFC05463068800700D44F
:100A200037E7FFF7F5FC411B03200229F5D935E133
:100A3000042188437063706BF821884305998969A4
:100A4000C900014371630598007880060BD5716871
:100A50000C2001400C294DD1706B800303D5059803
:100A6000006A012822D10598446A002C1BD07068C6
:100A70000C21014008291CD1012C17D00320C203EE
:100A800070680240F16A059CA36A9A420ED10F2257
:100A90001140236B994209D191040840E16A8842D0
:100AA000049800D0FAE0002007B0F0BD049807B029
:100AB000F0BD01200206316804929143316047067F
:100AC000FFF7A6FC0546022C0AD13068384200D157
:100AD000C3E0FFF79DFC411B03200229F5D9DDE0AF
:100AE00030683842DFD0FFF793FC411B0320022916
:100AF000F6D9D3E071680140082905D10320C0036D
:100B0000716801408142A7D0706B0599096A00297C
:100B100000D18FE001210A04104370634C04FFF7F9
:100B200077FC0546706B20429DD1FFF771FC411B9D
:100B300003200229F6D9B1E0042108437063706BE9
:100B4000012188437063FFF763FC0546706B8007E3
:100B500000D478E7FFF75CFC411B03200229F5D99C
:100B60009CE0042108433062306A039908433062F4
:100B7000FFF74EFC0546306A80071BD4FFF748FCA0
:100B8000401BB842F7D9032007B0F0BD0399884352
:100B90003062306A042188433062FFF739FC054631
:100BA000306A800706D5FFF733FC411B0320B942AA
:100BB000F6D973E002980028059C00D070E6F06931
:100BC00001998843F0616BE68A04104330600904A0
:100BD000306808431EE00A0490433060880431689E
:100BE00081433160FFF714FC0546059C30683842AC
:100BF00000D129E6FFF70CFC411B03206429F5D93D
:100C00004CE0C046001002400A0490433060890462
:100C1000306888433060FFF7FBFB05463068384298
:100C200000D011E6FFF7F4FB401B6428F6D903203F
:100C300007B0F0BD01210A04904370634C04FFF734
:100C4000E7FB0546706B204200D10CE7FFF7E0FBA5
:100C5000411B03200229F5D920E0F06A0F218843C7
:100C6000059A116B0143F1627B20C00371688143D7
:100C7000D06A0843916A014371603068049908435F
:100C80003060FFF7C5FB04463068384200D00AE701
:100C9000FFF7BEFB011B03200229F5D907B0F0BD09
:100CA0000070004088130000401E010E01D001209A
:100CB00070470749074A5060074803680B40032103
:100CC0008907591801600020906007211160704762
:100CD000FFFFFF0010E000E020ED00E0B0B50028CD
:100CE0001DD00446C06F002805D178200021215472
:100CF000204600F02BF82420E067206801680125D9
:100D0000A9430160606A002802D0204600F057F82D
:100D1000204600F025F9002803D02846B0BD012068
:100D2000B0BD0920C00221684A6882434A608868D1
:100D30002A22904388600868012202430A60204604
:100D400000F0A6F805462846B0BD000080B586B084
:100D50000021059104910391029101910068CE4A0E
:100D6000904201D006B080BD0F48826801230593F0
:100D70005B041A43826082681A400092009A0268FB
:100D80001A43026000681840009004910391022009
:100D900002900C2001900920C006009901A9FFF7DC
:100DA00061FA06B080BDC04614100240FEE7FEE7BF
:100DB0007047704780B5FFF72FFB80BD7047B0B517
:100DC000416A0A070CD4CA0714D18A071CD44A07FF
:100DD00024D4CA062CD48A0634D44A063CD44CE027
:100DE0000122D20303685C689443426B22435A6039
:100DF000CA07EAD00122520403685C689443826AFD
:100E000022435A608A07E2D50122120403685C6813
:100E10009443C26A22435A604A07DAD501229204F7
:100E200003685C689443026B22435A60CA06D2D5B9
:100E30000122120303689C689443826B22439A60E8
:100E40008A06CAD50122520303689C689443C26B88
:100E500022439A604A0610D501221305026854689D
:100E60009C43056C2C4354609D4206D103235B05D3
:100E700054689C43436C23435360090607D5012102
:100E8000C904026853688B43806C18435060B0BD3E
:100E9000F0B583B00446064678360025F560FFF7C6
:100EA000B7FA034620680168090721D502952B4847
:100EB000009001256905002220461F4600F0F8F841
:100EC000002812D0EFF3108085F3108821680A689B
:100ED00080239A430A6080F31088032020227C211B
:100EE000029D6250357003B0F0BD20683B46029D04
:100EF0000068400726D5194800900127B90500224F
:100F0000204600F0D5F800281CD0EFF3108087F3BE
:100F1000108809214901226813688B43136080F30C
:100F20001088EFF3108087F3108821688A68BA432D
:100F30008A6080F31088032020228021625035705F
:100F400003B0F0BD2020E067B060256664212A462A
:100F500028466250357003B0F0BDC046FFFFFF0168
:100F6000B0B5044600680168474A0A40A168236991
:100F70000B4365691D431543E1690D430560032279
:100F8000120343689343E2681A434260A269236AEA
:100F900013430B221202856895431D43856000228E
:100FA0003A4B984206DC3C4B984212D03B4B98425D
:100FB00016D00CE0364B984212D0364A904206D1F9
:100FC000374800688007000F364A125808E01022A0
:100FD00006E033480068800B0C22024031488258FA
:100FE0000125EB033048994210D1082A47D8C04662
:100FF0007A441279520097440442244219424242F0
:101000002300FFF7C9FB00281BD137E0082A36D898
:101010007A44127952009744043225320E32323229
:101020002400FFF7B9FB00281CD127E0FFF7C2FB23
:10103000002806D122E0FFF7BDFB002812D11DE0F9
:101040001846400061684A08101800F0AFF90246DF
:10105000103A16498A4212D201400007400F084355
:101060000AE0184661684A08101800F09FF9014626
:1010700010390E4A914202D22168C8600025002032
:10108000A066E0662846B0BDF369FFEFFF4B004065
:10109000004C00400038014000440040004800403F
:1010A00030100240BC15000800127A00F0FF00006A
:1010B000F0B585B01F4615460E460368D969314024
:1010C000891B4A424A410021AA4222D10A9C002C93
:1010D00022D00391611C24D1D9693140891B4A4235
:1010E0004A41AA4231D1D9693140891B4A424A4119
:1010F000AA422AD1D9693140891B4A424A41AA42AF
:1011000023D1D9693140891B4A424A41AA42E3D0DE
:101110001BE0084605B0F0BDFFF77AF9032005B0E3
:10112000F0BD402E049001D0802E14D1FFF770F94D
:10113000C01BA0420CD8049800680168C069304008
:10114000801B41424141A942F0D0039805B0F0BD57
:10115000032005B0F0BD7830019001200090C0025E
:10116000029006E0C8693040801B41424141A942DB
:10117000EBD1FFF74DF9C11B0320A1423ED80499E2
:1011800009680A685207EDD5CA69120738D4CA69D6
:10119000029B1A42E6D0029A0A62EFF31082012102
:1011A00081F3108809235B01049C246825689D4312
:1011B000256082F31088EFF3108281F31088049B7E
:1011C0001B689C688C439C60049B82F310881A6E99
:1011D000012A0BD1EFF3108281F3108819680B6894
:1011E0001024A3430B60049B82F310882021019CF0
:1011F000A16000221A669A662270E16005B0F0BD17
:1012000008250D62EFF31081009880F31088092201
:101210005201049B1B681C6894431C6081F3108876
:10122000EFF3108180F31088049A12689368834367
:101230009360049B81F31088196E01290CD1EFF3A0
:101240001081012282F310881A6813681024A343C6
:101250001360049B81F310882021019A9160002182
:10126000196699661170D56005B0F0BD9AB0FFF7A8
:10127000DDF80DAE301D3021FEF7BCFF00241694C2
:101280000120159020250D95089407940694059447
:10129000049403943046FFF7BDFA002803D0EFF31F
:1012A000108072B6FEE70C940B9403200A9007207E
:1012B000099009A801263146FFF7BCF9002803D0A0
:1012C000EFF3108072B6FEE705940220029002A8A8
:1012D000FFF70CF9002803D0EFF3108072B6FEE799
:1012E000119410940F940E940D94F1042B480268FD
:1012F0000A43026002680A4002920299B10502683C
:101300000A43026002680A4002920299710402686C
:101310000A43026000680840029002982048314663
:101320002246FFF76DF80920C006019029462246A3
:10133000FFF766F80F94212000040E9070030D90C3
:101340000DAF17483946FEF78DFF10940F940E9697
:101350000D9613483946FEF785FF10940F940E96AC
:101360000D9501983946FEF77DFF0E480C214B2262
:1013700052020D4B036042608460C46004614161AD
:101380008461C46104624462FFF7A8FC002803D0B2
:10139000EFF3108072B6FEE7FEE7C046141002407D
:1013A00000080048700000200044004043088B42C1
:1013B0001AD3002203098B4279D3030A8B425ED3EE
:1013C000030B8B4242D3030C8B4227D30902FF222B
:1013D00012BA030C8B4202D31212090203D0030B80
:1013E0008B4233D31AE0D3E0411A8041401C70474E
:1013F00003460B4371D443088B42F5D30022030903
:101400008B4254D3030A8B4239D3030B8B421DD337
:10141000030C8B4202D394466EE0090AC30B8B4245
:1014200001D3CB03C01A5241830B8B4201D38B03F0
:10143000C01A5241430B8B4201D34B03C01A524195
:10144000030B8B4201D30B03C01A5241C30A8B42D8
:1014500001D3CB02C01A5241830A8B4201D38B02C3
:10146000C01A5241430A8B4201D34B02C01A524167
:10147000030A8B4201D30B02C01A5241CDD2C309D9
:101480008B4201D3CB01C01A524183098B4201D355
:101490008B01C01A524143098B4201D34B01C01A40
:1014A000524103098B4201D30B01C01A5241C308B8
:1014B0008B4201D3CB00C01A524183088B4201D327
:1014C0008B00C01A524143088B4201D34B00C01A13
:1014D0005241411A524110007047CA0F00D0494290
:1014E000031000D34042534000229C4603098B4224
:1014F0002DD3030A8B4212D38901FC2212BA030AAC
:101500008B420CD3890192118B4208D3890192112D
:101510008B4204D3890137D0921100E08909C309B5
:101520008B4201D3CB01C01A524183098B4201D3B4
:101530008B01C01A524143098B4201D34B01C01A9F
:10154000524103098B4201D30B01C01A5241C30817
:101550008B4201D3CB00C01A524183088B4201D386
:101560008B00C01A5241D9D243088B4201D34B00A1
:10157000C01A5241411A00D20146524110466346F8
:101580005B1000D34042704763465B1000D340427B
:1015900001B50021004201D0C9430846C046C046FB
:1015A00002BD000000000000000001020304060765
:1015B0000809000000000102030400000000000010
:1015C00004000000080000000200000002030405FF
:1015D000060708090A0B0C0D0E0F10100102030478
:1015E00005060708090A0B0C0D0E0F10101600084F
:1015F00000000020100000001C0100082016000858
:1016000010000020F00600003C010008000000006F
:10161000010000000400000000127A000000000039
:04000005080000C12E
:00000001FF
