:020000040800F2
:1000000020080020D50000082F1900082D1900082D
:1000100000000000000000000000000000000000E0
:10002000000000000000000000000000331900087C
:100030000000000000000000311900083519000818
:10004000E7000008E7000008E7000008E7000008F4
:10005000E7000008E7000008E7000008E7000008E4
:10006000E7000008E7000008E7000008E7000008D4
:10007000E7000008E7000008E7000008E7000008C4
:10008000E7000008411900085D190008E7000008B2
:10009000E7000008E7000008E7000008E7000008A4
:1000A000E7000008E7000008E7000008CD1E000890
:1000B000E7000008E7000008E7000008E700000884
:1000C0000348854600F04AF90048004771200008BF
:1000D000200800200448804704480047FEE7FEE768
:1000E000FEE7FEE7FEE7FEE73D190008C100000855
:1000F000D2B201E00270401C491EFBD270470022C0
:10010000F6E710B513460A4604461946FFF7F0FF16
:10011000204610BDF0B51FB488B00B990998002493
:1001200048400999C00F490049080991C0070B9937
:100130000090490049080B9109990898A646084380
:100140001CD00B990A98084318D009980124400044
:10015000420D4800410D099824050003000B20437F
:1001600009900B980003000B20430B9050181C497A
:100170004018002201901446104605E00020014678
:100180000DB0F0BD032801DA034600E003239C46CE
:10019000C11A0AAE0AE05F0008ADED5B4F00F75BE5
:1001A0007D430027AA187C41491C5B1E6145F2DD96
:1001B000410004AB5A522104120C0A43240C401C87
:1001C0000828DFDB019802900099704601910090A9
:1001D000059B049A0799069800F06DF8D0E7000097
:1001E0000DFCFFFF0EB505490291002100910A4662
:1001F0000B46019100F05FF803B000BD330400002E
:100200004A0009030123090B1B051943094B10B5CB
:10021000520D9A4201DA002010BD064B34339A4247
:1002200003DC9A1A00F029F810BD034951188840E0
:1002300010BD0000FF030000CDFBFFFF70B50446BA
:10024000002903D000202022012310E0002801D043
:100250000020C043C046C0460DE02546D5408D4233
:1002600005D30D469540641B1D4695404019154623
:10027000521E002DF1DC214670BD10B5202A04DB92
:100280000846203AD040002110BD0B46D340D04054
:100290002024A21A91400843194610BD10B5002B26
:1002A00008DA0024401C614192185B411A4301D1D5
:1002B0004008400010BDF0B51FB482B005460C00E8
:1002C00003D0084602F032FB02E002F02FFB2030A0
:1002D000024600902146284600F058F8049B059AF3
:1002E00004460F4618431143084314D018461043E0
:1002F0001BD0009840210A1A18460599FFF7BDFF48
:1003000005460E46009A0599049800F03FF8084308
:1003100005D0012004E02046394607B0F0BD00209A
:10032000C11705430E432C43374300990E986305CC
:10033000401A7905E40A00220C43FD0A0A3002D56E
:1003400000200146E9E70105101969410C9C0D9D4B
:1003500000196941FFF7A2FFDFE700001CB509485B
:1003600000900948019005460126009C05E0E368DD
:1003700007CC33430C3C98471034AC42F7D3FFF71B
:10038000A3FE0000702C0008902C000810B5202A55
:1003900004DB0146203A9140002010BD914020230B
:1003A0009C1A0346E3401943904010BD70B58C1869
:1003B0000578401C6B075B0F01D10378401C2A11A4
:1003C00006D10278401C03E006780E70401C491CE0
:1003D0005B1EF9D12B0705D40023521E0DD40B70E0
:1003E000491CFAE70378401CCB1A921C03E01D78E5
:1003F0000D70491C5B1C521EF9D5A142D8D30020B8
:1004000070BD00000D490A680B689B1A834213D225
:1004100000BF0B689B1A83420ED200BF0B689B1A69
:10042000834209D200BF0B689B1A834204D200BFEB
:100430000B689B1A8342EBD37047C0461804002018
:10044000F0B583B0002402943422825C012A02D1E8
:10045000022003B0F0BD074634370668B268520781
:1004600015D401970D684B6801270097AF403E4AAD
:10047000934214D1B06AB843B062284610380228BB
:100480002046019F08D8112D1BD03C481AE0816BF3
:1004900020220A43826301203C7003B0F0BDB26A9F
:1004A0003A43B262C06A421E072A4AD2284610382E
:1004B00002282046019FEFD8112D0ED00099080682
:1004C0000DE02D48102D00D12D4828490A68024022
:1004D0000A6020463C7003B0F0BD00998805102DDD
:1004E00000D1C80521490A6802430A60102D204640
:1004F000D2D11F4800681F49FFF7A0FE0A214143DF
:100500000291029800282046C6D00298401E029010
:100510000298002811D00298401E029002980028EC
:100520000BD00298401E02900298002805D0029835
:10053000401E029002980028E7D120463C7003B08C
:10054000F0BD009A12079042B0D0726907200240B5
:1005500089689142AAD072698243726101407069D0
:1005600008437061A2E7C04601100000082701405F
:100570000C00002040420F00FFFFBFFFFFFFFFFE07
:10058000FFFF7FFFF0B581B00124002862D006464E
:100590002436816B002903D0816BC9060AD555E04A
:1005A00000213174C163054600F094F82846816B40
:1005B000C9064BD401688A68520747D48122520089
:1005C000836B93439A1C82638B6803221340012B35
:1005D00005D10B68DB070ED1CB681B040BD4CB68AD
:1005E0001824A34384681C43CC6092070B6993438F
:1005F00042681A430A61CA68344B1340CB60826A6E
:10060000521E531E9A411203037E9B03447EE40351
:100610001C43837E5D032543C46807692C43144350
:10062000BA1E55425541AD002543327852002A4347
:10063000C47E012C14D1002B0FD0836B20241C43CB
:100640008463C36B01241C43C46309E0816B1022E3
:100650000A438263204601B0F0BD01231B041A4304
:10066000C369FF24C234A34202D0046A22431A435E
:10067000CB681343CB60C36A5C1E072C21D24C6944
:100680000725AC434C612B404C691C434C61C96845
:100690000F4B0B40934207D10024C463816B0122AE
:1006A0000A4302218A43D4E7816B10220A430221C4
:1006B0008A438263C16B01242143C163204601B098
:1006C000F0BD01242407A342D9D0E0E71902FEFFC0
:1006D000E7FF3F8310B586B0002105910491039197
:1006E000029101910068114A904201D006B010BDFC
:1006F000012042020E4B5C6814435C605C6814404D
:100700000094009AC0041A6802431A601A680240F2
:1007100000920391032002900F2001900098054859
:1007200001A900F019F806B010BDC0460024014030
:100730001410024000080048B0B5044600F0E2F88A
:100740000546601C02D08C480078041900F0DAF8E5
:10075000401BA042FAD3B0BDF0B58BB006900C6838
:10076000002C00D1BDE06048069A824201D00520ED
:1007700000E004201723DB06069AD2180A23DA4188
:100780000192042A00D301900698203000900026A0
:1007900035463346099122460BE03C43089E1460DF
:1007A0005B1C0A681046D840361DAD1C002800D1DD
:1007B00097E0012007469F403A40F1D00490089608
:1007C00003200446AC400295E54349680E460640C6
:1007D000741E012C05920795039110D8069A906813
:1007E0002840099CE468029DAC4004439460C8061C
:1007F000C00F98405468BC430443546006E0032E85
:10080000029D03D10646059F039C1FE0069AD0680F
:100810000799084009998C68AC400443D460022EC3
:10082000059F039C12D11C20089908400F2181408C
:10083000DC08A400009A16598E43099F396981404B
:10084000314311517C68059F03262640AE4006992E
:100850000868079A104030430860A003800F099988
:10086000089E049A9CD04F490868104308600868A5
:1008700010400A900C2030400F21814003241E4676
:10088000A6430A9C1A4AB4588C43019981402143DB
:10089000B1500999154A96684868C4020FD53E437D
:1008A0009660D66884020FD4BE43D660566884032F
:1008B0000FD4BE4356601468C00310D56DE7BE4325
:1008C0009660D6688402EFD53E43D66056688403AE
:1008D000EFD53E4356601468C00300D55DE7BC43C6
:1008E0005CE70BB0F0BDC0460010004800040140BA
:1008F00008000140002A02D01822815070472822A7
:1009000081507047054800687047C0461A48007813
:1009100002490A68101808607047C0461C0400208D
:1009200010B5DD48016810220A4302600024204609
:1009300000F004F800F022F8204610BD70B504461F
:100940007D20C0000C4E3178FFF778FC0146DA4874
:100950000068FFF773FC00F02DFC0125032C08D87C
:10096000002806D10025E84321462A4600F028F851
:100970007460284670BDC0460400002082B009485B
:100980000168012211430160016811400191019940
:10099000110742680A43426040680840009000988E
:1009A00002B0704718100240002805D41F210840EB
:1009B00001218140014801607047C04600E100E02C
:1009C000002805D40322034693430A4A9A1803E0F9
:1009D0000C220240064BD2188007C00E8901C9B212
:1009E0008140FF238340106898430843106070479C
:1009F00014ED00E000E400E0F0B587B00446807834
:100A0000C0074C4F4FD00120059001073A1F1068D6
:100A10000840049006D11068084310601068084030
:100A20000690069802920391434F3868C00512D48D
:100A300005980602386830433860FFF763FF0546C3
:100A40003868304207D1FFF75DFF401B6428F7D9B3
:100A5000032007B0F0BD032001900002354F396834
:100A6000014012D06268024091420ED00598000405
:100A700039683A6802433A603A6882433A60084605
:100A80002E4A10403860C80745D138682B490840C5
:100A90006168014339600498002804D1029A106803
:100AA0000399884310602168C8070AD1880710D4C9
:100AB000880617D488031DD40020490523D407B025
:100AC000F0BD386903229043A26802433A61880767
:100AD000EED5032000043A698243E0681043386190
:100AE0008806E7D5386910229043226902433A61AB
:100AF0008803E1D5386980229043A26902433A61B4
:100B000000204905DBD539694022914362690A43D7
:100B10003A6107B0F0BDFFF7F5FE05465F4E386855
:100B20008007B2D4FFF7EEFE401BB042F7D9019820
:100B300007B0F0BD2010024000700040FFFCFFFF36
:100B4000F0B581B0002842D00D460446524B1868DB
:100B500001210840A84208D21A68012082432A4392
:100B60001A601A680240AA4251D120688207674E73
:100B70000CD5420704D507221202336813433360B1
:100B80003268F0239A43A36813433360C00721D12E
:100B9000414A116801200140A94205D911688143E9
:100BA00011601168C90732D121784907574F06D51E
:100BB000072109023A688A43E168114339603B68BA
:100BC0001907890F524A022912D2144655E0012012
:100BD00001B0F0BD6268032A14D0022A4B4B0BD03F
:100BE000181F012A15D10068800308460FD514E0AC
:100BF00003292CD1474C40E0181F006880010846AB
:100C000005D50AE0414B186B8003084605D401B0B6
:100C1000F0BD006880070846F9D5186803210091E7
:100C2000884310431860FFF76DFE06461B4F374898
:100C300000680C210140606880008142A8D0FFF765
:100C400061FE801BB842F2D9009801B0F0BD0321CB
:100C5000CD0399022B40090F2F4C645CB96A0F2613
:100C60000E402E49895DAB4203D0000483421046FA
:100C700000E02848FFF7E2FA444338680006000F16
:100C80000749085CC4400C48046000242046FFF774
:100C900055FE204601B0F0BD002002408813000040
:100CA000A42A000804480068184909684905490F42
:100CB000024A515CC84070470C000020B42A00086A
:100CC000B0B512490A681007830F1148022B02D3EE
:100CD000032B01D10F48B0BD0323DB0394021A405C
:100CE000240F0D4D2C5D896A0F250D400B49495D80
:100CF0009A4203D001231B049A4200E00548FFF703
:100D00009DFA014620464843B0BDC046041002404B
:100D100000127A00006CDC02A82B0008B82B000837
:100D2000F0B587B004460120002C00D13CE20490CD
:100D30002078C007F64E05940CD071680C20014055
:100D4000042900D08FE03068800303D56068002854
:100D500000D131E12078800721D570680007800F2D
:100D60000ED070680C210140082900D098E00320C3
:100D7000C003716801400120C003814200D08FE0B0
:100D800030688007059C03D5E068012800D013E196
:100D90003068F82188432169C90001433160059C0E
:100DA0002078000724D42078400736D42078C00665
:100DB00000D4CEE0706B059949694A1D00D1BDE0B1
:100DC000012900D03EE1042108437063706B0121CA
:100DD00001437163FFF796FD0546706B800700D5F0
:100DE000AFE0FFF78FFD411B03200229F5D9DBE1BE
:100DF000706AE16900297ED0012108437062FFF723
:100E000081FD0546706A8007CDD4FFF77BFD401B4E
:100E10000228F7D9032007B0F0BD01200390010795
:100E2000F0690840029006D1F0690843F061F0696A
:100E30000840069006980191DC4F3868C00546D4FA
:100E400003980402386820433860FFF75BFD0546CD
:100E5000386820423BD1FFF755FD401B6428F7D985
:100E6000032007B0F0BD71680140082908D10320B4
:100E7000C0037168014001200004814200D162E793
:100E80006268306801214F04002A00D129E1052A57
:100E900000D11FE1012A00D03CE1090408433FE1F1
:100EA0003068059CE168002937D001210843306093
:100EB000FFF728FD05463068800700D568E7FFF793
:100EC00021FD401B0228F6D9032007B0F0BD05988C
:100ED0008168306AB64F002900D1DDE0052900D1D4
:100EE000C5E0012900D1C6E0039988433062306A29
:100EF00004218843C1E0012188437062FFF702FDAD
:100F00000546706A800700D44DE7FFF7FBFC401BE5
:100F10000228F6D9032007B0F0BD012188433060D4
:100F2000FFF7F0FC05463068800700D437E7FFF78D
:100F3000E9FC411B03200229F5D935E1042188434E
:100F40007063706BF821884305998969C900014372
:100F500071630598007880060BD571680C200140FC
:100F60000C294DD1706B800303D50598006A0128C8
:100F700022D10598446A002C1BD070680C210140D6
:100F800008291CD1012C17D00320C203706802402D
:100F9000F16A059CA36A9A420ED10F221140236B7D
:100FA000994209D191040840E16A8842049800D02E
:100FB000FAE0002007B0F0BD049807B0F0BD0120B2
:100FC000020631680492914331604706FFF79AFCAC
:100FD0000546022C0AD13068384200D1C3E0FFF741
:100FE00091FC411B03200229F5D9DDE0306838422D
:100FF000DFD0FFF787FC411B03200229F6D9D3E09D
:1010000071680140082905D10320C00371680140BF
:101010008142A7D0706B0599096A002900D18FE041
:1010200001210A04104370634C04FFF76BFC054672
:10103000706B20429DD1FFF765FC411B0320022904
:10104000F6D9B1E0042108437063706B0121884335
:101050007063FFF757FC0546706B800700D478E794
:10106000FFF750FC411B03200229F5D99CE0042125
:1010700008433062306A039908433062FFF742FC4C
:101080000546306A80071BD4FFF73CFC401BB84282
:10109000F7D9032007B0F0BD039988433062306A66
:1010A000042188433062FFF72DFC0546306A800733
:1010B00006D5FFF727FC411B0320B942F6D973E0A0
:1010C00002980028059C00D070E6F06901998843D9
:1010D000F0616BE68A04104330600904306808430D
:1010E0001EE00A0490433060880431688143316017
:1010F000FFF708FC0546059C3068384200D129E618
:10110000FFF700FC411B03206429F5D94CE0C046E1
:10111000001002400A04904330608904306888431C
:101120003060FFF7EFFB05463068384200D011E62B
:10113000FFF7E8FB401B6428F6D9032007B0F0BD99
:1011400001210A04904370634C04FFF7DBFB054662
:10115000706B204200D10CE7FFF7D4FB411B03204A
:101160000229F5D920E0F06A0F218843059A116B16
:101170000143F1627B20C00371688143D06A084358
:10118000916A014371603068049908433060FFF749
:10119000B9FB04463068384200D00AE7FFF7B2FBDB
:1011A000011B03200229F5D907B0F0BD00700040F3
:1011B00088130000401E010E01D00120704707492E
:1011C000074A5060074803680B40032189075918F4
:1011D000016000209060072111607047FFFFFF0051
:1011E00010E000E020ED00E010B53C22825C012A16
:1011F00001D1022010BD02463C3202235370006828
:1012000043687024A3430C681C4383684460474CC4
:10121000A04207DC0124A407A04209D0844CA042CC
:1012200006D00AE0454CA04202D03F4CA04204D177
:101230008024A34349681943816000201070012174
:10124000517010BD70B5002829D005463C3569782D
:10125000002905D100212970044600F071F82046CC
:10126000022169700268166801218C07A24205D02C
:101270002D4B9A4202D06E4B9A4219D170239E4355
:1012800083683343294EB24216DD294CA24208DC62
:10129000254CA24218D0294CA24215D042E0012090
:1012A00070BD244CA2420FD0234CA2420CD039E096
:1012B00033461E4EB242E8DCA24205D05C4CA2424C
:1012C00002D05A4CA2422DD103242402A343046924
:1012D0001C4380239C43836923431360C368D36208
:1012E00043689362F74BD3180A24E341072B06D8CF
:1012F0000C469C40E1231C4201D0406910635161BF
:101300001069C00702D0106988431061A972A970E2
:10131000E97029716971A971E9712972697269703D
:10132000002070BD1C46D4E7002C0140FF2B01407B
:10133000FF4301400048014000440140004001409B
:1013400010B584B000683949884225D018498842D0
:101350000ED01849884229D117480168102211433C
:1013600001600068104003900398112401210AE0F5
:10137000114801682022114301600068104002906A
:1013800002981224022100222046FFF719FB204672
:10139000FFF70AFB04B010BD0120000206490A68ED
:1013A00002430A60096801400191019804B010BD30
:1013B00000140040001000401C10024080B586B0B0
:1013C0000021059104910391029101910068174A4F
:1013D000904211D0F74A904225D10120C004154A0D
:1013E00013680343136012680240009200980320C0
:1013F000020211480B460DE0012040040D4A13681B
:101400000343136012680240009200980920C0064E
:101410000423102205930491039102210291019269
:1014200001A9FFF799F906B080BDC0460020004031
:10143000000400401410024000080048F0B583B0DA
:101440003C23C35C012B02D1022003B0F0BD074650
:101450003C370223DA41032A00D9B0E00297C046A4
:101460007A441279520097440197485D0268156AE0
:10147000146A012084431462D54C14190A26F441DD
:101480009D438E682E43536800930B6801939569C2
:10149000072C00D910E10346A340E1273B4200D1CD
:1014A00003E10C239E43CB680427BB433343029FD5
:1014B000072C00D904E1A040E124204200D1FFE044
:1014C00003200002009E86434C698869344304432C
:1014D0001046183054607324A543019C2543956140
:1014E0004C6854631362936908241C4394619369A4
:1014F0000424A34393610969C9E00268106A0127C3
:101500003B02146A9C4314627B0298438B681B0263
:10151000034350680C680194D569A54EB24253D07C
:101520001E465AE00268156A01263003136A834397
:101530001362A74813180A20C34150688C680F68CB
:101540000197D769072B00D9B4E0009434469C403A
:10155000E1231C4200D1A6E0B30398434B699B01F1
:101560000343009C10461C30536073231B029F43AF
:10157000019B1B023B43D3614B68136473039D4380
:1015800023032B431362F302D4691C43D461B302D7
:10159000D4699C43D46177E00268106A136A10240E
:1015A000A3431362202398438B681B0103435068B5
:1015B0000D6894697E4EB24237D01E463CE0012051
:1015C0000021397003B0F0BD0326B602B3433E4C90
:1015D000FF3CCE68360226401E437D4BD3180A24BA
:1015E000E341072B5BD89F40E1231F4257D00323E1
:1015F0001B0398434B698C691C4323010343029FDF
:1016000010461C30536073239D43019B1D43D561DD
:101610004B68D3631662D36908241C43D461D36931
:101620000424A343D361096931E0C026B343CE68E3
:1016300036014027BE431E43654BD3180A27FB41A2
:10164000072B2ED801279F40E1231F4229D00323D7
:101650009B0298434B698F691F43BB0003431046AD
:101660001830536073231B029C432B022343936166
:101670004B68936316620123DC02956925439561EB
:101680009B0294699C43946109690902029F026864
:101690000A43026000200021397003B0F0BD034608
:1016A000ADE70346DBE703465BE73346029F072CC3
:1016B00006D800E7034655E73346072C00D8FAE67C
:1016C000009C05E700D4FEBFFFFBFFFF70B50028BC
:1016D00029D005463C356978002905D100212970BB
:1016E000044600F077F82046022169700268166807
:1016F00001218C07A24205D02D4B9A4202D03E4BCD
:101700009A4219D170239E43836833432A4EB242D2
:1017100016DD2A4CA24208DC254CA24218D02A4CE5
:10172000A24215D042E0012070BD254CA2420FD04C
:10173000244CA2420CD039E033461F4EB242E8DCC2
:10174000A24205D02C4CA24202D0204CA2422DD164
:1017500003242402A34304691C4380239C4383691C
:1017600023431360C368D36243689362184BD31852
:101770000A24E341072B06D80C469C40E1231C4277
:1017800001D04069106351611069C00702D010692F
:1017900088431061A972A970E97029716971A971F2
:1017A000E971297269726970002070BD1C46D4E726
:1017B000002C014000040040FF2B0140FF4301408A
:1017C000004801400044014000400140002000402A
:1017D00000D4FEBF81B000680749884201D001B043
:1017E00070470648016802221143016000681040FA
:1017F0000090009801B07047000400401C100240A7
:10180000B0B500281DD00446C06F002805D178204F
:1018100000212154204600F02BF82420E0672068A6
:1018200001680125A9430160606A002802D02046B2
:1018300000F0F4F8204600F0C3F9002803D0284651
:10184000B0BD0120B0BD0920C00221684A688243B2
:101850004A6088682A22904388600868012202430F
:101860000A60204600F044F905462846B0BD000055
:1018700070B586B0002405940494039402940194F6
:101880000068274988422CD02649884246D12648FC
:101890004168012205929303194341604168194050
:1018A00000910099510402680A43026000680840F0
:1018B0000090032504950394022002906802019091
:1018C00000980920C00601A9FEF746FF1B263046F6
:1018D00029462246FFF774F83046FFF765F806B050
:1018E00070BD114881680122059252041143816044
:1018F00081681140009100990168114301600068FE
:101900001040009004940394022002900C20019057
:101910000920C006009901A9FEF71EFF06B070BDA0
:10192000004400400038014014100240FEE7FEE78A
:101930007047704780B5FEF7E9FF80BD7047000033
:1019400004480168491C0160034801680122914371
:1019500001607047180400201010004080B52C482A
:101960000168491C01602B498A68042313438B607A
:101970000A68520708D40A68520705D40A68520751
:1019800002D40A685207F3D50A6C42600A6852070B
:1019900008D40A68520705D40A68520702D40A68B4
:1019A0005207F3D50A6C82600A68520708D40A68A5
:1019B000520705D40A68520702D40A685207F3D5C1
:1019C0000A6CC2600A68520708D40A68520705D434
:1019D0000A68520702D40A685207F3D5096C0161FC
:1019E0007D21890042688A4208D882688A4205D8E7
:1019F000C2688A4202D80069884202D9002000F0F9
:101A0000D3FA0548016801229143016080BDC046B8
:101A1000900100200024014010140040B0B5416A3C
:101A20000A070CD4CA0714D18A071CD44A0724D445
:101A3000CA062CD48A0634D44A063CD44CE001228F
:101A4000D20303685C689443426B22435A60CA071E
:101A5000EAD00122520403685C689443826A2243FC
:101A60005A608A07E2D50122120403685C68944335
:101A7000C26A22435A604A07DAD5012292040368F7
:101A80005C689443026B22435A60CA06D2D5012295
:101A9000120303689C689443826B22439A608A060F
:101AA000CAD50122520303689C689443C26B224347
:101AB0009A604A0610D501221305026854689C43B7
:101AC000056C2C4354609D4206D103235B0554688A
:101AD0009C43436C23435360090607D50121C90485
:101AE000026853688B43806C18435060B0BD00009F
:101AF000F0B583B00446064678360025F560FEF75B
:101B000001FF034620680168090721D502952B488B
:101B1000009001256905002220461F4600F0F8F8D4
:101B2000002812D0EFF3108085F3108821680A682E
:101B300080239A430A6080F31088032020227C21AE
:101B4000029D6250357003B0F0BD20683B46029D97
:101B50000068400726D5194800900127B9050022E2
:101B6000204600F0D5F800281CD0EFF3108087F352
:101B7000108809214901226813688B43136080F3A0
:101B80001088EFF3108087F3108821688A68BA43C1
:101B90008A6080F3108803202022802162503570F3
:101BA00003B0F0BD2020E067B060256664212A46BE
:101BB00028466250357003B0F0BDC046FFFFFF01FC
:101BC000B0B5044600680168474A0A40A168236925
:101BD0000B4365691D431543E1690D43056003220D
:101BE000120343689343E2681A434260A269236A7E
:101BF00013430B221202856895431D438560002222
:101C00003A4B984206DC3C4B984212D03B4B9842F0
:101C100016D00CE0364B984212D0364A904206D18C
:101C2000374800688007000F364A125808E0102233
:101C300006E033480068800B0C220240314882588D
:101C40000125EB033048994210D1082A47D8C046F5
:101C50007A44127952009744044224421942424283
:101C60002300FFF71FF800281BD137E0082A36D8D9
:101C70007A44127952009744043225320E323232BD
:101C80002400FFF70FF800281CD127E0FFF718F811
:101C9000002806D122E0FFF713F8002812D11DE03A
:101CA0001846400061684A081018FEF7C7FA024655
:101CB000103A16498A4212D201400007400F0843E9
:101CC0000AE0184661684A081018FEF7B7FA01469C
:101CD00010390E4A914202D22168C86000250020C6
:101CE000A066E0662846B0BDF369FFEFFF4B0040F9
:101CF000004C0040003801400044004000480040D3
:101D000030100240C82B000800127A00F0FF0000DB
:101D1000F0B585B01F4615460E460368D9693140B7
:101D2000891B4A424A410021AA4222D10A9C002C26
:101D300022D00391611C24D1D9693140891B4A42C8
:101D40004A41AA4231D1D9693140891B4A424A41AC
:101D5000AA422AD1D9693140891B4A424A41AA4242
:101D600023D1D9693140891B4A424A41AA42E3D072
:101D70001BE0084605B0F0BDFEF7C4FD032005B02A
:101D8000F0BD402E049001D0802E14D1FEF7BAFD94
:101D9000C01BA0420CD8049800680168C06930409C
:101DA000801B41424141A942F0D0039805B0F0BDEB
:101DB000032005B0F0BD7830019001200090C002F2
:101DC000029006E0C8693040801B41424141A9426F
:101DD000EBD1FEF797FDC11B0320A1423ED8049929
:101DE00009680A685207EDD5CA69120738D4CA696A
:101DF000029B1A42E6D0029A0A62EFF31082012196
:101E000081F3108809235B01049C246825689D43A5
:101E1000256082F31088EFF3108281F31088049B11
:101E20001B689C688C439C60049B82F310881A6E2C
:101E3000012A0BD1EFF3108281F3108819680B6827
:101E40001024A3430B60049B82F310882021019C83
:101E5000A16000221A669A662270E16005B0F0BDAA
:101E600008250D62EFF31081009880F31088092295
:101E70005201049B1B681C6894431C6081F310880A
:101E8000EFF3108180F31088049A126893688343FB
:101E90009360049B81F31088196E01290CD1EFF334
:101EA0001081012282F310881A6813681024A3435A
:101EB0001360049B81F310882021019A9160002116
:101EC000196699661170D56005B0F0BD10B530483F
:101ED0000168890600D45AE00089C4B22DA02146C9
:101EE00000F014FD303C422C00D950E07C442479B1
:101EF0006400A744213B3733272D3F434C4C4C4CC7
:101F00004C4C4C4C4C4C4C4C4C4C4C4C4C4C4C4C11
:101F10004C4C4C4C4C4C4C4C4C4C4C4C4C4C4C4C01
:101F20004C4C4C4C4C4C494C4C4C474C4C4C4C4CF9
:101F3000254C4C4C314C2B001A480021017010BD2F
:101F4000032022E017480421017010BD02201CE08C
:101F500014480521017010BD002016E0114803212E
:101F6000017010BD0F480221017010BD0D48012104
:101F7000017010BD0B480621017010BD09480721F2
:101F8000017010BD012000E0042000F00DF810BD2C
:101F90001C380140627420636D64203D202563205D
:101FA0000A0D00001404002070B504282FD8F02179
:101FB00090266424164D800001A2125820469746B0
:101FC00009200008F51F0008D51F0008F31F0008AE
:101FD000DD1F00082D2120460C460BE02868F0216B
:101FE000014329606420FEF7A7FB602650200446C9
:101FF00000E02D2000F068FC204600F06BFC286813
:10200000F02188432860314628680843286070BD65
:10201000140800480B480021416201680122114365
:1020200001601102026A0A430262704705480021FA
:10203000416201680122114301601103026A0A43EF
:1020400002627047000400400248016801220A430E
:10205000026070471400004880B5044A914202D0E3
:102060000020C04380BD00F03BFC80BD000000208C
:10207000A4B0FEF755FC16AD281D30263146FEF7FC
:102080003EF801201E90169600241F9410211C91EA
:102090001B9010940F940E940D940C940B9428465E
:1020A000FEF73EFE002803D0EFF3108072B6FEE785
:1020B00015941494032713970720129012A8012552
:1020C0002946FEF73DFD002803D0EFF3108072B6DD
:1020D000FEE70D940C940A970AA8FEF78DFC0028E1
:1020E00003D0EFF3108072B6FEE704971A941994A8
:1020F000189417941694E804E24A11680143116099
:10210000116801400A910A98A805116801431160FD
:10211000116801400A910A9868041168014311602E
:10212000116801400A910A980920C70609973846A4
:1021300029462A46FEF7DEFB202138460591224635
:10214000FEF7D8FBD048F02108912246FEF7D2FBDB
:1021500018942120079000041790680306901690A9
:102160002F4616ADC8482946FEF7F6FA199418947A
:1021700017970798169009982946FEF7EDFA1994D3
:102180001894179708981690BF482946FEF7E4FA66
:10219000BE480C214B225202BD4B0360426084605A
:1021A000C460046141618461C46104624462FFF7F8
:1021B00027FB002803D0EFF3108072B6FEE70997E3
:1021C000B4488021089181616327B349FF25E03538
:1021D00022C00460476084600B940A941C941B9492
:1021E0001A9419940838FFF771FA002803D0EFF316
:1021F000108072B6FEE707950397A6480AA9FEF776
:10220000F3FF002803D0EFF3108072B6FEE71A94B4
:1022100018941794602516959E4816A908273A46E3
:10222000FFF70CF9002803D0EFF3108072B6FEE739
:102230000297984816A90C273A46FFF7FFF800289E
:1022400003D0EFF3108072B6FEE79248FFF7B6F8BE
:10225000924809990903019181630699C163046257
:102260004662E12149028E4E066041608460C4608E
:10227000046147618461C461FFF7C2FA002803D09A
:10228000EFF3108072B6FEE724218648445431688B
:10229000059A11433160316A40220A433262099B38
:1022A000836204620426804A07991E3914C0029A88
:1022B000026044608360C660046141610838FEF7D3
:1022C00061F9002803D0EFF3108072B6FEE704989E
:1022D0001890019817900A201690724816A9FEF7D8
:1022E000AFF8002803D0EFF3108072B6FEE70B20A2
:1022F00016906C4816A9FEF7A3F8002803D0EFF358
:10230000108072B6FEE71697664816A9FEF798F891
:10231000002803D0EFF3108072B6FEE70D20169070
:10232000604816A9FEF78CF8002803D0EFF3108060
:1023300072B6FEE75349086AB04308625A4A906889
:1023400009990843906058480068C0070BD1564867
:102350000068C00707D154480068C00703D152483D
:102360000068C007EFD0514808998161504F2F2174
:10237000504E0660021D92C217941694FEF762FF3B
:10238000002803D0EFF3108072B6FEE7474816A985
:10239000FEF72AFF002803D0EFF3108072B6FEE7A5
:1023A0003068099908433060F0680843F06042489B
:1023B000089981614149424E0660021D92C21794FC
:1023C0001694FEF73FFF002803D0EFF3108072B69B
:1023D000FEE7394816A9FEF707FF002803D0EFF300
:1023E000108072B6FEE73068099908433060F068E3
:1023F0000843F060334808998161334901600799C7
:10240000416084600399C16004611C941B941A9418
:102410001994FEF717FF002803D0EFF3108072B66F
:10242000FEE72848FFF752F9002803D0EFF31080A9
:1024300072B6FEE71A94189417941695214816A9B7
:102440002246FEF7FBFF002803D0EFF3108072B6A0
:10245000FEE71C48FEF7B2FFFFF7DCFDFFF7E6FDE5
:10246000FFF7F2FD2046FFF79FFDF64D2C7002E0CE
:10247000C0B200F02BF82878411EC9B20629F7D364
:102480002046F5E714100240000800488C030020A5
:10249000004400402C0200200004004004030020FF
:1024A00000380140A40100200024014074020020F3
:1024B000E703000000100040BC020020BF12000033
:1024C00000140040E401002000200040F0B583B07B
:1024D000062852D84000C04678448088400087448F
:1024E0000600D4004E0086001100140153010120A3
:1024F000C043CE490A6A02400A620A6802400A6082
:1025000003B0F0BDD6A000F001FAC84E00257562F8
:102510003068012420433060306A204330622F4607
:10252000D348C05D8000C4490858F0627562FDF769
:1025300059FEC24AC24BFDF7EDFDFDF761FE706327
:102540007D208000FDF75EFFE043316A014031628B
:102550003168014031606420FDF754FFB9480078CC
:1025600004280AD100207062306820433060306A4D
:10257000204330627F1C152FD2D103B0F0BDC4A020
:1025800000F0C4F90026C74FA84C0296C648805DEB
:102590008000A9494018C069E06202996162FDF7B4
:1025A00021FEA64AA64BFDF7B5FDFDF729FE6063A7
:1025B0003888FDF727FF0125E843216A01402162A1
:1025C0002168014021606420FDF71CFF9D480078D0
:1025D0000228D2D100206062206828432060206A4F
:1025E00028432062BF1C761C312ECFD1C5E7A1A0A5
:1025F00000F08CF98D4F00247C6238680125284357
:102600003860386A284338629F4E14E0E9433A6ADA
:102610000A403A623A680A403A60FDF7F3FE002049
:102620007862386828433860386A28433862B61CB4
:10263000641C1B2CA1D03088142CE7D0062CE5D0CC
:102640009249095D89007C4A5158F96200227A62F8
:1026500002900846FDF7C6FD784A794BFDF75AFD12
:10266000FDF7CEFD78630298FDF7CCFEE843396AAA
:10267000014039623968014039606420FDF7C2FECB
:10268000704800780328CAD077E788A000F03EF9A8
:10269000664E002777623068012420433060306A3C
:1026A00020433062864D02978648C05D80006249B3
:1026B0004018C069F06202997162FDF793FD5F4AAC
:1026C0005F4BFDF727FDFDF79BFD70632888FDF745
:1026D00099FEE043316A0140316231680140316066
:1026E0006420FDF78FFE57480078012800D044E7AA
:1026F00000207062306820433060306A20433062CE
:10270000AD1C7F1C2A2FCFD137E74FA000F0FEF879
:10271000464E002777623068012420433060306ADB
:10272000204330624C4D02974C48C05D80004249C6
:102730004018C069F06202997162FDF753FD3F4A8B
:102740003F4BFDF7E7FCFDF75BFD706301CDFDF747
:1027500059FEE043316A0140316231680140316025
:102760006420FDF74FFE37480078052800D004E7C5
:1027700000207062306820433060306A204330624D
:102780007F1C202FD0D1F8E6284F002000907862DF
:102790003868012108433860386A08433862244C9D
:1027A0007425244A019118E0C843396A014039620E
:1027B0003968014039603046FDF724FE0199029ADC
:1027C00000987862386808433860386A084338628D
:1027D0006D1E241D002D00D1CFE601CA02920028F3
:1027E000E2D0800014490858F86200997962FDF738
:1027F000F9FC124A124BFDF78DFCFDF701FD7863E1
:1028000026683046FDF7FEFD0198C043396A014055
:1028100039623968014039606420FDF7F3FD0199A0
:10282000084800780628029ACAD0A6E60020004090
:1028300010000020040100204C2A00089A99999960
:102840009999E93F1404002073756E206461792022
:10285000746F6E652E0A0D00840000204E2C000857
:10286000626173696320746F6E652E0A0D0000004B
:1028700078010020706C6179206861707079207334
:102880006F6E670A0D000000BC2A0008D82B0008F4
:10289000706C6179206C6974746C65206265650A7E
:1028A0000D000000F22A0008F32B0008706C61791B
:1028B000206C6973746C6520737461720A0D00007A
:1028C000542B0008242C0008014908607047C046BA
:1028D0003C040040014908607047C0464004004085
:1028E00008490A68120608D40A68120605D40A685C
:1028F000120602D40A681206F3D5034A02408A81FE
:102900007047C0461C440040FF0100000FB410B5E2
:1029100003A9044B044A029800F02EF810BC08BC2E
:1029200004B0184759200008000000202021020CA4
:1029300001D010211046020A01D0104608390209C0
:1029400001D01046091F820801D01046891E420896
:1029500001D0881E7047081A704702E008C8121F8D
:1029600008C1002AFAD170477047002001E001C178
:10297000121F002AFBD17047FFB581B00546002722
:1029800006E025280AD0049A039990476D1C7F1C05
:1029900028780028F5D1384605B0F0BD00226978C6
:1029A0006D1C10462E2913D1697804226D1C2A292A
:1029B00009D102996D1C01C9029109E00A2358430B
:1029C000303808186D1C29780B46303B092BF5D997
:1029D0002B78002BDFD0632B07D0732B10D0049AF9
:1029E0001846039990477F1C2DE002996C460B789E
:1029F0002370091D0291002161706E46012104E0DF
:102A0000029940C902910021C94352070AD5002406
:102A100000E0641C84420DDA8C42FADB325D002A4D
:102A2000F7D107E0002400E0641C8C42FCDB305D41
:102A30000028F9D13F1904E03078049A761C0399F4
:102A40009047641EF8D26D1CA2E700000000000051
:102A5000FC020000A90200005F0200003D0200002D
:102A6000FE010000C6010000950100007E0100008B
:102A7000540100002F0100001E010000FF000000B3
:102A8000E3000000CA000000BF000000AA00000030
:102A9000980000008F00000080000000720000001D
:102AA00065000000000000000000000001020304B7
:102AB000060708090000000001020304FA00FA00FA
:102AC000F401F401F401F401F401FA00FA00F40154
:102AD000F401F401E803FA00FA00F401F401F4014E
:102AE000F401DC05F401FA00FA00F401F401F40148
:102AF000E803FA00FA00F401FA00FA00F401FA001F
:102B0000FA00FA00FA00FA00FA00F401FA00FA00FA
:102B1000F401FA00FA00F401FA00FA00FA00FA00EF
:102B2000E803FA00FA00FA00FA00FA00FA00F401E9
:102B3000FA00FA00FA00FA00FA00FA00F401FA00CA
:102B4000FA00F401FA00FA00F401FA00FA00FA00BF
:102B5000FA00E803F401F401F401F401F401F401D2
:102B6000E803F401F401F401F401F401F401E803D1
:102B7000F401F401F401F401F401F401E803F401B7
:102B8000F401F401F401F401F401E803F401F401A7
:102B9000F401F401F401F401E803F401F401F40197
:102BA000F401F401F401E80302030405060708092F
:102BB0000A0B0C0D0E0F1010010203040506070886
:102BC000090A0B0C0D0E0F1000000000040000009D
:102BD00008000000020000000505060508070005C2
:102BE000050605090805050C0A080706000B0B0A6F
:102BF0000809080503030402020102030405050590
:102C00000503030402020103050503020202020296
:102C10000304030303030304050503030402020181
:102C20000305050101010505060605040403030269
:102C3000020105050404030302050504040303025D
:102C4000010105050606050404030302020103024F
:102C50000105030201050302010501010001030250
:102C60000105030201050302010501020301000041
:102C7000902C00080000002090010000AC03000828
:102C8000E82C000890010020900600006A29000846
:102C9000413201420413127A1AF40D32FA2904E97E
:102CA0000C6904093E20E9046924096E0469803234
:102CB00008320732069A05083203191FF92029182D
:102CC0005A021C091220E9406930A9343016010269
:102CD000030405060708090A0B0C0D0E0F1011124C
:082CE0001314150000000000B0
:04000005080000C12E
:00000001FF
