:020000040800F2
:1000000030080020D5000008531B0008511B0008D1
:1000100000000000000000000000000000000000E0
:10002000000000000000000000000000571B000856
:100030000000000000000000551B0008591B0008CC
:10004000E7000008E7000008E7000008E7000008F4
:10005000E7000008A90800080109000831090008A4
:10006000E7000008E7000008E7000008E7000008D4
:10007000E7000008E7000008E7000008E7000008C4
:10008000E7000008651B0008851B0008E700000862
:10009000E7000008E7000008E7000008E7000008A4
:1000A000E7000008E7000008E70000084921000811
:1000B000E7000008E7000008E7000008E700000884
:1000C0000348854600F06CFB004800478D26000879
:1000D000300800200448804704480047FEE7FEE758
:1000E000FEE7FEE7FEE7FEE7611B0008C10000082F
:1000F000D2B201E00270401C491EFBD270470022C0
:10010000F6E710B513460A4604461946FFF7F0FF16
:10011000204610BDF0B51FB488B00B990998002493
:1001200048400999C00F490049080991C0070B9937
:100130000090490049080B9109990898A646084380
:100140001CD00B990A98084318D009980124400044
:10015000420D4800410D099824050003000B20437F
:1001600009900B980003000B20430B9050181C497A
:100170004018002201901446104605E00020014678
:100180000DB0F0BD032801DA034600E003239C46CE
:10019000C11A0AAE0AE05F0008ADED5B4F00F75BE5
:1001A0007D430027AA187C41491C5B1E6145F2DD96
:1001B000410004AB5A522104120C0A43240C401C87
:1001C0000828DFDB019802900099704601910090A9
:1001D000059B049A0799069800F0AAF9D0E7000059
:1001E0000DFCFFFFF0B50C465C4085B0E40FE40762
:1001F00003944C00002664085900944649080246BE
:100200000296224321D062460A431ED06200570D57
:100210004A000E032303550D012402462C492405F0
:10022000781B1B0B360B4018234326436146009076
:100230001C46501AB44103D30098401C009002E0C1
:10024000921800985B41002803DA0020014605B0AF
:10025000F0BD0020012109050746864611E06446ED
:100260001D46141BB54106D36546521BB341744667
:1002700007430C43A646CD07400849082843921877
:100280005B4105460D43EAD11046184313D0604642
:10029000194650407140084306D06046101AB341D9
:1002A00006D20122002306E000220123DB0702E040
:1002B0000122D2435310009874460105381C614155
:1002C000029C039D0019694100F025F9BFE7000079
:1002D000FD0300000EB505490291002100910A4678
:1002E0000B46019100F024F903B000BD3304000077
:1002F00070B5CD0F4A0009030123090B1B051943F3
:100300000B4BED070024520D9A4201DA002070BD1C
:10031000074B34339A4203DC9A1A00F0AAF802E041
:100320000449511888402C43F1D0404270BD000070
:10033000FF030000CDFBFFFF4A0009030123090B67
:100340001B051943094B10B5520D9A4201DA0020E2
:1003500010BD064B34339A4203DC9A1A00F089F838
:1003600010BD03495118884010BD0000FF03000074
:10037000CDFBFFFFC20FD207400040080BD0C10DDC
:100380000723DB01C91840020905400A1143C208CE
:10039000400711437047002001467047CB0FDB0731
:1003A000490010B5490802460A4307D00A0D072440
:1003B0000903E401090B121B002A01DC002010BD17
:1003C000C900440F0C43C100E018D205801800F0AA
:1003D00061F810BD70B50446002903D0002020222A
:1003E000012310E0002801D00020C043C046C046D1
:1003F0000DE02546D5408D4205D30D469540641B42
:100400001D46954040191546521E002DF1DC21462F
:1004100070BDF0B51FB40646002082B005464024EA
:10042000019100901BE0019922460F46304600F0F2
:1004300020F8049A059B801A994110D3104619465A
:10044000224600F0C5F9361A8F4101972246012055
:100450000021009F00F0BCF938184D410090204663
:10046000641E0028DFDC019B00982946324607B055
:10047000F0BD10B5202A04DB0846203AD040002108
:1004800010BD0B46D340D0402024A21A914008430F
:10049000194610BD002904DA401C490001D140086A
:1004A0004000704770B40024050C05D110240004EE
:1004B00002D1002921D01124050E01D100020834F7
:1004C000050F01D10001241D850F01D18000A41C5E
:1004D000002801DB4000641C002908D020252E1BC9
:1004E0000D46F540A14000D00121294308430106F3
:1004F0001B1B000ADB1D02D5002070BC7047DB050A
:10050000181880180029F8DA401C4900F5D170BC91
:1005100040084000704710B5002B08DA0024401C4A
:10052000614192185B411A4301D14008400010BD5F
:10053000F0B51FB482B005460C0003D0084602F0A7
:10054000C9FC02E002F0C6FC2030024600902146C1
:10055000284600F03DF9049B059A04460F461843CF
:100560001143084314D0184610431BD00098402173
:100570000A1A18460599FFF77CFF05460E46009AB1
:100580000599049800F024F9084305D0012004E0FF
:100590002046394607B0F0BD0020C11705430E4381
:1005A0002C43374300990E986305401A7905E40AF5
:1005B00000220C43FD0A0A3002D500200146E9E77B
:1005C0000105101969410C9C0D9D00196941FFF747
:1005D000A2FFDFE7F0B507460846584087B0C00FD6
:1005E000049048000E46590040084908BC1A88414A
:1005F00005D2384631461E4617460B46024658007D
:10060000400810434CD0300D039040055900400D78
:10061000490D0590401A0290402872DA1803012112
:10062000000B09050843019004980092002805D0AA
:100630000199524200208841009201900298402185
:100640000A1A0199009800F0C3F805460C466B465B
:1006500007CB00F0CDF8C0197141039A0E0D0023AD
:10066000D71756401A467A40164344D0049A002AB7
:100670002DD0029A012A039A15DC1205C01A914165
:1006800001263605001C7141D20F059ED20700934A
:10069000019202962A462346FFF74AFF07B0F0BDB3
:1006A00038463146FAE71605224A0F46B218C01AF4
:1006B000B74101210905001C4F4100187F41114637
:1006C00018187941E20F10436D19644113E0E207F5
:1006D0006D0815436408C2071443039A01261205E6
:1006E000C01A91413605001C7141CE0740083043C5
:1006F0004908C01851412A462346FFF70CFFCDE7B1
:10070000FFE7049801224000C117121A00238B4111
:1007100004983146C417381AA141EEE730B40124D9
:10072000E407634030BC55E730B40124E40761407E
:1007300030BC4FE70000E0FF4A0009030123090B2A
:100740001B0519430A4B10B5520D9A4202DA0020DC
:10075000014610BD064B34339A4203DC9A1AFFF768
:1007600088FE10BD034BD21800F032F810BD000017
:10077000FF030000CDFBFFFF10B5002904DB0124BF
:10078000E40740428C412146002B04DB1C46012338
:10079000DB075242A341994200D1904210BD0000B4
:1007A0001CB5094800900948019005460126009CA7
:1007B00005E0E36807CC33430C3C98471034AC4267
:1007C000F7D3FFF781FC0000843A0008A43A000840
:1007D00010B5202A04DB0146203A9140002010BDCC
:1007E000914020239C1A0346E3401943904010BDDA
:1007F00010B5202A06DBCB170846203A1041C11756
:100800000B4306E00B461341D0402024A21A91402E
:100810000843194610BD70B58C180578401C6B074D
:100820005B0F01D10378401C2A1106D10278401CCD
:1008300003E006780E70401C491C5B1EF9D12B07A3
:1008400005D40023521E0DD40B70491CFAE703781F
:10085000401CCB1A921C03E01D780D70491C5B1CD8
:10086000521EF9D5A142D8D3002070BD0D490A68A7
:100870000B689B1A834213D200BF0B689B1A8342FA
:100880000ED200BF0B689B1A834209D200BF0B68CF
:100890009B1A834204D200BF0B689B1A8342EBD39E
:1008A0007047C046A801002010B50D4C2068C10754
:1008B0000BD1800708D50FA002F0E8FA0C480221FE
:1008C000017020680843206010BD06A002F0DEFA27
:1008D00020680121084320600548017010BDC04612
:1008E0001404014050612E3020696E74200A0D00FE
:1008F0002404002050412E3120696E740A0D00003E
:1009000010B5074C2068000709D506A002F0BEFA12
:10091000134803210170206808210143216010BDA4
:100920001404014050422E3320696E74200A0D00D9
:1009300010B5074C2068800609D506A002F0A6FA7B
:10094000074800210170206820210143216010BD6B
:100950001404014050432E3520696E74200A0D00A6
:1009600024040020B0B5044600F0E2F80546601CFF
:1009700002D08C480078041900F0DAF8401BA0423D
:10098000FAD3B0BDF0B58BB006900C68002C00D146
:10099000BDE06048069A824201D0052000E00420B4
:1009A0001723DB06069AD2180A23DA410192042A99
:1009B00000D301900698203000900026354633463B
:1009C000099122460BE03C43089E14605B1C0A68B8
:1009D0001046D840361DAD1C002800D197E00120FC
:1009E00007469F403A40F1D0049008960320044601
:1009F000AC400295E54349680E460640741E012C42
:100A000005920795039110D8069A90682840099C92
:100A1000E468029DAC4004439460C806C00F98404F
:100A20005468BC430443546006E0032E029D03D186
:100A30000646059F039C1FE0069AD0680799084068
:100A400009998C68AC400443D460022E059F039C36
:100A500012D11C20089908400F218140DC08A40015
:100A6000009A16598E43099F3969814031431151CB
:100A70007C68059F03262640AE4006990868079AC1
:100A8000104030430860A003800F0999089E049A23
:100A90009CD04F49086810430860086810400A90CD
:100AA0000C2030400F21814003241E46A6430A9C9F
:100AB0001A4AB4588C43019981402143B150099995
:100AC000154A96684868C4020FD53E439660D668BA
:100AD00084020FD4BE43D660566884030FD4BE434D
:100AE00056601468C00310D56DE7BE439660D668A3
:100AF0008402EFD53E43D66056688403EFD53E436B
:100B000056601468C00300D55DE7BC435CE70BB0DA
:100B1000F0BDC0460010004800040140080001403C
:100B2000002A02D018228150704728228150704735
:100B3000054800687047C0461A48007802490A68AC
:100B4000101808607047C0462804002010B5DD4822
:100B5000016810220A4302600024204600F004F8D5
:100B600000F022F8204610BD70B504467D20C0007C
:100B70000C4E3178FFF72EFC0146DA480068FFF78B
:100B800029FC00F02DFC0125032C08D8002806D1F3
:100B90000025E84321462A4600F028F874602846DC
:100BA00070BDC0460400002082B0094801680122DF
:100BB00011430160016811400191019911074268D8
:100BC0000A434260406808400090009802B07047B5
:100BD00018100240002805D41F210840012181403F
:100BE000014801607047C04600E100E0002805D4DC
:100BF0000322034693430A4A9A1803E00C22024058
:100C0000064BD2188007C00E8901C9B28140FF236C
:100C100083401068984308431060704714ED00E06B
:100C200000E400E0F0B587B004468078C0074C4F80
:100C30004FD00120059001073A1F1068084004902A
:100C400006D11068084310601068084006900698A6
:100C500002920391434F3868C00512D405980602EA
:100C6000386830433860FFF763FF05463868304224
:100C700007D1FFF75DFF401B6428F7D9032007B0B9
:100C8000F0BD032001900002354F3968014012D0B9
:100C90006268024091420ED00598000439683A68B3
:100CA00002433A603A6882433A6008462E4A10404E
:100CB0003860C80745D138682B490840616801434E
:100CC00039600498002804D1029A10680399884377
:100CD00010602168C8070AD1880710D4880617D485
:100CE00088031DD40020490523D407B0F0BD38691E
:100CF00003229043A26802433A618807EED503209D
:100D000000043A698243E068104338618806E7D5F9
:100D1000386910229043226902433A618803E1D581
:100D2000386980229043A26902433A610020490554
:100D3000DBD539694022914362690A433A6107B0C1
:100D4000F0BDFFF7F5FE05465F4E38688007B2D468
:100D5000FFF7EEFE401BB042F7D9019807B0F0BD97
:100D60002010024000700040FFFCFFFFF0B581B092
:100D7000002842D00D460446524B18680121084015
:100D8000A84208D21A68012082432A431A601A68CE
:100D90000240AA4251D120688207674E0CD5420713
:100DA00004D5072212023368134333603268F023FC
:100DB0009A43A36813433360C00721D1414A1168A5
:100DC00001200140A94205D91168814311601168D1
:100DD000C90732D121784907574F06D507210902A3
:100DE0003A688A43E168114339603B681907890F03
:100DF000524A022912D2144655E0012001B0F0BD3A
:100E00006268032A14D0022A4B4B0BD0181F012A08
:100E100015D10068800308460FD514E003292CD1B2
:100E2000474C40E0181F00688001084605D50AE0DD
:100E3000414B186B8003084605D401B0F0BD006833
:100E400080070846F9D518680321009188431043AC
:100E50001860FFF76DFE06461B4F374800680C21EF
:100E60000140606880008142A8D0FFF761FE801BCE
:100E7000B842F2D9009801B0F0BD0321CD03990228
:100E80002B40090F2F4C645CB96A0F260E402E4987
:100E9000895DAB4203D000048342104600E028483D
:100EA000FFF798FA444338680006000F0749085CCA
:100EB000C4400C48046000242046FFF755FE20463D
:100EC00001B0F0BD00200240881300003038000857
:100ED00004480068184909684905490F024A515CED
:100EE000C84070470C00002040380008B0B51249D7
:100EF0000A681007830F1148022B02D3032B01D17C
:100F00000F48B0BD0323DB0394021A40240F0D4D9C
:100F10002C5D896A0F250D400B49495D9A4203D02B
:100F200001231B049A4200E00548FFF753FA0146EB
:100F300020464843B0BDC0460410024000127A006B
:100F4000006CDC023439000844390008F0B587B081
:100F500004460120002C00D13CE204902078C00718
:100F6000F64E05940CD071680C200140042900D085
:100F70008FE03068800303D56068002800D131E13C
:100F80002078800721D570680007800F0ED0706828
:100F90000C210140082900D098E00320C0037168AB
:100FA00001400120C003814200D08FE030688007FB
:100FB000059C03D5E068012800D013E13068F821D2
:100FC00088432169C90001433160059C20780007EE
:100FD00024D42078400736D42078C00600D4CEE050
:100FE000706B059949694A1D00D1BDE0012900D007
:100FF0003EE1042108437063706B0121014371637A
:10100000FFF796FD0546706B800700D5AFE0FFF750
:101010008FFD411B03200229F5D9DBE1706AE169EC
:1010200000297ED0012108437062FFF781FD05464B
:10103000706A8007CDD4FFF77BFD401B0228F7D9EB
:10104000032007B0F0BD012003900107F0690840BC
:10105000029006D1F0690843F061F06908400690FB
:1010600006980191DC4F3868C00546D40398040205
:10107000386820433860FFF75BFD0546386820423A
:101080003BD1FFF755FD401B6428F7D9032007B07B
:10109000F0BD71680140082908D10320C0037168C0
:1010A000014001200004814200D162E7626830689B
:1010B00001214F04002A00D129E1052A00D11FE1B6
:1010C000012A00D03CE1090408433FE13068059C57
:1010D000E168002937D0012108433060FFF728FD7F
:1010E00005463068800700D568E7FFF721FD401B03
:1010F0000228F6D9032007B0F0BD05988168306A50
:10110000B64F002900D1DDE0052900D1C5E0012955
:1011100000D1C6E0039988433062306A04218843D5
:10112000C1E0012188437062FFF702FD0546706A45
:10113000800700D44DE7FFF7FBFC401B0228F6D9DF
:10114000032007B0F0BD012188433060FFF7F0FCB9
:1011500005463068800700D437E7FFF7E9FC411BFC
:1011600003200229F5D935E1042188437063706BAF
:10117000F821884305998969C9000143716305987D
:10118000007880060BD571680C2001400C294DD1E8
:10119000706B800303D50598006A012822D1059859
:1011A000446A002C1BD070680C21014008291CD116
:1011B000012C17D00320C20370680240F16A059C1D
:1011C000A36A9A420ED10F221140236B994209D192
:1011D00091040840E16A8842049800D0FAE00020B7
:1011E00007B0F0BD049807B0F0BD012002063168D9
:1011F0000492914331604706FFF79AFC0546022CA2
:101200000AD13068384200D1C3E0FFF791FC411B9E
:1012100003200229F5D9DDE030683842DFD0FFF73E
:1012200087FC411B03200229F6D9D3E071680140F5
:10123000082905D10320C003716801408142A7D06D
:10124000706B0599096A002900D18FE001210A0419
:10125000104370634C04FFF76BFC0546706B204233
:101260009DD1FFF765FC411B03200229F6D9B1E0AF
:10127000042108437063706B012188437063FFF79A
:1012800057FC0546706B800700D478E7FFF750FCE9
:10129000411B03200229F5D99CE004210843306258
:1012A000306A039908433062FFF742FC0546306A12
:1012B00080071BD4FFF73CFC401BB842F7D9032042
:1012C00007B0F0BD039988433062306A0421884337
:1012D0003062FFF72DFC0546306A800706D5FFF720
:1012E00027FC411B0320B942F6D973E0029800287D
:1012F000059C00D070E6F06901998843F0616BE6C7
:101300008A04104330600904306808431EE00A0470
:10131000904330608804316881433160FFF708FCF6
:101320000546059C3068384200D129E6FFF700FCED
:10133000411B03206429F5D94CE0C046001002404F
:101340000A04904330608904306888433060FFF7B6
:10135000EFFB05463068384200D011E6FFF7E8FBA6
:10136000401B6428F6D9032007B0F0BD01210A0410
:10137000904370634C04FFF7DBFB0546706B204223
:1013800000D10CE7FFF7D4FB411B03200229F5D95C
:1013900020E0F06A0F218843059A116B0143F16246
:1013A0007B20C00371688143D06A0843916A01437E
:1013B00071603068049908433060FFF7B9FB044658
:1013C0003068384200D00AE7FFF7B2FB011B032068
:1013D0000229F5D907B0F0BD007000408813000065
:1013E000401E010E01D0012070470749074A506096
:1013F000074803680B400321890759180160002042
:101400009060072111607047FFFFFF0010E000E0CF
:1014100020ED00E010B53C22825C012A01D10220BF
:1014200010BD02463C3202235370006843687024AA
:10143000A3430C681C4383684460484CA04207DC0B
:101440000124A407A04209D0434CA04206D00AE0E0
:10145000464CA04202D03F4CA04204D18024A3437A
:10146000496819438160002010700121517010BD3E
:1014700070B5002829D005463C356978002905D18A
:1014800000212970044600F073F82046022169709B
:101490000268166801218C07A24205D02D4B9A42A2
:1014A00002D02D4B9A4219D170239E438368334357
:1014B0002A4EB24216DD2A4CA24208DC254CA2423A
:1014C00018D02A4CA24215D042E0012070BD254C14
:1014D000A2420FD0244CA2420CD039E033461F4E1A
:1014E000B242E8DCA24205D01B4CA24202D0534CCF
:1014F000A2422DD103242402A34304691C43802368
:101500009C43836923431360C368D3624368936237
:10151000EE4BD3180A24E341072B06D80C469C4017
:10152000E1231C4201D04069106351611069C0077A
:1015300002D0106988431061A972A970E9702971FD
:101540006971A971E971297269726970002070BDB1
:101550001C46D4E7002C014000040040FF2B014052
:10156000FF43014000480140004401400040014069
:1015700010B584B000683149884225D018498842A6
:101580000ED01849884229D117480168102211430A
:1015900001600068104003900398112401210AE0C3
:1015A0001148016820221143016000681040029038
:1015B00002981224022100222046FFF717FB204642
:1015C000FFF708FB04B010BD0120000206490A68BD
:1015D00002430A60096801400191019804B010BDFE
:1015E00000140040001000401C10024080B586B07E
:1015F0000021059104910391029101910068F54A3F
:10160000904201D006B080BD012040040C4A13680E
:101610000343136012680240009204200590049175
:10162000039102200290102001900920C006009929
:1016300001A9FFF7A7F906B080BDC0460020004011
:1016400014100240F0B583B03C23C35C012B02D1DF
:10165000022003B0F0BD07463C370223DA41032ADB
:1016600000D9B0E00297C0467A44127952009744FC
:101670000197485D0268156A146A01208443146268
:10168000D54C14190A26F4419D438E682E435368A5
:1016900000930B6801939569072C00D910E103466C
:1016A000A340E1273B4200D103E10C239E43CB68DA
:1016B0000427BB433343029F072C00D904E1A04019
:1016C000E124204200D1FFE003200002009E864377
:1016D0004C698869344304431046183054607324BD
:1016E000A543019C254395614C685463136293693B
:1016F00008241C43946193690424A34393610969FA
:10170000C9E00268106A01273B02146A9C43146214
:101710007B0298438B681B02034350680C6801945A
:10172000D569A54EB24253D01E465AE00268156AEA
:1017300001263003136A83431362A74813180A2053
:10174000C34150688C680F680197D769072B00D98F
:10175000B4E0009434469C40E1231C4200D1A6E052
:10176000B30398434B699B010343009C10461C3014
:10177000536073231B029F43019B1B023B43D361B6
:101780004B68136473039D4323032B431362F302DB
:10179000D4691C43D461B302D4699C43D46177E01B
:1017A0000268106A136A1024A3431362202398432B
:1017B0008B681B01034350680D6894697E4EB242EA
:1017C00037D01E463CE001200021397003B0F0BD47
:1017D0000326B602B3433E4CFF3CCE683602264099
:1017E0001E437D4BD3180A24E341072B5BD89F404F
:1017F000E1231F4257D003231B0398434B698C6995
:101800001C4323010343029F10461C305360732383
:101810009D43019B1D43D5614B68D3631662D36919
:1018200008241C43D461D3690424A343D361096908
:1018300031E0C026B343CE6836014027BE431E4385
:10184000654BD3180A27FB41072B2ED801279F4051
:10185000E1231F4229D003239B0298434B698F69E0
:101860001F43BB00034310461830536073231B0211
:101870009C432B02234393614B68936316620123BD
:10188000DC029569254395619B0294699C439461B0
:1018900009690902029F02680A43026000200021D0
:1018A000397003B0F0BD0346ADE70346DBE70346FE
:1018B0005BE73346029F072C06D800E7034655E74F
:1018C0003346072C00D8FAE6009C05E700D4FEBF9B
:1018D000FFFBFFFF70B5002829D005463C3569782D
:1018E000002905D100212970044600F077F8204630
:1018F000022169700268166801218C07A24205D096
:101900002D4B9A4202D02D4B9A4219D170239E43FF
:10191000836833432A4EB24216DD2A4CA24208DCC9
:10192000254CA24218D02A4CA24215D042E00120F8
:1019300070BD254CA2420FD0244CA2420CD039E0FD
:1019400033461F4EB242E8DCA24205D01B4CA242F5
:1019500002D0204CA2422DD103242402A3430469C7
:101960001C4380239C43836923431360C368D36271
:1019700043689362184BD3180A24E341072B06D817
:101980000C469C40E1231C4201D040691063516128
:101990001069C00702D0106988431061A972A9704C
:1019A000E97029716971A971E971297269726970A7
:1019B000002070BD1C46D4E7002C0140000400400C
:1019C000FF2B0140FF43014000480140004401401B
:1019D000004001400020004000D4FEBF7047B0B579
:1019E00000281DD00446C06F002805D178200021B2
:1019F0002154204600F02AF82420E067206801687E
:101A00000125A9430160606A002802D0204600F049
:101A100043F9204600F012FA002803D02846B0BD52
:101A20000120B0BD0920C00221684A6882434A6093
:101A300088682A22904388600868012202430A606D
:101A4000204600F093F905462846B0BD70B586B033
:101A50000024059404940394029401940068374987
:101A600088424BD0364988422CD03649884262D1D0
:101A7000354841680122059293031943416041684A
:101A8000194000910099510402680A4302600068FD
:101A90000840009003940225029503200490400220
:101AA000019000980920C00601A9FEF76BFF1B26D4
:101AB000304629462246FFF799F83046FFF78AF864
:101AC00006B070BD012080041F498A6802438A6005
:101AD0008A6802400092009A0A6802430A60096814
:101AE00001400091042005900394022002900320FD
:101AF0000490800201900098144819E0124881680F
:101B000001220592520411438160816811400091C5
:101B1000009901681143016000681040009004942E
:101B20000394022002900C20019000980920C00626
:101B300001A9FEF727FF06B070BDC0460044004073
:101B400000480040003801401410024000040048E2
:101B5000FEE7FEE77047704780B5FEF7EDFF80BDFA
:101B6000704700003C484168491C41608168491C3D
:101B70008160034801680122914301607047C046BB
:101B800010100040B0B588B0334D2878401C287044
:101B9000324801460C3107910690287864284DD1CF
:101BA00000F076FB002844D03148019006A8009050
:101BB00003AC30A107AA324B204601F077F931A0DF
:101BC000214601F063F92178002935D003AA304875
:101BD00002E01A4600292FD003681B0603D41346DF
:101BE000002906D128E0C9B28181531C517800290F
:101BF00022D00268120601D41A4603E0C9B28181DC
:101C00005A1C5978002917D003681B0601D41346C3
:101C100003E0C9B28181531C517800290CD00268BD
:101C20001206D6D5C9B281815A1C59780029D3D160
:101C300002E00BA001F02AF900202870E868401C9F
:101C4000E8602869401C286112480168012291431C
:101C5000016008B0B0BDC046A0010020483A0000B5
:101C60004448543232206661696C2E0A0D0000002F
:101C7000980100202573257325732573000000004B
:101C80009001002044485432323D25730A0D000073
:101C90001C48004010140040B0B5416A0A070CD43B
:101CA000CA0714D18A071CD44A0724D4CA062CD4E4
:101CB0008A0634D44A063CD44CE00122D20303689D
:101CC0005C689443426B22435A60CA07EAD00122FF
:101CD000520403685C689443826A22435A608A070C
:101CE000E2D50122120403685C689443C26A22436D
:101CF0005A604A07DAD50122920403685C6894436B
:101D0000026B22435A60CA06D2D50122120303682D
:101D10009C689443826B22439A608A06CAD501224A
:101D2000520303689C689443C26B22439A604A063C
:101D300010D501221305026854689C43056C2C439E
:101D400054609D4206D103235B0554689C43436C59
:101D500023435360090607D50121C904026853686B
:101D60008B43806C18435060B0BD0000F0B583B069
:101D70000446064678360025F560FEF7D9FE034690
:101D800020680168090721D502952B48009001259C
:101D90006905002220461F4600F0F8F8002812D0FE
:101DA000EFF3108085F3108821680A6880239A4336
:101DB0000A6080F31088032020227C21029D62505B
:101DC000357003B0F0BD20683B46029D00684007B7
:101DD00026D5194800900127B9050022204600F0B9
:101DE000D5F800281CD0EFF3108087F31088092164
:101DF0004901226813688B43136080F31088EFF366
:101E0000108087F3108821688A68BA438A6080F35B
:101E100010880320202280216250357003B0F0BD6D
:101E20002020E067B060256664212A46284662507B
:101E3000357003B0F0BDC046FFFFFF01B0B50446EA
:101E400000680168474A0A40A16823690B43656935
:101E50001D431543E1690D430560032212034368E6
:101E60009343E2681A434260A269236A13430B2238
:101E70001202856895431D43856000223A4B9842C3
:101E800006DC3C4B984212D03B4B984216D00CE0FB
:101E9000364B984212D0364A904206D137480068F5
:101EA0008007000F364A125808E0102206E0334837
:101EB0000068800B0C220240314882580125EB0358
:101EC0003048994210D1082A47D8C0467A4412793E
:101ED0005200974404422442194242422300FEF732
:101EE000F7FF00281BD137E0082A36D87A44127948
:101EF00052009744043225320E3232322400FEF76B
:101F0000E7FF00281CD127E0FEF7F0FF002806D1EC
:101F100022E0FEF7EBFF002812D11DE0184640003A
:101F200061684A081018FEF755FA0246103A164939
:101F30008A4212D201400007400F08430AE01846C7
:101F400061684A081018FEF745FA014610390E4A32
:101F5000914202D22168C86000250020A066E06698
:101F60002846B0BDF369FFEFFF4B0040004C004036
:101F7000003801400044004000480040301002405A
:101F80005439000800127A00F0FF0000F0B585B067
:101F90001F4615460E460368D9693140891B4A42DF
:101FA0004A410021AA4222D10A9C002C22D003914E
:101FB000611C24D1D9693140891B4A424A41AA4255
:101FC00031D1D9693140891B4A424A41AA422AD1BA
:101FD000D9693140891B4A424A41AA4223D1D96971
:101FE0003140891B4A424A41AA42E3D01BE00846DD
:101FF00005B0F0BDFEF79CFD032005B0F0BD402EFE
:10200000049001D0802E14D1FEF792FDC01BA04297
:102010000CD8049800680168C0693040801B4142B8
:102020004141A942F0D0039805B0F0BD032005B0AE
:10203000F0BD7830019001200090C002029006E0CF
:10204000C8693040801B41424141A942EBD1FEF7B3
:102050006FFDC11B0320A1423ED8049909680A689C
:102060005207EDD5CA69120738D4CA69029B1A42D1
:10207000E6D0029A0A62EFF31082012181F3108800
:1020800009235B01049C246825689D43256082F335
:102090001088EFF3108281F31088049B1B689C6802
:1020A0008C439C60049B82F310881A6E012A0BD12A
:1020B000EFF3108281F3108819680B681024A34392
:1020C0000B60049B82F310882021019CA1600022F8
:1020D0001A669A662270E16005B0F0BD08250D62AF
:1020E000EFF31081009880F3108809225201049BBD
:1020F0001B681C6894431C6081F31088EFF3108107
:1021000080F31088049A1268936883439360049B59
:1021100081F31088196E01290CD1EFF3108101228F
:1021200082F310881A6813681024A3431360049B79
:1021300081F310882021019A916000211966996627
:102140001170D56005B0F0BD10B54348016889062F
:1021500000D479E00089C4B240A0214600F096FE88
:10216000303C492C00D96FE07C4424796400A744BA
:10217000243C4C48324050546B6B6B6B6B6B6B6BFD
:102180006B6B6B6B6B6B6B6B6B6B6B6B6B6B6B6B9F
:102190006B6B6B6B6B6B6B6B6B6B6B6B6B6B6B6B8F
:1021A0006B6B6B605C6B6B6B2C4436286B585A6B9B
:1021B0006B6B6B6B6B6B6B6B6C662E4800210170ED
:1021C00010BD2B48016808223CE029480168042220
:1021D0000A43026010BD27480421017010BD244845
:1021E000016808220A43026010BD224801210170E3
:1021F00010BD20480521017010BD1D480168042252
:1022000020E01C480321017010BD1A480221017012
:1022100010BD18480621017010BD16480721017035
:1022200010BD124812E011480AE01148016802226C
:1022300008E00F48016802220A43026010BD0C4802
:10224000016801229143016010BD09480168012223
:102250000A43026010BDC0461C380140627420630E
:102260006D64203D202563200A0D00001404004801
:10227000140800482404002080B5044A914202D08A
:102280000020C04380BD00F0EBFD80BD00000020B9
:10229000F0B5B1B001242603E64D6868B04368602C
:1022A0000520FEF75FFB686830436860E249086814
:1022B0002B46103B1A68E14F3A4001931A607D2289
:1022C00092000023059300940AE00394029B9B0074
:1022D00006ACE750059B9B1C05932A2B039C7AD0E8
:1022E0002F6837421AD10F683B1A0027934216D83D
:1022F0002B68334212D10B681B1A93420FD82B68FC
:1023000033420BD10B681B1A934208D82B68334217
:1023100004D10B681B1A9342E2D900E0274600243F
:102320002B6833420CD00B681B1A93420AD82B68D7
:1023300033420BD00B681B1AA41C9342F0D902E065
:10234000039705E0641C0023039301E00397641CDA
:10235000059B9B00049306AB049FDC510123059F62
:1023600004931F430297039F2B6833421AD10B68D3
:102370001B1A0024934216D82B68334212D10B68E3
:102380001B1A93420FD82B6833420BD10B681B1AD0
:10239000934208D82B68334204D10B681B1A93422E
:1023A000E2D900E03C4600272B6833428DD00B6811
:1023B0001B1A934208D82B68334209D00B681B1AAA
:1023C000BF1C9342F0D900E07F1C002303937DE7FC
:1023D00003947F1C7AE70968091A994800F056FDB2
:1023E000019A106895490840106004980006116829
:1023F00001431160686830436860E00700D115E16F
:10240000032000263246354603960AE06038411E16
:10241000884125438540203205980830A02A00D104
:10242000A9E0059006A88018C168C829049C11D8A5
:10243000039C8068C828049F10D90598431E222B4E
:1024400011D3222B13D33E437600222811D32643E7
:10245000760014E08068C828049FEED8039F059892
:10246000431E222BEDD23D436D00222BEBD22228BE
:10247000EDD210467838411E88412543854006A894
:102480008018416901270024C82939460ED8214601
:102490000069C8280DD9202B0ED3202B10D33E4322
:1024A00076001F2B0ED30E43760011E00069C8287A
:1024B000F1D82746202BF0D23D436D00202BEED2E1
:1024C0001F2BF0D210467038441EA0410D438540AA
:1024D00006A88018C46901270021C82C3C460ED8E4
:1024E0000C468069C8280DD91E2B0ED31E2B10D385
:1024F0003E4376001D2B0ED32643760011E0806903
:10250000C828F1D80F461E2BF0D23D436D001E2B7C
:10251000EED21D2BF0D210466838411E884125436B
:10252000854006A88018446A01270021C82C3C4633
:102530000DD80C46006AC8280CD91C2B0DD31C2BB7
:102540000FD33E43760010461B2B0ED25EE7006A87
:10255000C828F2D80F461C2BF1D23D436D001C2B2E
:10256000EFD210461B2B00D250E78038411E884125
:10257000264386404FE73348294600F087FC32481F
:10258000314600F083FC280A28182F0CC019290EA8
:102590004018C4B22D48214600F078FCB44245D121
:1025A000A8B2FDF797FE0024294B2246FDF71AFE3C
:1025B00005460E46FDF7F2FEFDF7DCFE0246254815
:1025C0000B4600F063FC3846FDF784FE2246204BA4
:1025D000FDF708FE04460F46FDF7E0FEFDF7CAFED4
:1025E00002461D480B4600F051FC28463146FDF7D7
:1025F0007FFE0246194D1A4E2846314600F056FC21
:1026000020463946FDF774FE02462C460834204623
:10261000314600F04BFC13A0294600F037FC16A011
:10262000214600F033FC009831B0F0BD002031B0FD
:10263000F0BDC04610000048A8010020FFFFFFFCCD
:10264000053A0008173A0008453A00082A3A0008F7
:1026500000002440DA390008F13900089001002018
:10266000583A000874656D7020737472696E672043
:102670003D2025730A0D000068756D207374726922
:102680006E67203D2025730A0D000000A2B0FEF702
:102690005DFA14AD281D30273946FDF730FD0024C2
:1026A0001D9401201C90202614960F940E940D94D6
:1026B0000C940B940A942846FEF748FC002803D09B
:1026C000EFF3108072B6FEE7089713941294032775
:1026D00011970720109010A801252946FEF746FB08
:1026E000002803D0EFF3108072B6FEE70C940B9431
:1026F000099709A8FEF796FA002803D0EFF3108097
:1027000072B6FEE718941794169415941494E9047D
:10271000BE4802680A43026002680A4009920999A9
:10272000A90502680A43026002680A4009920999F1
:10273000690402680A43026002680A400992099922
:10274000A90402680A4302600068084009900998D9
:10275000AF480F2104912246FEF7E2F90920C00696
:10276000079031462246FEF7DBF9AA482946224661
:10277000FEF7D6F9F902059107982A46FEF7D0F937
:102780001694212000041590680301901490069679
:1027900014AE9F483146FEF7F5F817941694159538
:1027A000049814909A483146FEF7ECF816941120DC
:1027B00000040390159014970497079F38463146FC
:1027C000FEF7E0F81794169415950698149038467D
:1027D0003146FEF7D7F81694039F15970698149084
:1027E0008B483146FEF7CEF817941694159514953C
:1027F00088483146FEF7C6F8179416950295159548
:102800000598149007983146FEF7BCF81694159772
:10281000082014907F483146FEF7B4F80525284675
:10282000049E31462246FEF7E1F92846FEF7D2F92A
:102830000625284631462246FEF7D8F92846FEF7F7
:10284000C9F90725284631462246FEF7CFF9284622
:10285000FEF7C0F9704880278761704E2F21704DB8
:102860000560021D52C215941494FEF701FE002863
:1028700003D0EFF3108072B6FEE7674814A9FEF7A5
:10288000C9FD002803D0EFF3108072B6FEE7286878
:10289000029908432860E8680843E8606148876156
:1028A0006149624D0560021D52C215941494FEF7F1
:1028B000DFFD002803D0EFF3108072B6FEE7594821
:1028C00014A9FEF7A7FD002803D0EFF3108072B61D
:1028D000FEE72868029908432860E8680843E86032
:1028E00053480C2553494B22520216C004604460E1
:1028F0008560C4600461446184610C38FFF76FF83F
:10290000002803D0EFF3108072B6FEE74A488761D3
:1029100063214A4AFF23E0331CC0016044601A94DB
:102920001994189417940C38FEF7A2FD002803D0D0
:10293000EFF3108072B6FEE73F48FEF7CBFF0028AA
:1029400003D0EFF3108072B6FEE718941694159436
:1029500060201490384814A92246FEF773FE002820
:1029600003D0EFF3108072B6FEE73348FEF73EFE69
:10297000334802990903079181630199C163046295
:1029800008994162E1214F022E4EC0C004604460AC
:102990008460C560046144610838FFF720F80028AE
:1029A00003D0EFF3108072B6FEE730680699084353
:1029B00030602548079981630199C16304620899D1
:1029C0004162224982C0046044608460C560046141
:1029D0004461316A40220A4332620838FEF7FFFF41
:1029E000002803D0EFF3108072B6FEE718A000F0C5
:1029F0004DFAFA4D2C7002E0C0B200F033F828789E
:102A0000411EC9B20629F7D32046F5E7141002404B
:102A10000008004800040048FC010020E703000013
:102A20000010004044020020BF12000000140040CB
:102A30001403002000440040B401002000200040A6
:102A40008C020020003801409C0300200048004018
:102A500074696D657220636F6E74726F6C2E0A0DEF
:102A600000000000F0B583B0062852D84000C046F0
:102A700078448088400087440600D4004E008600D9
:102A80001100140153010120C043CE490A6A0240DB
:102A90000A620A6802400A6003B0F0BDD6A000F0E6
:102AA000F5F9C84E00257562306801242043306076
:102AB000306A204330622F46D348C05D8000C4494D
:102AC0000858F0627562FDF705FCC24AC24BFDF77B
:102AD00021FBFDF731FC70637D208000FDF7C6FE11
:102AE000E043316A01403162316801403160642065
:102AF000FDF7BCFEB948007804280AD100207062B6
:102B0000306820433060306A204330627F1C152FCC
:102B1000D2D103B0F0BDC4A000F0B8F90026C74F71
:102B2000A84C0296C648805D8000A9494018C0693B
:102B3000E06202996162FDF7CDFBA64AA64BFDF764
:102B4000E9FAFDF7F9FB60633888FDF78FFE012590
:102B5000E843216A0140216221680140216064202C
:102B6000FDF784FE9D4800780228D2D100206062E3
:102B7000206828432060206A28432062BF1C761CFE
:102B8000312ECFD1C5E7A1A000F080F98D4F0024F0
:102B90007C623868012528433860386A28433862E7
:102BA0009F4E14E0E9433A6A0A403A623A680A40A2
:102BB0003A60FDF75BFE0020786238682843386091
:102BC000386A28433862B61C641C1B2CA1D030889C
:102BD000142CE7D0062CE5D09249095D89007C4A87
:102BE0005158F96200227A6202900846FDF772FBA2
:102BF000784A794BFDF78EFAFDF79EFB78630298D1
:102C0000FDF734FEE843396A014039623968014012
:102C100039606420FDF72AFE704800780328CAD086
:102C200077E788A000F032F9664E002777623068B7
:102C3000012420433060306A20433062864D029781
:102C40008648C05D800062494018C069F062029900
:102C50007162FDF73FFB5F4A5F4BFDF75BFAFDF7E3
:102C60006BFB70632888FDF701FEE043316A014089
:102C700031623168014031606420FDF7F7FD57484B
:102C80000078012800D044E70020706230682043BB
:102C90003060306A20433062AD1C7F1C2A2FCFD1B8
:102CA00037E74FA000F0F2F8464E00277762306811
:102CB000012420433060306A204330624C4D02973B
:102CC0004C48C05D800042494018C069F0620299DA
:102CD0007162FDF7FFFA3F4A3F4BFDF71BFAFDF724
:102CE0002BFB706301CDFDF7C1FDE043316A01406C
:102CF00031623168014031606420FDF7B7FD37482B
:102D00000078052800D004E7002070623068204376
:102D10003060306A204330627F1C202FD0D1F8E62B
:102D2000284F0020009078623868012108433860FD
:102D3000386A08433862244C7425244A019118E00B
:102D4000C843396A01403962396801403960304608
:102D5000FDF78CFD0199029A009878623868084363
:102D60003860386A084338626D1E241D002D00D17A
:102D7000CFE601CA02920028E2D080001449085828
:102D8000F86200997962FDF7A5FA124A124BFDF735
:102D9000C1F9FDF7D1FA786326683046FDF766FD84
:102DA0000198C043396A014039623968014039608D
:102DB0006420FDF75BFD0199084800780628029A17
:102DC000CAD0A6E600200040100000200401002028
:102DD000D83700089A9999999999E93F24040020D5
:102DE00073756E2064617920746F6E652E0A0D0014
:102DF00084000020613A0008626173696320746F87
:102E00006E652E0A0D00000078010020706C61795B
:102E100020686170707920736F6E670A0D00000082
:102E20004838000864390008706C6179206C697456
:102E3000746C65206265650A0D0000007E3800082C
:102E40007F390008706C6179206C6973746C65203F
:102E5000737461720A0D0000E0380008B039000890
:102E600008490A68120608D40A68120605D40A68D6
:102E7000120602D40A681206F3D5034A02408A8178
:102E80007047C0461C440040FF0100000FB410B55D
:102E900003A9044B044A029800F0FCF810BC08BCDB
:102EA00004B0184779220008000000200FB410B5C4
:102EB00004A9074B02AA039800F0ECF8044602A903
:102EC000002000F083FC204610BC08BC04B018476A
:102ED000CD3700082021020C01D010211046020A33
:102EE00001D010460839020901D01046091F820896
:102EF00001D01046891E420801D0881E7047081A6A
:102F0000704702E008C8121F08C1002AFAD17047B2
:102F10007047002001E001C1121F002AFBD1704759
:102F2000F0B51FB486B00998089A030D002102433A
:102F300014D05148514A18185043051411980128CB
:102F400010981AD0281A401C00264D4F4D49009663
:102F500001910490002812DA444211E011980124F2
:102F600049A3012801D11098C1430698119A8460A1
:102F70000360C26041600BB0F0BD4042E4E704462C
:102F8000210500203F4A001C51410391029012E0AC
:102F9000E00707D032463B4601990098FDF7BAF8A2
:102FA0000191009032463B4610461946FDF7B2F8B3
:102FB00006460F466410002CEAD10498039B0028B3
:102FC000029A0999089806DAFDF7A4F8019B009A7D
:102FD000FDF7A0F805E0FDF705F9019B009AFDF764
:102FE00001F904460E460022284BFDF7C5FB03D825
:102FF0000020C043014607E00022254B2046314611
:10300000FDF7E8FAFDF798FB102409E0002C0ADB35
:103010000A220023FDF7FDF9079B30321A55641E82
:1030200002460A43F2D11122641C079B121B1C1991
:10303000119B012B03D0012308430ED10AE0084362
:1030400004D0112010900020119077E71098151AE5
:103050006D1E0BE01098824202DD00236D1C03E020
:10306000824201DA00236D1E002BEED006981199E2
:103070008260C16030C07EE701FCFFFF104D0000A0
:10308000000014400000F03F300000000000F0435A
:103090000000E03FFFB597B00646002518E225285E
:1030A00077D100242746FD49049400E00443761CB0
:1030B00032780120203A90400842F7D130782A280F
:1030C0000ED00222307801463039092916D80499E9
:1030D0000A235943303940181443761C0490F1E711
:1030E000189802C804911890002904DA01204003BE
:1030F00004434842049002200443761C30782E2872
:1031000014D1042004437078761C2A2809D1189819
:10311000761C80C8189009E00A214F43303FC71938
:10312000761C3078014630390929F5D930786C2879
:1031300010D006DC4C281AD068280ED06A2817D187
:1031400004E0742813D07A2812D110E00120400541
:1031500004430CE00121090501E0032109050C43AA
:103160007178814203D1012000052418761C761C59
:103170003078119066280BD013DC58287DD009DCFC
:1031800000287BD04528F6D04628F4D047281AD10D
:10319000A5E118E0632835D0642870D0652812D1E5
:1031A0009DE170286CD008DC6728F1D069287BD0BD
:1031B0006E280DD06F2806D1BAE073282ED075285E
:1031C00071D0782859D01A9A199990476D1C7EE1D0
:1031D0006002400F022809D003280DD00428189857
:1031E00001680DD00D60001D189070E11898EA1765
:1031F00001680D604A60F6E7189801680D80F2E7F3
:103200000D70F0E718986A4601781172001D189049
:103210000020507202A80090012005E0189802C812
:10322000189000200091C04361070DD5002101E0F6
:103230000199491C0191B94212DA8142F8DB009AE6
:10324000515C0029F4D10BE0002101E00199491CF7
:1032500001918142FADB019A0099895C0029F5D13C
:10326000019904981A9B471A21463846199A00F08A
:1032700097FA0199401945180BE04FE02CE113E053
:103280004EE0009800990078491C00911A9A19990B
:1032900090470198401E0190401CF2D121463846CB
:1032A0001A9B199A10E137E00A2000210090019141
:1032B0006002410F022907D0189A01CA1892C2175A
:1032C0009446032908D00AE01898C01DC108C90017
:1032D00005C91891944607E000B2C2179446042924
:1032E00002D140B2C1178C4600226146944506DAED
:1032F0000A460021404291418C462D2102E02105E1
:1033000004D52B216A461173012103E0E10701D0A6
:103310002021F7E7029155E00A200AE0102008E09A
:10332000102000900021042004430191082703E0AD
:1033300008200021019100906002410F022907D06E
:10334000189A01CA189200229446032908D008E06E
:103350001898C01DC108C90005C91891944603E01A
:1033600080B2042900D1C0B200210291210729D5E1
:103370001199702906D0009A1021019B4A401A43E6
:1033800005D00EE040216A461173012108E0614634
:10339000014306D030216A461173119951730221FD
:1033A0000291009A0821019B4A401A430AD16146C2
:1033B000014301D1610705D530216A46117301210E
:1033C0007F1E02911199582904D035A10E910DA9A3
:1033D0000D910DE037A1F9E76146019B009AFDF7D9
:1033E00018F80E9B8C469B5C0D9A521E0D92137022
:1033F00061460143F0D10D9805A9081A20300190CB
:10340000600703D501200004844300E001270198F0
:10341000874201DD381A00E0002001990090411830
:10342000029809180498401A0490E00306D4214633
:103430001A9B199A049800F0B3F94519002706E081
:1034400003A81A9AC05D199990476D1C7F1C0298B9
:103450008742F5DBE0030CD521461A9B199A0498A4
:1034600000F09EF9451904E01A9A30201999904706
:103470006D1C0099481E00900029F5DC08E00D98AD
:103480000D990078491C0D911A9A199990476D1C55
:103490000199481E01900029F1DC63E1092801002F
:1034A00030313233343536373839616263646566BA
:1034B000000000003031323334353637383941427C
:1034C000434445460000000000F05AF94519761CB7
:1034D0003078002800D0E2E528461BB0F0BD600738
:1034E00000D406271898C01DC108C90048680A689A
:1034F0000831C30FDB071891190001D09CA108E027
:10350000210501D59BA104E0E10701D09AA100E0CB
:103510009AA1430011985B08109165280CD006DC35
:10352000452809D046281DD0472841D141E06628CA
:1035300018D067283CD13CE00021112F01DB11207D
:1035400000E0781C0191009008A911A8FFF7E8FCA1
:10355000139905910021119A15927F1C12980197D9
:10356000009150E00120C00703900120019008A9BC
:10357000009711A8FFF7D4FC139A14990592002222
:10358000119B009212981593059A0192002901D07F
:10359000104602E0791C40180190381A01D50198B4
:1035A00004E04042401E0090781C0190C01B029035
:1035B00043E0012F00DA01270021112F01DD112046
:1035C00000E038460191009008A911A8FFF7A8FC77
:1035D00013990591119A0021129815920091019763
:1035E00021070CD40599B94201DB019900E0019152
:1035F000012904DD159A491E515C302906D0B842D4
:1036000001DA011D05DA0121029115E00199491E37
:10361000EDE7002805DC0099411800910199091A8D
:1036200003E0019A411C914200DD01910099401A8A
:10363000401C02900120C0070390200706D4029985
:103640000198814202DB0020C043029000206946BD
:10365000C87707AF012103980337C907884224D0F0
:10366000022011902B201290039800280CDA40427F
:1036700003902D20129007E00A210398FCF7AAFE80
:1036800030317F1E039039701199481E1190002926
:10369000F2DC03980028EFD1791E12980870307878
:1036A000202108404530BF1E387006A8C01BC01D31
:1036B000039010980078002800D00120019941184B
:1036C0000298C0170918039809180498401A401E58
:1036D0000490E00306D421461A9B199A049800F03E
:1036E0005FF8451910980078002803D01A9A1999A4
:1036F00090476D1CE00324D521461A9B199A049823
:1037000000F04EF845191CE00098002807DB0099EE
:103710000598884203DD1598405C199901E01999D4
:1037200030201A9A904700986D1C401C0090029817
:10373000401E0290002804D11A9A2E201999904711
:103740006D1C0199481E01900029DDDC05E03878E8
:103750001A9A7F1C199990476D1C0399481E039073
:103760000029F4DC21461A9B199A0498ACE6000063
:103770002D0000002B0000002000000000000000D1
:10378000F8B5044600251E461746880404D405E013
:1037900039462020B0476D1C641EF9D52846F8BD77
:1037A000FFB50446002581B01E46C80301D5302769
:1037B00000E02027880404D505E038460399B04787
:1037C0006D1C641EF9D5284605B0F0BD0A68531C6F
:1037D0000B6010707047000000000000FC02000049
:1037E000A90200005F0200003D020000FE0100008F
:1037F000C6010000950100007E0100005401000098
:103800002F0100001E010000FF000000E300000087
:10381000CA000000BF000000AA00000098000000DD
:103820008F000000800000007200000065000000B2
:103830000000000000000000010203040607080960
:103840000000000001020304FA00FA00F401F40190
:10385000F401F401F401FA00FA00F401F401F401B6
:10386000E803FA00FA00F401F401F401F401DC05C4
:10387000F401FA00FA00F401F401F401E803FA009B
:10388000FA00F401FA00FA00F401FA00FA00FA0072
:10389000FA00FA00FA00F401FA00FA00F401FA0062
:1038A000FA00F401FA00FA00FA00FA00E803FA005C
:1038B000FA00FA00FA00FA00FA00F401FA00FA003D
:1038C000FA00FA00FA00FA00F401FA00FA00F40132
:1038D000FA00FA00F401FA00FA00FA00FA00E8032C
:1038E000F401F401F401F401F401F401E803F4013A
:1038F000F401F401F401F401F401E803F401F4012A
:10390000F401F401F401F401E803F401F401F40119
:10391000F401F401F401E803F401F401F401F40109
:10392000F401F401E803F401F401F401F401F401F9
:10393000F401E80302030405060708090A0B0C0D4D
:103940000E0F10100102030405060708090A0B0CEC
:103950000D0E0F1000000000040000000800000021
:103960000200000005050605080700050506050913
:103970000805050C0A080706000B0B0A08090805CC
:103980000303040202010203040505050503030401
:1039900002020103050503020202020203040303FB
:1039A00003030304050503030402020103050501E3
:1039B00001010505060605040403030202010505CD
:1039C00004040303020505040403030201010505C1
:1039D0000606050404030302020174656D70657236
:1039E0006174757265203D2025302E3266200A0DE7
:1039F0000068756D6964697479203D2025302E3228
:103A000066200A0D000A0D74696D65203D2025644D
:103A1000206D73200A0D00646174612076616C75FD
:103A200065203D202578200A0D00636865636B20C2
:103A30007061726974792076616C7565203D20250E
:103A400078200A0D007061726974792076616C7556
:103A500065202578200A0D0025640025302E326669
:103A60000003020105030201050302010501010033
:103A7000010302010503020105030201050102031E
:103A800001000000A83A000800000020900100009A
:103A900016080008003B000890010020A006000066
:103AA000122F000800000000413201420413127A74
:103AB0001AF40D32FA2904E90C6904093E20E904DC
:103AC0006924096E0469803208320732069A0508B3
:103AD0003203191FF92029185A021C091220E94043
:103AE0006930A93430160102030405060708090AE3
:103AF0000B0C0D0E0F101112131415000000000016
:04000005080000C12E
:00000001FF
