:020000040800F2
:10000000A0050020D5000008571900085519000860
:1000100000000000000000000000000000000000E0
:100020000000000000000000000000005B19000854
:100030000000000000000000591900085D190008C8
:10004000E7000008E7000008E7000008E7000008F4
:10005000E7000008E7000008E7000008E7000008E4
:10006000E7000008E7000008E7000008E7000008D4
:10007000E7000008E7000008E7000008E7000008C4
:10008000E70000086919000889190008E70000085E
:10009000E7000008E7000008E7000008E7000008A4
:1000A000E7000008E7000008E7000008E700000894
:1000B000E7000008E7000008E7000008E700000884
:1000C0000348854600F048FB00480047AD2500087E
:1000D000A00500200448804704480047FEE7FEE7EB
:1000E000FEE7FEE7FEE7FEE765190008C10000082D
:1000F000D2B201E00270401C491EFBD270470022C0
:10010000F6E710B513460A4604461946FFF7F0FF16
:10011000204610BDF0B51FB488B00B990998002493
:1001200048400999C00F490049080991C0070B9937
:100130000090490049080B9109990898A646084380
:100140001CD00B990A98084318D009980124400044
:10015000420D4800410D099824050003000B20437F
:1001600009900B980003000B20430B9050181C497A
:100170004018002201901446104605E00020014678
:100180000DB0F0BD032801DA034600E003239C46CE
:10019000C11A0AAE0AE05F0008ADED5B4F00F75BE5
:1001A0007D430027AA187C41491C5B1E6145F2DD96
:1001B000410004AB5A522104120C0A43240C401C87
:1001C0000828DFDB019802900099704601910090A9
:1001D000059B049A0799069800F086F9D0E700007D
:1001E0000DFCFFFFF0B50C465C4085B0E40FE40762
:1001F00003944C00002664085900944649080246BE
:100200000296224321D062460A431ED06200570D57
:100210004A000E032303550D012402462C492405F0
:10022000781B1B0B360B4018234326436146009076
:100230001C46501AB44103D30098401C009002E0C1
:10024000921800985B41002803DA0020014605B0AF
:10025000F0BD0020012109050746864611E06446ED
:100260001D46141BB54106D36546521BB341744667
:1002700007430C43A646CD07400849082843921877
:100280005B4105460D43EAD11046184313D0604642
:10029000194650407140084306D06046101AB341D9
:1002A00006D20122002306E000220123DB0702E040
:1002B0000122D2435310009874460105381C614155
:1002C000029C039D0019694100F001F9BFE700009D
:1002D000FD0300000EB505490291002100910A4678
:1002E0000B46019100F000F903B000BD330400009B
:1002F0004A0009030123090B1B051943094B10B5DB
:10030000520D9A4201DA002010BD064B34339A4256
:1003100003DC9A1A00F089F810BD0349511888408F
:1003200010BD0000FF030000CDFBFFFFC20FD2078E
:10033000400040080BD0C10D0723DB01C918400263
:100340000905400A1143C2084007114370470020C5
:1003500001467047CB0FDB07490010B5490802463C
:100360000A4307D00A0D07240903E401090B121BF5
:10037000002A01DC002010BDC900440F0C43C1005D
:10038000E018D205801800F061F810BD70B5044681
:10039000002903D000202022012310E0002801D0F2
:1003A0000020C043C046C0460DE02546D5408D42E2
:1003B00005D30D469540641B1D46954040191546D2
:1003C000521E002DF1DC214670BDF0B51FB406466B
:1003D000002082B005464024019100901BE0019965
:1003E00022460F46304600F020F8049A059B801AFA
:1003F000994110D310461946224600F0C5F9361A25
:100400008F410197224601200021009F00F0BCF996
:1004100038184D4100902046641E0028DFDC019B07
:1004200000982946324607B0F0BD10B5202A04DBFB
:100430000846203AD040002110BD0B46D340D040A2
:100440002024A21A91400843194610BD002904DA5D
:10045000401C490001D140084000704770B400249E
:10046000050C05D11024000402D1002921D011244B
:10047000050E01D100020834050F01D10001241D31
:10048000850F01D18000A41C002801DB4000641C02
:10049000002908D020252E1B0D46F540A14000D094
:1004A00001212943084301061B1B000ADB1D02D55D
:1004B000002070BC7047DB05181880180029F8DA96
:1004C000401C4900F5D170BC40084000704710B591
:1004D000002B08DA0024401C614192185B411A434A
:1004E00001D14008400010BDF0B51FB482B00546F0
:1004F0000C0003D0084602F01BFA02E002F018FAE2
:100500002030024600902146284600F03DF9049B29
:10051000059A04460F4618431143084314D0184661
:1005200010431BD0009840210A1A18460599FFF77E
:100530007CFF05460E46009A0599049800F024F9C0
:10054000084305D0012004E02046394607B0F0BD3D
:100550000020C11705430E432C43374300990E98E2
:100560006305401A7905E40A00220C43FD0A0A30AB
:1005700002D500200146E9E70105101969410C9CEC
:100580000D9D00196941FFF7A2FFDFE7F0B50746AF
:100590000846584087B0C00F049048000E465900E6
:1005A00040084908BC1A884105D2384631461E46E3
:1005B00017460B4602465800400810434CD0300DF9
:1005C000039040055900400D490D0590401A0290D6
:1005D000402872DA18030121000B09050843019035
:1005E00004980092002805D00199524200208841C9
:1005F00000920190029840210A1A0199009800F097
:10060000C3F805460C466B4607CB00F0CDF8C01981
:100610007141039A0E0D0023D71756401A467A40AF
:10062000164344D0049A002A2DD0029A012A039A34
:1006300015DC1205C01A914101263605001C7141D6
:10064000D20F059ED2070093019202962A462346B6
:10065000FFF74AFF07B0F0BD38463146FAE7160506
:10066000224A0F46B218C01AB74101210905001CE1
:100670004F4100187F41114618187941E20F10438D
:100680006D19644113E0E2076D0815436408C20761
:100690001443039A01261205C01A91413605001C25
:1006A0007141CE07400830434908C01851412A46DD
:1006B0002346FFF70CFFCDE7FFE704980122400037
:1006C000C117121A00238B4104983146C417381AF7
:1006D000A141EEE730B40124E407634030BC55E7A4
:1006E00030B40124E407614030BC4FE70000E0FF74
:1006F0004A0009030123090B1B0519430A4B10B5D6
:10070000520D9A4202DA0020014610BD064B3433E6
:100710009A4203DC9A1AFFF788FE10BD034BD218E9
:1007200000F032F810BD0000FF030000CDFBFFFF1A
:1007300010B5002904DB0124E40740428C41214626
:10074000002B04DB1C460123DB075242A3419942E4
:1007500000D1904210BD00001CB509480090094826
:10076000019005460126009C05E0E36807CC334371
:100770000C3C98471034AC42F7D3FFF7A5FC0000BF
:10078000483300086833000810B5202A04DB01460E
:10079000203A9140002010BD914020239C1A03462E
:1007A000E3401943904010BD10B5202A06DBCB175B
:1007B0000846203A1041C1170B4306E00B4613418F
:1007C000D0402024A21A91400843194610BD0000D1
:1007D0000D490A680B689B1A834213D200BF0B684D
:1007E0009B1A83420ED200BF0B689B1A834209D228
:1007F00000BF0B689B1A834204D200BF0B689B1A90
:100800008342EBD37047C04630000020B0B50446A9
:1008100000F0E2F80546601C02D08C48007804190C
:1008200000F0DAF8401BA042FAD3B0BDF0B58BB0AF
:1008300006900C68002C00D1BDE06048069A824208
:1008400001D0052000E004201723DB06069AD21809
:100850000A23DA410192042A00D30190069820303D
:100860000090002635463346099122460BE03C4372
:10087000089E14605B1C0A681046D840361DAD1CEB
:10088000002800D197E0012007469F403A40F1D070
:100890000490089603200446AC400295E54349685D
:1008A0000E460640741E012C05920795039110D840
:1008B000069A90682840099CE468029DAC40044375
:1008C0009460C806C00F98405468BC430443546009
:1008D00006E0032E029D03D10646059F039C1FE000
:1008E000069AD0680799084009998C68AC4004437F
:1008F000D460022E059F039C12D11C200899084049
:100900000F218140DC08A400009A16598E43099FEC
:1009100039698140314311517C68059F0326264087
:10092000AE4006990868079A104030430860A0035B
:10093000800F0999089E049A9CD04F49086810437B
:100940000860086810400A900C2030400F21814058
:1009500003241E46A6430A9C1A4AB4588C430199A4
:1009600081402143B1500999154A96684868C402EC
:100970000FD53E439660D66884020FD4BE43D6603E
:10098000566884030FD4BE4356601468C00310D564
:100990006DE7BE439660D6688402EFD53E43D660CD
:1009A00056688403EFD53E4356601468C00300D5F3
:1009B0005DE7BC435CE70BB0F0BDC04600100048EB
:1009C0000004014008000140002A02D01822815092
:1009D0007047282281507047054800687047C0461C
:1009E0001A48007802490A68101808607047C04623
:1009F0009C01002010B5DD48016810220A43026006
:100A00000024204600F004F800F022F8204610BD33
:100A100070B504467D20C0000C4E3178FFF7B6FC5F
:100A20000146DA480068FFF7B1FC00F02DFC012513
:100A3000032C08D8002806D10025E84321462A4681
:100A400000F028F87460284670BDC04604000020FD
:100A500082B0094801680122114301600168114018
:100A600001910199110742680A43426040680840B9
:100A70000090009802B0704718100240002805D47A
:100A80001F21084001218140014801607047C04694
:100A900000E100E0002805D40322034693430A4AFC
:100AA0009A1803E00C220240064BD2188007C00EB1
:100AB0008901C9B28140FF238340106898430843ED
:100AC0001060704714ED00E000E400E0F0B587B07E
:100AD00004468078C0074C4F4FD001200590010795
:100AE0003A1F10680840049006D11068084310604F
:100AF000106808400690069802920391434F3868A8
:100B0000C00512D405980602386830433860FFF7F4
:100B100063FF05463868304207D1FFF75DFF401B91
:100B20006428F7D9032007B0F0BD0320019000022C
:100B3000354F3968014012D06268024091420ED0B0
:100B40000598000439683A6802433A603A6882437B
:100B50003A6008462E4A10403860C80745D13868C8
:100B60002B4908406168014339600498002804D18A
:100B7000029A10680399884310602168C8070AD157
:100B8000880710D4880617D488031DD4002049058F
:100B900023D407B0F0BD386903229043A268024312
:100BA0003A618807EED5032000043A698243E06881
:100BB000104338618806E7D53869102290432269CE
:100BC00002433A618803E1D5386980229043A269E3
:100BD00002433A6100204905DBD53969402291433F
:100BE00062690A433A6107B0F0BDFFF7F5FE0546BA
:100BF0005F4E38688007B2D4FFF7EEFE401BB0426C
:100C0000F7D9019807B0F0BD2010024000700040F5
:100C1000FFFCFFFFF0B581B0002842D00D4604462E
:100C2000524B186801210840A84208D21A680120D6
:100C300082432A431A601A680240AA4251D12068AE
:100C40008207674E0CD5420704D50722120233688B
:100C5000134333603268F0239A43A368134333602D
:100C6000C00721D1414A116801200140A94205D99C
:100C70001168814311601168C90732D12178490791
:100C8000574F06D5072109023A688A43E1681143A4
:100C900039603B681907890F524A022912D214465B
:100CA00055E0012001B0F0BD6268032A14D0022A89
:100CB0004B4B0BD0181F012A15D100688003084642
:100CC0000FD514E003292CD1474C40E0181F0068D1
:100CD0008001084605D50AE0414B186B80030846A1
:100CE00005D401B0F0BD006880070846F9D5186842
:100CF00003210091884310431860FFF76DFE0646FC
:100D00001B4F374800680C21014060688000814219
:100D1000A8D0FFF761FE801BB842F2D9009801B05D
:100D2000F0BD0321CD0399022B40090F2F4C645CC9
:100D3000B96A0F260E402E49895DAB4203D00004EC
:100D40008342104600E02848FFF720FB4443386800
:100D50000006000F0749085CC4400C4804600024EA
:100D60002046FFF755FE204601B0F0BD00200240AE
:100D70008813000080320008044800681849096898
:100D80004905490F024A515CC84070470C000020D9
:100D900090320008B0B512490A681007830F114855
:100DA000022B02D3032B01D10F48B0BD0323DB0379
:100DB00094021A40240F0D4D2C5D896A0F250D40B9
:100DC0000B49495D9A4203D001231B049A4200E07B
:100DD0000548FFF7DBFA014620464843B0BDC04650
:100DE0000410024000127A00006CDC029832000805
:100DF000A8320008F0B587B004460120002C00D1CD
:100E00003CE204902078C007F64E05940CD071683F
:100E10000C200140042900D08FE03068800303D506
:100E20006068002800D131E12078800721D5706802
:100E30000007800F0ED070680C210140082900D0F7
:100E400098E00320C003716801400120C003814283
:100E500000D08FE030688007059C03D5E06801284A
:100E600000D013E13068F82188432169C9000143AB
:100E70003160059C2078000724D42078400736D4C0
:100E80002078C00600D4CEE0706B059949694A1DF0
:100E900000D1BDE0012900D03EE104210843706388
:100EA000706B012101437163FFF796FD0546706B7E
:100EB000800700D5AFE0FFF78FFD411B032002291B
:100EC000F5D9DBE1706AE16900297ED00121084390
:100ED0007062FFF781FD0546706A8007CDD4FFF789
:100EE0007BFD401B0228F7D9032007B0F0BD01208D
:100EF00003900107F0690840029006D1F0690843A9
:100F0000F061F0690840069006980191DC4F38685E
:100F1000C00546D403980402386820433860FFF7C0
:100F20005BFD0546386820423BD1FFF755FD401B6D
:100F30006428F7D9032007B0F0BD71680140082983
:100F400008D10320C00371680140012000048142E0
:100F500000D162E76268306801214F04002A00D1A5
:100F600029E1052A00D11FE1012A00D03CE1090452
:100F700008433FE13068059CE168002937D0012132
:100F800008433060FFF728FD05463068800700D52C
:100F900068E7FFF721FD401B0228F6D9032007B0C0
:100FA000F0BD05988168306AB64F002900D1DDE0B8
:100FB000052900D1C5E0012900D1C6E00399884385
:100FC0003062306A04218843C1E0012188437062A5
:100FD000FFF702FD0546706A800700D44DE7FFF772
:100FE000FBFC401B0228F6D9032007B0F0BD01210D
:100FF00088433060FFF7F0FC05463068800700D476
:1010000037E7FFF7E9FC411B03200229F5D935E159
:10101000042188437063706BF821884305998969BE
:10102000C900014371630598007880060BD571688B
:101030000C2001400C294DD1706B800303D505981D
:10104000006A012822D10598446A002C1BD07068E0
:101050000C21014008291CD1012C17D00320C20308
:1010600070680240F16A059CA36A9A420ED10F2271
:101070001140236B994209D191040840E16A8842EA
:10108000049800D0FAE0002007B0F0BD049807B043
:10109000F0BD012002063168049291433160470699
:1010A000FFF79AFC0546022C0AD13068384200D17D
:1010B000C3E0FFF791FC411B03200229F5D9DDE0D5
:1010C00030683842DFD0FFF787FC411B032002293C
:1010D000F6D9D3E071680140082905D10320C00387
:1010E000716801408142A7D0706B0599096A002997
:1010F00000D18FE001210A04104370634C04FFF714
:101100006BFC0546706B20429DD1FFF765FC411BCF
:1011100003200229F6D9B1E0042108437063706B03
:10112000012188437063FFF757FC0546706B800709
:1011300000D478E7FFF750FC411B03200229F5D9C2
:101140009CE0042108433062306A0399084330620E
:10115000FFF742FC0546306A80071BD4FFF73CFCD2
:10116000401BB842F7D9032007B0F0BD039988436C
:101170003062306A042188433062FFF72DFC054657
:10118000306A800706D5FFF727FC411B0320B942D0
:10119000F6D973E002980028059C00D070E6F0694B
:1011A00001998843F0616BE68A04104330600904BA
:1011B000306808431EE00A049043306088043168B8
:1011C00081433160FFF708FC0546059C30683842D2
:1011D00000D129E6FFF700FC411B03206429F5D963
:1011E0004CE0C046001002400A049043306089047D
:1011F000306888433060FFF7EFFB054630683842BF
:1012000000D011E6FFF7E8FB401B6428F6D9032065
:1012100007B0F0BD01210A04904370634C04FFF74E
:10122000DBFB0546706B204200D10CE7FFF7D4FBD7
:10123000411B03200229F5D920E0F06A0F218843E1
:10124000059A116B0143F1627B20C00371688143F1
:10125000D06A0843916A0143716030680499084379
:101260003060FFF7B9FB04463068384200D00AE727
:10127000FFF7B2FB011B03200229F5D907B0F0BD2F
:101280000070004088130000401E010E01D00120B4
:1012900070470749074A5060074803680B4003211D
:1012A000890759180160002090600721116070477C
:1012B000FFFFFF0010E000E020ED00E010B53C2251
:1012C000825C012A01D1022010BD02463C32022379
:1012D0005370006843687024A3430C681C43836800
:1012E0004460484CA04207DC0124A407A04209D076
:1012F000434CA04206D00AE0464CA04202D03F4CEC
:10130000A04204D18024A34349681943816000208E
:1013100010700121517010BD70B5002829D005460C
:101320003C356978002905D100212970044600F078
:1013300073F82046022169700268166801218C0743
:10134000A24205D02D4B9A4202D02D4B9A4219D180
:1013500070239E43836833432A4EB24216DD2A4CE3
:10136000A24208DC254CA24218D02A4CA24215D039
:1013700042E0012070BD254CA2420FD0244CA24275
:101380000CD039E033461F4EB242E8DCA24205D011
:101390001B4CA24202D0534CA2422DD10324240262
:1013A000A34304691C4380239C4383692343136044
:1013B000C368D36243689362EE4BD3180A24E341B7
:1013C000072B06D80C469C40E1231C4201D0406903
:1013D000106351611069C00702D010698843106121
:1013E000A972A970E97029716971A971E9712972ED
:1013F00069726970002070BD1C46D4E7002C014062
:1014000000040040FF2B0140FF4301400048014021
:10141000004401400040014010B584B000683149EB
:10142000884225D0184988420ED01849884229D1CF
:1014300017480168102211430160006810400390B2
:101440000398112401210AE0114801682022114368
:1014500001600068104002900298122402210022CC
:101460002046FFF717FB2046FFF708FB04B010BD2E
:101470000120000206490A6802430A600968014027
:101480000191019804B010BD00140040001000400C
:101490001C10024080B586B0002105910491039193
:1014A000029101910068F54A904201D006B080BDDA
:1014B000012040040C4A1368034313601268024081
:1014C00000920420059004910391022002901020C4
:1014D00001900920C006009901A9FFF7A7F906B0FD
:1014E00080BDC0460020004014100240F0B583B01B
:1014F0003C23C35C012B02D1022003B0F0BD0746A0
:101500003C370223DA41032A00D9B0E00297C046F3
:101510007A441279520097440197485D0268156A2F
:10152000146A012084431462D54C14190A26F4412C
:101530009D438E682E43536800930B680193956911
:10154000072C00D910E10346A340E1273B4200D11C
:1015500003E10C239E43CB680427BB433343029F24
:10156000072C00D904E1A040E124204200D1FFE093
:1015700003200002009E86434C698869344304437B
:101580001046183054607324A543019C254395618F
:101590004C6854631362936908241C4394619369F3
:1015A0000424A34393610969C9E00268106A012712
:1015B0003B02146A9C4314627B0298438B681B02B3
:1015C000034350680C680194D569A54EB24253D0CC
:1015D0001E465AE00268156A01263003136A8343E7
:1015E0001362A74813180A20C34150688C680F681B
:1015F0000197D769072B00D9B4E0009434469C408A
:10160000E1231C4200D1A6E0B30398434B699B0140
:101610000343009C10461C30536073231B029F43FE
:10162000019B1B023B43D3614B68136473039D43CF
:1016300023032B431362F302D4691C43D461B30226
:10164000D4699C43D46177E00268106A136A10245D
:10165000A3431362202398438B681B010343506804
:101660000D6894697E4EB24237D01E463CE00120A0
:101670000021397003B0F0BD0326B602B3433E4CDF
:10168000FF3CCE68360226401E437D4BD3180A2409
:10169000E341072B5BD89F40E1231F4257D0032330
:1016A0001B0398434B698C691C4323010343029F2E
:1016B00010461C30536073239D43019B1D43D5612D
:1016C0004B68D3631662D36908241C43D461D36981
:1016D0000424A343D361096931E0C026B343CE6833
:1016E00036014027BE431E43654BD3180A27FB41F2
:1016F000072B2ED801279F40E1231F4229D0032327
:101700009B0298434B698F691F43BB0003431046FC
:101710001830536073231B029C432B0223439361B5
:101720004B68936316620123DC029569254395613A
:101730009B0294699C43946109690902029F0268B3
:101740000A43026000200021397003B0F0BD034657
:10175000ADE70346DBE703465BE73346029F072C12
:1017600006D800E7034655E73346072C00D8FAE6CB
:10177000009C05E700D4FEBFFFFBFFFF70B500280B
:1017800029D005463C356978002905D1002129700A
:10179000044600F077F82046022169700268166856
:1017A00001218C07A24205D02D4B9A4202D02D4B2D
:1017B0009A4219D170239E43836833432A4EB24222
:1017C00016DD2A4CA24208DC254CA24218D02A4C35
:1017D000A24215D042E0012070BD254CA2420FD09C
:1017E000244CA2420CD039E033461F4EB242E8DC12
:1017F000A24205D01B4CA24202D0204CA2422DD1C5
:1018000003242402A34304691C4380239C4383696B
:1018100023431360C368D36243689362184BD318A1
:101820000A24E341072B06D80C469C40E1231C42C6
:1018300001D04069106351611069C00702D010697E
:1018400088431061A972A970E97029716971A97141
:10185000E971297269726970002070BD1C46D4E775
:10186000002C014000040040FF2B0140FF430140D9
:101870000048014000440140004001400020004079
:1018800000D4FEBF7047B0B500281DD00446C06F1D
:10189000002805D1782000212154204600F02AF8A4
:1018A0002420E067206801680125A9430160606A7F
:1018B000002802D0204600F09FF8204600F06EF984
:1018C000002803D02846B0BD0120B0BD0920C002C9
:1018D00021684A6882434A6088682A229043886067
:1018E0000868012202430A60204600F0EFF805462E
:1018F0002846B0BD80B586B00021059104910391C2
:10190000029101910068F34A904201D006B080BD77
:101910000F488268012305935B041A438260826842
:101920001A400092009A02681A4302600068184048
:10193000009004910391022002900C200190092054
:10194000C006009901A9FEF771FF06B080BDC04630
:1019500014100240FEE7FEE77047704780B5FFF7BE
:101960003FF880BD7047000019484168491C41603C
:101970008168491C8160034801680122914301602C
:101980007047C0461010004010B5114C2078401C24
:101990002070207864280FD100F044FC002802D188
:1019A0000CA000F0B5FF00F08BFA002802D10DA0CA
:1019B00000F0AEFF00202070E068401CE06020696D
:1019C000401C20610B48016801229143016010BD59
:1019D000280000204448543232206661696C2E0A87
:1019E0000D0000004448543131206661696C2E0AB4
:1019F0000D00000010140040B0B5416A0A070CD475
:101A0000CA0714D18A071CD44A0724D4CA062CD486
:101A10008A0634D44A063CD44CE00122D20303683F
:101A20005C689443426B22435A60CA07EAD00122A1
:101A3000520403685C689443826A22435A608A07AE
:101A4000E2D50122120403685C689443C26A22430F
:101A50005A604A07DAD50122920403685C6894430D
:101A6000026B22435A60CA06D2D5012212030368D0
:101A70009C689443826B22439A608A06CAD50122ED
:101A8000520303689C689443C26B22439A604A06DF
:101A900010D501221305026854689C43056C2C4341
:101AA00054609D4206D103235B0554689C43436CFC
:101AB00023435360090607D50121C904026853680E
:101AC0008B43806C18435060B0BD0000F0B583B00C
:101AD0000446064678360025F560FEF77DFF03468E
:101AE00020680168090721D502952B48009001253F
:101AF0006905002220461F4600F0F8F8002812D0A1
:101B0000EFF3108085F3108821680A6880239A43D8
:101B10000A6080F31088032020227C21029D6250FD
:101B2000357003B0F0BD20683B46029D0068400759
:101B300026D5194800900127B9050022204600F05B
:101B4000D5F800281CD0EFF3108087F31088092106
:101B50004901226813688B43136080F31088EFF308
:101B6000108087F3108821688A68BA438A6080F3FE
:101B700010880320202280216250357003B0F0BD10
:101B80002020E067B060256664212A46284662501E
:101B9000357003B0F0BDC046FFFFFF01B0B504468D
:101BA00000680168474A0A40A16823690B436569D8
:101BB0001D431543E1690D43056003221203436889
:101BC0009343E2681A434260A269236A13430B22DB
:101BD0001202856895431D43856000223A4B984266
:101BE00006DC3C4B984212D03B4B984216D00CE09E
:101BF000364B984212D0364A904206D13748006898
:101C00008007000F364A125808E0102206E03348D9
:101C10000068800B0C220240314882580125EB03FA
:101C20003048994210D1082A47D8C0467A441279E0
:101C30005200974404422442194242422300FFF7D3
:101C40009BF800281BD137E0082A36D87A4412794D
:101C500052009744043225320E3232322400FFF70C
:101C60008BF800281CD127E0FFF794F8002806D154
:101C700022E0FFF78FF8002812D11DE0184640003F
:101C800061684A081018FEF781FB0246103A1649AF
:101C90008A4212D201400007400F08430AE018466A
:101CA00061684A081018FEF771FB014610390E4AA8
:101CB000914202D22168C86000250020A066E0663B
:101CC0002846B0BDF369FFEFFF4B0040004C0040D9
:101CD00000380140004400400048004030100240FD
:101CE000B832000800127A00F0FF0000F0B585B0AD
:101CF0001F4615460E460368D9693140891B4A4282
:101D00004A410021AA4222D10A9C002C22D00391F0
:101D1000611C24D1D9693140891B4A424A41AA42F7
:101D200031D1D9693140891B4A424A41AA422AD15C
:101D3000D9693140891B4A424A41AA4223D1D96913
:101D40003140891B4A424A41AA42E3D01BE008467F
:101D500005B0F0BDFEF740FE032005B0F0BD402EFB
:101D6000049001D0802E14D1FEF736FEC01BA04295
:101D70000CD8049800680168C0693040801B41425B
:101D80004141A942F0D0039805B0F0BD032005B051
:101D9000F0BD7830019001200090C002029006E072
:101DA000C8693040801B41424141A942EBD1FEF756
:101DB00013FEC11B0320A1423ED8049909680A689A
:101DC0005207EDD5CA69120738D4CA69029B1A4274
:101DD000E6D0029A0A62EFF31082012181F31088A3
:101DE00009235B01049C246825689D43256082F3D8
:101DF0001088EFF3108281F31088049B1B689C68A5
:101E00008C439C60049B82F310881A6E012A0BD1CC
:101E1000EFF3108281F3108819680B681024A34334
:101E20000B60049B82F310882021019CA16000229A
:101E30001A669A662270E16005B0F0BD08250D6251
:101E4000EFF31081009880F3108809225201049B5F
:101E50001B681C6894431C6081F31088EFF31081A9
:101E600080F31088049A1268936883439360049BFC
:101E700081F31088196E01290CD1EFF31081012232
:101E800082F310881A6813681024A3431360049B1C
:101E900081F310882021019A9160002119669966CA
:101EA0001170D56005B0F0BD80B5044A914202D0F2
:101EB0000020C04380BD00F015FD80BD0000002063
:101EC000F0B5B1B00124E602D14D6868B043686056
:101ED0001220FEF79BFC686830436860CD490868B3
:101EE0002B46103B1A68CC4F3A4001931A607D2272
:101EF00092000023059300940AE00394029B9B0048
:101F000006ACE750059B9B1C05932A2B039C7AD0BB
:101F10002F6837421AD10F683B1A0027934216D810
:101F20002B68334212D10B681B1A93420FD82B68CF
:101F300033420BD10B681B1A934208D82B683342EB
:101F400004D10B681B1A9342E2D900E02746002413
:101F50002B6833420CD00B681B1A93420AD82B68AB
:101F600033420BD00B681B1AA41C9342F0D902E039
:101F7000039705E0641C0023039301E00397641CAE
:101F8000059B9B00049306AB049FDC510123059F36
:101F900004931F430297039F2B6833421AD10B68A7
:101FA0001B1A0024934216D82B68334212D10B68B7
:101FB0001B1A93420FD82B6833420BD10B681B1AA4
:101FC000934208D82B68334204D10B681B1A934202
:101FD000E2D900E03C4600272B6833428DD00B68E5
:101FE0001B1A934208D82B68334209D00B681B1A7E
:101FF000BF1C9342F0D900E07F1C002303937DE7D0
:1020000003947F1C7AE70968091A844800F080FC71
:10201000019A106880490840106004988005116892
:1020200001431160686830436860E00700D1ECE06C
:10203000032000252A462E4603950AE06038411EFB
:10204000884125438540203205980830A02A00D1D8
:10205000A9E0059006A88018C1689629049C13D8A9
:10206000039C80689628049F12D90598431E222B52
:1020700013D33E437600222B11D23D436D0022281C
:102080000FD32643760012E080689628049FECD890
:10209000039F0598431E222BEBD2222BEDD322283F
:1020A000EFD210467838411E88412543854006A866
:1020B00080184169012700249629394610D8214605
:1020C000006996280FD9202B10D33E437600202B91
:1020D0000ED23D436D001F2B0CD30E4376000FE054
:1020E00000699628EFD82746202BEED2202BF0D37C
:1020F0001F2BF2D210467038441EA0410D4385407C
:1021000006A88018C46901270021962C3C4610D8E7
:102110000C46806996280FD91E2B10D33E437600BB
:102120001E2B0ED23D436D001D2B0CD32643760093
:102130000FE080699628EFD80F461E2BEED21E2B9B
:10214000F0D31D2BF2D210466838411E884125433A
:10215000854006A88018446A01270021962C3C4639
:102160000FD80C46006A96280ED91C2B0FD33E437D
:1021700076001C2B0DD23D436D0010461B2B0CD25C
:102180005CE7006A9628F0D80F461C2BEFD21C2B78
:10219000F1D310461B2B00D250E78038411E8841F6
:1021A000264386404FE71E48294600F0B1FBFA4817
:1021B000314600F0ADFB280A28182F0CC019290E53
:1021C0004018C4B2F548214600F0A2FBB4421CD12D
:1021D000A8B2FEF77FF80025F14E2A463346FEF7F7
:1021E00001F80246EF480B4600F092FB3846FEF736
:1021F00071F82A463346FDF7F5FF0246EA480B46DA
:1022000000F086FB009831B0F0BD002031B0F0BD89
:102210001000004830000020FFFF3FFFF3320008AD
:1022200005330008F0B5B1B001242603D54D686828
:10223000B04368600520FEF7E9FA686830436860DB
:10224000D14908682B46103B1A68D04F3A40019399
:102250001A607D2292000023059300940AE0039403
:10226000029B9B0006ACE750059B9B1C05932A2B09
:10227000039C7AD02F6837421AD10F683B1A002787
:10228000934216D82B68334212D10B681B1A934223
:102290000FD82B6833420BD10B681B1A934208D816
:1022A0002B68334204D10B681B1A9342E2D900E039
:1022B000274600242B6833420CD00B681B1A93422C
:1022C0000AD82B6833420BD00B681B1AA41C93420C
:1022D000F0D902E0039705E0641C0023039301E0BA
:1022E0000397641C059B9B00049306AB049FDC5181
:1022F0000123059F04931F430297039F2B683342DA
:102300001AD10B681B1A0024934216D82B6833424B
:1023100012D10B681B1A93420FD82B6833420BD192
:102320000B681B1A934208D82B68334204D10B6800
:102330001B1A9342E2D900E03C4600272B68334247
:102340008DD00B681B1A934208D82B68334209D0F2
:102350000B681B1ABF1C9342F0D900E07F1C0023BE
:1023600003937DE703947F1C7AE70968091A88487C
:1023700000F0CEFA019A1068844908401060049871
:102380000006116801431160686830436860E00727
:1023900000D1F4E0032000263246354603960AE0D9
:1023A0006038411E88412543854020320598083019
:1023B000A02A00D1A9E0059006A88018C168C82904
:1023C000049C11D8039C8068C828049F10D90598E4
:1023D000431E222B11D3222B13D33E4376002228F7
:1023E00011D32643760014E08068C828049FEED8F5
:1023F000039F0598431E222BEDD23D436D00222BF7
:10240000EBD22228EDD210467838411E8841254370
:10241000854006A88018416901270024C82939464B
:102420000ED821460069C8280DD9202B0ED3202BA9
:1024300010D33E4376001F2B0ED30E43760011E0DF
:102440000069C828F1D82746202BF0D23D436D0003
:10245000202BEED21F2BF0D210467038441EA04124
:102460000D43854006A88018C46901270021C82CA7
:102470003C460ED80C468069C8280DD91E2B0ED3B9
:102480001E2B10D33E4376001D2B0ED32643760021
:1024900011E08069C828F1D80F461E2BF0D23D43C9
:1024A0006D001E2BEED21D2BF0D210466838411E57
:1024B00088412543854006A88018446A01270021E9
:1024C000C82C3C460DD80C46006AC8280CD91C2BD9
:1024D0000DD31C2B0FD33E43760010461B2B0ED280
:1024E0005EE7006AC828F2D80F461C2BF1D23D43A4
:1024F0006D001C2BEFD210461B2B00D250E780380A
:10250000411E8841264386404FE72248294600F075
:10251000FFF92148314600F0FBF9280A28182F0C52
:10252000C019290E4018C4B21C48214600F0F0F929
:10253000B44224D1A8B2FDF7CDFE0025184E2A469C
:102540003346FDF74FFEFDF705FFFDF7EFFE0246B0
:1025500014480B4600F0DCF93846FDF7BBFE2A466E
:102560003346FDF73FFEFDF7F5FEFDF7DFFE0246C1
:102570000D480B4600F0CCF9009831B0F0BD0020BA
:1025800031B0F0BD1000004830000020FFFFFFFC1C
:10259000F33200080533000833330008183300080D
:1025A00000002440C8320008DF3200089CB0FEF76B
:1025B00021FA0EAD281D3021FDF7A1FD002417944E
:1025C0000120169020260E960994089407940694EC
:1025D000059404942846FEF70DFC002803D0EFF381
:1025E000108072B6FEE70D940C9403270B9707201A
:1025F0000A900AA801252946FEF70CFB002803D003
:10260000EFF3108072B6FEE706940220039003A851
:10261000FEF75CFA002803D0EFF3108072B6FEE7F5
:102620001294119410940F940E94E9046E48026869
:102630000A43026002680A4003920399A9050268EE
:102640000A43026002680A4003920399690402681F
:102650000A43026000680840039003980920C006FE
:10266000029031462246FEF7AFF9F9020191029835
:102670002A46FEF7A9F91094212000040F90680360
:102680000E905A480EAF3946FEF7D0F811941094C8
:102690000F950E96029E30463946FEF7C7F8119404
:1026A00010950F9501980E9030463946FEF7BEF80A
:1026B0004F48802686614F4A2F214F4F0760416067
:1026C0008460C2600F940E94FEF726FE002803D0AB
:1026D000EFF3108072B6FEE745480EA9FEF7EEFD57
:1026E000002803D0EFF3108072B6FEE73868284365
:1026F0003860F8682843F860404886614049414F97
:102700000760416084603B49C1600F940E94FEF7FE
:1027100003FE002803D0EFF3108072B6FEE73748BF
:102720000EA9FEF7CBFD002803D0EFF3108072B6A0
:10273000FEE7386828433860F8682843F860324874
:102740000C21324A4B235B021CC004604460816050
:10275000C4600461446184610C38FFF794F8002878
:1027600003D0EFF3108072B6FEE72948866163213B
:10277000284AFF23E0331CC0016044601494139482
:10278000129411940C38FEF7C7FD002803D0EFF324
:10279000108072B6FEE71E48FEF7F0FF002803D057
:1027A000EFF3108072B6FEE7129410940F9460203D
:1027B0000E9017480EA92246FEF798FE002803D077
:1027C000EFF3108072B6FEE71148FEF763FE12A029
:1027D00000F09EF8FFF726FD042000F027F8002007
:1027E00000F024F8FEE7C04614100240000800483C
:1027F00084000020E703000000100040CC0000200F
:10280000BF120000001400401401002000440040EA
:102810003C0000200020004074696D657220636FE9
:102820006E74726F6C2E0A0D00000000F0B581B05E
:10283000002839D0042835D121A000F069F8244EB1
:10284000002575623068012420433060306A2043DF
:1028500030622F461F48C05D80001F490858F06253
:102860007562FDF737FD1D4A1D4BFDF753FCFDF763
:102870003FFD70637D208000FDF7AAFFE043316AD1
:10288000014031623168014031606420FDF7A0FFF2
:102890007562306820433060306A204330627F1CAC
:1028A000152FD7D101B0F0BD0120C04308490A6AF5
:1028B00002400A620A6802400A6001B0F0BDC046E8
:1028C000626173696320746F6E652E0A0D000000EB
:1028D0000020004010000020283200089A999999A1
:1028E0009999E93F08490A68120608D40A6812064D
:1028F00005D40A68120602D40A681206F3D5034A00
:1029000002408A817047C0461C440040FF0100001D
:102910000FB410B503A9044B044A029800F0E8F87C
:1029200010BC08BC04B01847A91E00080000002015
:102930002021020C01D010211046020A01D01046BD
:102940000839020901D01046091F820801D010463B
:10295000891E420801D0881E7047081A704702E09D
:1029600008C8121F08C1002AFAD17047704700201A
:1029700001E001C1121F002AFBD17047F0B51FB45E
:1029800086B00998089A030D0021024314D05148DB
:10299000514A1818504305141198012810981AD05C
:1029A000281A401C00264D4F4D4900960191049075
:1029B000002812DA444211E01198012449A30128A9
:1029C00001D11098C1430698119A84600360C260D7
:1029D00041600BB0F0BD4042E4E704462105002011
:1029E0003F4A001C51410391029012E0E00707D0DA
:1029F00032463B4601990098FDF78CFB019100900F
:102A000032463B4610461946FDF784FB06460F4604
:102A10006410002CEAD10498039B0028029A0999BB
:102A2000089806DAFDF776FB019B009AFDF772FB2A
:102A300005E0FDF7D7FB019B009AFDF7D3FB0446A9
:102A40000E460022284BFDF773FE03D80020C0433A
:102A5000014607E00022254B20463146FDF796FD52
:102A6000FDF746FE102409E0002C0ADB0A220023B1
:102A7000FDF7ABFC079B30321A55641E02460A4331
:102A8000F2D11122641C079B121B1C19119B012BF4
:102A900003D0012308430ED10AE0084304D01120DB
:102AA00010900020119077E71098151A6D1E0BE01A
:102AB0001098824202DD00236D1C03E0824201DA9D
:102AC00000236D1E002BEED0069811998260C16024
:102AD00030C07EE701FCFFFF104D000000001440F5
:102AE0000000F03F300000000000F0430000E03F35
:102AF000FFB597B00646002518E2252877D10024B7
:102B00002746FD49049400E00443761C32780120F6
:102B1000203A90400842F7D130782A280ED002227D
:102B2000307801463039092916D804990A235943C7
:102B3000303940181443761C0490F1E7189802C805
:102B400004911890002904DA01204003044348420C
:102B5000049002200443761C30782E2814D10420DF
:102B600004437078761C2A2809D11898761C80C8EE
:102B7000189009E00A214F43303FC719761C30787E
:102B8000014630390929F5D930786C2810D006DC97
:102B90004C281AD068280ED06A2817D104E074286F
:102BA00013D07A2812D110E00120400504430CE034
:102BB0000121090501E0032109050C4371788142D7
:102BC00003D1012000052418761C761C3078119062
:102BD00066280BD013DC58287DD009DC00287BD078
:102BE0004528F6D04628F4D047281AD1A5E118E0A8
:102BF000632835D0642870D0652812D19DE17028F3
:102C00006CD008DC6728F1D069287BD06E280DD005
:102C10006F2806D1BAE073282ED0752871D0782895
:102C200059D01A9A199990476D1C7EE16002400FA5
:102C3000022809D003280DD00428189801680DD067
:102C40000D60001D189070E11898EA1701680D607A
:102C50004A60F6E7189801680D80F2E70D70F0E71A
:102C600018986A4601781172001D18900020507261
:102C700002A80090012005E0189802C818900020D2
:102C80000091C04361070DD5002101E00199491C65
:102C90000191B94212DA8142F8DB009A515C0029B5
:102CA000F4D10BE0002101E00199491C019181421E
:102CB000FADB019A0099895C0029F5D10199049801
:102CC0001A9B471A21463846199A00F097FA01993B
:102CD000401945180BE04FE02CE113E04EE000985E
:102CE00000990078491C00911A9A19999047019807
:102CF000401E0190401CF2D1214638461A9B199A79
:102D000010E137E00A200021009001916002410F9C
:102D1000022907D0189A01CA1892C21794460329AB
:102D200008D00AE01898C01DC108C90005C918914B
:102D3000944607E000B2C2179446042902D140B27B
:102D4000C1178C4600226146944506DA0A460021E6
:102D5000404291418C462D2102E0210504D52B21D2
:102D60006A461173012103E0E10701D02021F7E752
:102D7000029155E00A200AE0102008E0102000909F
:102D80000021042004430191082703E008200021CA
:102D9000019100906002410F022907D0189A01CAE0
:102DA000189200229446032908D008E01898C01D04
:102DB000C108C90005C91891944603E080B20429EE
:102DC00000D1C0B200210291210729D511997029A3
:102DD00006D0009A1021019B4A401A4305D00EE00C
:102DE00040216A461173012108E06146014306D083
:102DF00030216A4611731199517302210291009A90
:102E00000821019B4A401A430AD16146014301D17E
:102E1000610705D530216A46117301217F1E029199
:102E20001199582904D035A10E910DA90D910DE0ED
:102E300037A1F9E76146019B009AFDF7C6FA0E9BA0
:102E40008C469B5C0D9A521E0D9213706146014395
:102E5000F0D10D9805A9081A20300190600703D51C
:102E600001200004844300E001270198874201DD2E
:102E7000381A00E0002001990090411802980918C2
:102E80000498401A0490E00306D421461A9B199A2C
:102E9000049800F0B3F94519002706E003A81A9A30
:102EA000C05D199990476D1C7F1C02988742F5DB25
:102EB000E0030CD521461A9B199A049800F09EF95C
:102EC000451904E01A9A3020199990476D1C009911
:102ED000481E00900029F5DC08E00D980D99007857
:102EE000491C0D911A9A199990476D1C0199481E19
:102EF00001900029F1DC63E109280100303132330F
:102F00003435363738396162636465660000000025
:102F1000303132333435363738394142434445460F
:102F20000000000000F05AF94519761C307800289E
:102F300000D0E2E528461BB0F0BD600700D40627AC
:102F40001898C01DC108C90048680A680831C30F35
:102F5000DB071891190001D09CA108E0210501D5DB
:102F60009BA104E0E10701D09AA100E09AA14300EF
:102F700011985B08109165280CD006DC452809D013
:102F800046281DD0472841D141E0662818D067283F
:102F90003CD13CE00021112F01DB112000E0781C26
:102FA0000191009008A911A8FFF7E8FC1399059179
:102FB0000021119A15927F1C12980197009150E000
:102FC0000120C00703900120019008A9009711A8D3
:102FD000FFF7D4FC139A149905920022119B0092DA
:102FE00012981593059A0192002901D0104602E02B
:102FF000791C40180190381A01D5019804E040422C
:10300000401E0090781C0190C01B029043E0012FED
:1030100000DA01270021112F01DD112000E03846E0
:103020000191009008A911A8FFF7A8FC1399059138
:10303000119A0021129815920091019721070CD442
:103040000599B94201DB019900E00191012904DDF4
:10305000159A491E515C302906D0B84201DA011D8B
:1030600005DA0121029115E00199491EEDE70028DA
:1030700005DC0099411800910199091A03E0019AB1
:10308000411C914200DD01910099401A401C0290C0
:103090000120C0070390200706D4029901988142BD
:1030A00002DB0020C043029000206946C87707AFCA
:1030B000012103980337C907884224D002201190C8
:1030C0002B201290039800280CDA404203902D2008
:1030D000129007E00A210398FDF758F930317F1E5E
:1030E000039039701199481E11900029F2DC039861
:1030F0000028EFD1791E12980870307820210840FE
:103100004530BF1E387006A8C01BC01D0390109824
:103110000078002800D00120019941180298C017BA
:103120000918039809180498401A401E0490E003F7
:1031300006D421461A9B199A049800F05FF84519A5
:1031400010980078002803D01A9A199990476D1C9E
:10315000E00324D521461A9B199A049800F04EF8F2
:1031600045191CE00098002807DB00990598884263
:1031700003DD1598405C199901E0199930201A9ADD
:10318000904700986D1C401C00900298401E0290D1
:10319000002804D11A9A2E20199990476D1C019984
:1031A000481E01900029DDDC05E038781A9A7F1C62
:1031B000199990476D1C0399481E03900029F4DC6F
:1031C00021461A9B199A0498ACE600002D000000D5
:1031D0002B0000002000000000000000F8B50446AD
:1031E00000251E461746880404D405E039462020F1
:1031F000B0476D1C641EF9D52846F8BDFFB50446DE
:10320000002581B01E46C80301D5302700E02027E5
:10321000880404D505E038460399B0476D1C641E48
:10322000F9D5284605B0F0BD00000000FC02000002
:10323000A90200005F0200003D020000FE01000044
:10324000C6010000950100007E010000540100004D
:103250002F0100001E010000FF000000E30000003D
:10326000CA000000BF000000AA0000009800000093
:103270008F00000080000000720000006500000068
:103280000000000000000000010203040607080916
:1032900000000000010203040203040506070809F8
:1032A0000A0B0C0D0E0F101001020304050607088F
:1032B000090A0B0C0D0E0F100000000004000000A6
:1032C000080000000200000074656D706572617492
:1032D000757265203D2025302E3266200A0D00686B
:1032E000756D6964697479203D2025302E32662021
:1032F0000A0D000A0D74696D65203D202564206D5E
:1033000073200A0D00646174612076616C7565201C
:103310003D202578200A0D00636865636B2070618D
:10332000726974792076616C7565203D202578205E
:103330000A0D007061726974792076616C75652080
:103340002578200A0D0000006833000800000020E6
:10335000280000005E2900089033000828000020A3
:10336000780500006E290008000000000100000040
:103370000400000000127A00010203040506070899
:10338000090A0B0C0D0E0F1011121314150000007A
:04000005080000C12E
:00000001FF
