:020000040800F2
:10000000B0050020D5000008AF120008AD120008AE
:1000100000000000000000000000000000000000E0
:100020000000000000000000000000006B2300083A
:100030000000000000000000B11200086D2300085D
:10004000E7000008E7000008E7000008E7000008F4
:10005000E700000829020008E7000008E7000008A0
:10006000E7000008E7000008E7000008E7000008D4
:10007000E7000008E7000008E7000008E7000008C4
:10008000E7000008E700000879230008E7000008FF
:10009000E7000008E7000008E7000008E7000008A4
:1000A000E7000008E7000008E7000008E700000894
:1000B000E7000008E7000008E7000008E700000884
:1000C0000348854600F076F8004800476529000897
:1000D000B00500200448804704480047FEE7FEE7DB
:1000E000FEE7FEE7FEE7FEE775230008C100000813
:1000F000D2B201E00270401C491EFBD270470022C0
:10010000F6E710B513460A4604461946FFF7F0FF16
:10011000204610BD70B50446002903D000202022DF
:10012000012310E0002801D00020C043C046C04693
:100130000DE02546D5408D4205D30D469540641B04
:100140001D46954040191546521E002DF1DC2146F2
:1001500070BDF0B51FB40646002082B005464024AD
:10016000019100901BE0019922460F46304600F0B5
:1001700049F8049A059B801A994110D310461946F4
:10018000224600F02FF8361A8F41019722460120AF
:100190000021009F00F026F838184D4100902046BD
:1001A000641E0028DFDC019B00982946324607B018
:1001B000F0BD00001CB509480090094801900546B3
:1001C0000126009C05E0E36807CC33430C3C9847CC
:1001D0001034AC42F7D3FFF777FF0000CC310008B2
:1001E000EC31000810B5202A04DB0146203A91408A
:1001F000002010BD914020239C1A0346E340194380
:10020000904010BD10B5202A04DB0846203AD040AB
:10021000002110BD0B46D340D0402024A21A9140AB
:100220000843194610BD000010B50A4C2068C007ED
:100230000ED009480068C00703D102F015FB012069
:1002400000E0002005490870206801210143216079
:1002500010BDC0461404014010000048600000209A
:10026000B0B5044600F0E2F80546601C02D0F44840
:100270000078041900F0DAF8401BA042FAD3B0BDB0
:10028000F0B58BB006900C68002C00D1BDE0604842
:10029000069A824201D0052000E004201723DB06E5
:1002A000069AD2180A23DA410192042A00D3019057
:1002B00006982030009000263546334609912246A4
:1002C0000BE03C43089E14605B1C0A681046D84053
:1002D000361DAD1C002800D197E0012007469F4045
:1002E0003A40F1D00490089603200446AC400295B1
:1002F000E54349680E460640741E012C0592079599
:10030000039110D8069A90682840099CE468029DE1
:10031000AC4004439460C806C00F98405468BC4386
:100320000443546006E0032E029D03D10646059F58
:10033000039C1FE0069AD0680799084009998C68C9
:10034000AC400443D460022E059F039C12D11C20B4
:10035000089908400F218140DC08A400009A165932
:100360008E43099F39698140314311517C68059F53
:1003700003262640AE4006990868079A104030438D
:100380000860A003800F0999089E049A9CD0B74981
:10039000086810430860086810400A900C2030403C
:1003A0000F21814003241E46A6430A9C1A4AB458D2
:1003B0008C43019981402143B1500999154A9668AF
:1003C0004868C4020FD53E439660D66884020FD4B5
:1003D000BE43D660566884030FD4BE43566014688B
:1003E000C00310D56DE7BE439660D6688402EFD592
:1003F0003E43D66056688403EFD53E43566014688A
:10040000C00300D55DE7BC435CE70BB0F0BDC04660
:10041000001000480004014008000140002A02D0FA
:100420001822815070472822815070476D4800681B
:100430007047C046B0B50246034640335C780220A0
:10044000202C17D11C78012C14D02420587010684F
:1004500002680124A24302602203056895430560F7
:1004600002680A430260016821430160002018709D
:1004700020215970B0BDB0B50246034640335C78C8
:100480000220202C17D11C78012C14D02420587065
:10049000106802680124A24302600F22120205685C
:1004A000954309022943016001682143016000204E
:1004B000187020215970B0BDF0B581B0002822D04D
:1004C000054640356978002905D100212970044688
:1004D00000F04CF820462421697001680B68012265
:1004E00093430B600F231B0644689C430C618C688C
:1004F0001C4B1C408C608468C668012E06D1D60354
:1005000034438C600CE0012001B0F0BD2127BF0214
:100510003C438C60022E03D1D4024E68264302E095
:10052000D4024E68A6434E604C680F4E26434E6080
:10053000CC681C40CC60036944691C4383691B027E
:100540002343CB60C369046A1C430C600B681343EC
:100550000B600021416420226A7001630846A97083
:1005600001B0F0BDFF7FFFFF00800002B0B586B094
:100570000021059104910391029101910068124AB2
:10058000904201D006B0B0BD104C20680125059501
:10059000AA041043206020681040009003911220AC
:1005A000029003200490000201900098084801A9DD
:1005B000FFF766FE6805A1680143A160A1680140DC
:1005C0000091009806B0B0BD0054004014100240E5
:1005D000000400481A48007802490A6810180860A8
:1005E0007047C046A801002010B5DD480168102200
:1005F0000A4302600024204600F004F800F022F8CC
:10060000204610BD70B504467D20C0000C4E3178E8
:10061000FFF780FD0146DA480068FFF77BFD00F038
:10062000EFFC0125032C08D8002806D10025E8435B
:1006300021462A4600F028F87460284670BDC0465E
:100640000400002082B009480168012211430160C2
:100650000168114001910199110742680A43426003
:10066000406808400090009802B07047181002409F
:10067000002805D41F210840012181400148016064
:100680007047C04600E100E0002805D4032203467D
:1006900093430A4A9A1803E00C220240064BD218F0
:1006A0008007C00E8901C9B28140FF2383401068D2
:1006B000984308431060704714ED00E000E400E048
:1006C000F0B587B004468078C0074C4F4FD001206A
:1006D000059001073A1F10680840049006D1106881
:1006E0000843106010680840069006980292039133
:1006F000434F3868C00512D4059806023868304365
:100700003860FFF793FE05463868304207D1FFF79F
:100710008DFE401B6428F7D9032007B0F0BD0320ED
:1007200001900002354F3968014012D062680240E2
:1007300091420ED00598000439683A6802433A6045
:100740003A6882433A6008462E4A10403860C8072B
:1007500045D138682B4908406168014339600498E5
:10076000002804D1029A1068039988431060216818
:10077000C8070AD1880710D4880617D488031DD467
:100780000020490523D407B0F0BD38690322904307
:10079000A26802433A618807EED5032000043A6953
:1007A0008243E068104338618806E7D53869102233
:1007B0009043226902433A618803E1D53869802277
:1007C0009043A26902433A6100204905DBD53969AB
:1007D0004022914362690A433A6107B0F0BDFFF7D6
:1007E00025FE05465F4E38688007B2D4FFF71EFE2F
:1007F000401BB042F7D9019807B0F0BD201002406D
:1008000000700040FFFCFFFFF0B581B0002842D02F
:100810000D460446524B186801210840A84208D2F0
:100820001A68012082432A431A601A680240AA42C9
:1008300051D120688207674E0CD5420704D50722A4
:1008400012023368134333603268F0239A43A3687B
:1008500013433360C00721D1414A11680120014090
:10086000A94205D91168814311601168C90732D1C5
:1008700021784907574F06D5072109023A688A436C
:10088000E168114339603B681907890F524A022910
:1008900012D2144655E0012001B0F0BD6268032A6F
:1008A00014D0022A4B4B0BD0181F012A15D1006817
:1008B000800308460FD514E003292CD1474C40E0B3
:1008C000181F00688001084605D50AE0414B186BE7
:1008D0008003084605D401B0F0BD006880070846D3
:1008E000F9D5186803210091884310431860FFF779
:1008F0009DFD06461B4F374800680C21014060688B
:1009000080008142A8D0FFF791FD801BB842F2D948
:10091000009801B0F0BD0321CD0399022B40090FCF
:100920002F4C645CB96A0F260E402E49895DAB429C
:1009300003D000048342104600E02848FFF7EAFB9A
:10094000444338680006000F0749085CC4400C485F
:10095000046000242046FFF755FE204601B0F0BD9C
:10096000002002408813000070310008044800682D
:10097000184909684905490F024A515CC840704747
:100980000C00002080310008B0B512490A68100739
:10099000830F1148022B02D3032B01D10F48B0BDA6
:1009A0000323DB0394021A40240F0D4D2C5D896A4A
:1009B0000F250D400B49495D9A4203D001231B04CA
:1009C0009A4200E00548FFF7A5FB01462046484350
:1009D000B0BDC0460410024000127A00006CDC0278
:1009E0008831000898310008F0B587B0044601202E
:1009F000002C00D13CE204902078C007F64E05940C
:100A00000CD071680C200140042900D08FE03068C0
:100A1000800303D56068002800D131E12078800789
:100A200021D570680007800F0ED070680C2101403E
:100A3000082900D098E00320C0037168014001201C
:100A4000C003814200D08FE030688007059C03D549
:100A5000E068012800D013E13068F821884321695B
:100A6000C90001433160059C2078000724D4207818
:100A7000400736D42078C00600D4CEE0706B0599CC
:100A800049694A1D00D1BDE0012900D03EE10421A1
:100A900008437063706B012101437163FFF7C6FC6B
:100AA0000546706B800700D5AFE0FFF7BFFC411B28
:100AB00003200229F5D9DBE1706AE16900297ED0C3
:100AC000012108437062FFF7B1FC0546706A800798
:100AD000CDD4FFF7ABFC401B0228F7D9032007B0A9
:100AE000F0BD012003900107F0690840029006D193
:100AF000F0690843F061F06908400690069801919A
:100B0000DC4F3868C00546D4039804023868204397
:100B10003860FFF78BFC0546386820423BD1FFF771
:100B200085FC401B6428F7D9032007B0F0BD71682D
:100B30000140082908D10320C00371680140012049
:100B40000004814200D162E76268306801214F04ED
:100B5000002A00D129E1052A00D11FE1012A00D095
:100B60003CE1090408433FE13068059CE168002945
:100B700037D0012108433060FFF758FC0546306844
:100B8000800700D568E7FFF751FC401B0228F6D923
:100B9000032007B0F0BD05988168306AB64F002980
:100BA00000D1DDE0052900D1C5E0012900D1C6E072
:100BB000039988433062306A04218843C1E00121EF
:100BC00088437062FFF732FC0546706A800700D4E4
:100BD0004DE7FFF72BFC401B0228F6D9032007B096
:100BE000F0BD012188433060FFF720FC05463068E6
:100BF000800700D437E7FFF719FC411B03200229C7
:100C0000F5D935E1042188437063706BF82188437E
:100C100005998969C90001437163059800788006C8
:100C20000BD571680C2001400C294DD1706B8003ED
:100C300003D50598006A012822D10598446A002C42
:100C40001BD070680C21014008291CD1012C17D041
:100C50000320C20370680240F16A059CA36A9A42AD
:100C60000ED10F221140236B994209D19104084003
:100C7000E16A8842049800D0FAE0002007B0F0BD95
:100C8000049807B0F0BD0120020631680492914338
:100C900031604706FFF7CAFB0546022C0AD13068CF
:100CA000384200D1C3E0FFF7C1FB411B03200229FA
:100CB000F5D9DDE030683842DFD0FFF7B7FB411BE4
:100CC00003200229F6D9D3E071680140082905D133
:100CD0000320C003716801408142A7D0706B059961
:100CE000096A002900D18FE001210A0410437063D2
:100CF0004C04FFF79BFB0546706B20429DD1FFF72C
:100D000095FB411B03200229F6D9B1E004210843D9
:100D10007063706B012188437063FFF787FB0546A2
:100D2000706B800700D478E7FFF780FB411B03203E
:100D30000229F5D99CE0042108433062306A039906
:100D400008433062FFF772FB0546306A80071BD408
:100D5000FFF76CFB401BB842F7D9032007B0F0BD8A
:100D6000039988433062306A042188433062FFF778
:100D70005DFB0546306A800706D5FFF757FB411B30
:100D80000320B942F6D973E002980028059C00D0F0
:100D900070E6F06901998843F0616BE68A041043BC
:100DA00030600904306808431EE00A049043306054
:100DB0008804316881433160FFF738FB0546059CA4
:100DC0003068384200D129E6FFF730FB411B032091
:100DD0006429F5D94CE0C046001002400A04904353
:100DE00030608904306888433060FFF71FFB054698
:100DF0003068384200D011E6FFF718FB401B64282A
:100E0000F6D9032007B0F0BD01210A0490437063B6
:100E10004C04FFF70BFB0546706B204200D10CE73A
:100E2000FFF704FB411B03200229F5D920E0F06AFB
:100E30000F218843059A116B0143F1627B20C003A7
:100E400071688143D06A0843916A014371603068D8
:100E5000049908433060FFF7E9FA044630683842E5
:100E600000D00AE7FFF7E2FA011B03200229F5D9B7
:100E700007B0F0BD0070004088130000F0B585B0E9
:100E800000280AD005465C3541218E00416A0029C0
:100E900006D000210161142106E0012005B0F0BD5B
:100EA0004168B14202D01C210022425000278762D3
:100EB0006978002905D100212970044600F05AF80C
:100EC0002046022104950191697001680A68402357
:100ED0009A4303910A60C268254B01259A422B462A
:100EE00000D33B461B03ED0215430F273902029145
:100EF0008D4201D0002585624568876835402124F0
:100F0000A4023C406419056901990D4025434169DB
:100F1000012421402943FC3687693E400E43C169C4
:100F200038250D403543016A80260E402E4361036B
:100F3000856A0D403543039E3560390C04250D400C
:100F400002990A4013432B43416A10220A401A4374
:100F5000416B08230B4013437360E102F2698A433B
:100F6000F26100210166084604994C7005B0F0BD9D
:100F700001070000F0B587B000250695059504959A
:100F80000395029500681C49884201D007B0F0BD66
:100F900001210A03C4484368134343604368134074
:100FA0000193019A4A0403681343036003681340E2
:100FB0000193019A890402680A43026000680840AC
:100FC000019001980695032605960495022703973C
:100FD000C02002900920C00602AC2146FFF750F95C
:100FE000069505960495039708200290034821462C
:100FF000FFF746F907B0F0BD00300140000400489B
:10100000401E010E01D0012070470749074A506079
:10101000074803680B400321890759180160002025
:101020009060072111607047FFFFFF0010E000E0B3
:1010300020ED00E010B53C22825C012A01D10220A3
:1010400010BD02463C32022353700068436870248E
:10105000A3430C681C4383684460484CA04207DCEF
:101060000124A407A04209D0434CA04206D00AE0C4
:10107000464CA04202D03F4CA04204D18024A3435E
:10108000496819438160002010700121517010BD22
:1010900070B5002829D005463C356978002905D16E
:1010A00000212970044600F077F82046022169707B
:1010B0000268166801218C07A24205D02D4B9A4286
:1010C00002D02D4B9A4219D170239E43836833433B
:1010D0002A4EB24216DD2A4CA24208DC254CA2421E
:1010E00018D02A4CA24215D042E0012070BD254CF8
:1010F000A2420FD0244CA2420CD039E033461F4EFE
:10110000B242E8DCA24205D01B4CA24202D0204CE5
:10111000A2422DD103242402A34304691C4380234B
:101120009C43836923431360C368D362436893621B
:10113000184BD3180A24E341072B06D80C469C40D1
:10114000E1231C4201D04069106351611069C0075E
:1011500002D0106988431061A972A970E9702971E1
:101160006971A971E971297269726970002070BD95
:101170001C46D4E7002C014000040040FF2B014036
:10118000FF4301400048014000440140004001404D
:101190000020004000D4FEBF10B582B000680C49AA
:1011A000884201D002B010BD0A48016820221143D4
:1011B0000160006810400190019812240221002271
:1011C0002046FFF761FA2046FFF752FA02B010BD41
:1011D000001400401C100240B0B500281DD0044689
:1011E000C06F002805D1782000212154204600F04E
:1011F0002BF82420E067206801680125A9430160DD
:10120000606A002802D0204601F0CAF8204601F0AA
:1012100099F9002803D02846B0BD0120B0BD0920AF
:10122000C00221684A6882434A6088682A22904343
:1012300088600868012202430A60204601F01AF91A
:1012400005462846B0BD000080B586B00021059156
:1012500004910391029101910068124A904201D0D9
:1012600006B080BD10488268012305935B041A43D1
:10127000826082681A400092009A02681A430260F3
:1012800000681840009004910391022002900C2005
:1012900001900920C006009901A9FEF7F1FF06B0F0
:1012A00080BDC0460044004014100240FEE7FEE747
:1012B0007047000070B55D48026810218A430260E3
:1012C0005B4A13689B0708D413689B0705D413680F
:1012D0009B0702D413689B07F3D5A82313711468E6
:1012E000E40708D11468E40705D11468E40702D1C3
:1012F0001468E407F3D014791468A40708D41468B8
:10130000A40705D41468A40702D41468A407F3D56D
:10131000002414711568ED0708D11568ED0705D193
:101320001568ED0702D11568ED07F3D01579066849
:101330000E430660AD0700D070BD05688D430560A3
:101340001568AD0708D41568AD0705D41568AD0755
:1013500002D41568AD07F3D513711368DB0708D104
:101360001368DB0705D11368DB0702D11368DB07BD
:10137000F3D0137913689B0708D413689B0705D42F
:1013800013689B0702D413689B07F3D51471136885
:10139000DB0708D11368DB0705D11368DB0702D12F
:1013A0001368DB07F3D0137904680C430460046806
:1013B0008C4304601468A40708D41468A40705D4F7
:1013C0001468A40702D41468A407F3D52824147160
:1013D0001468E40708D11468E40705D11468E40729
:1013E00002D11468E407F3D014791468A40708D470
:1013F0001468A40705D41468A40702D41468A407C9
:10140000F3D50324234313711368DB0708D1136852
:10141000DB0705D11368DB0702D11368DB07F3D0C4
:10142000127902680A43026070BDC0461400004889
:1014300008300140F0B581B0E0490868102630431B
:101440000860DF4F38680125A84338603224204601
:10145000FEF706FF38682843FC4D38602046FEF74B
:10146000FFFE2868B0432860F94C2068800708D444
:101470002068800705D42068800702D42068800790
:10148000F3D5022020712068C00708D12068C0076A
:1014900005D12068C00702D12068C007F3D02079A9
:1014A0002068800708D42068800705D4206880075A
:1014B00002D420688007F3D50F2020712068C00770
:1014C00008D12068C00705D12068C00702D1206874
:1014D000C007F3D020792868304328603220FEF717
:1014E000BFFE2868B04328602068800708D42068C1
:1014F000800705D42068800702D420688007F3D5D0
:10150000542020712068C00708D12068C00705D189
:101510002068C00702D12068C007F3D02079206876
:10152000800708D42068800705D42068800702D48B
:1015300020688007F3D58D2020712068C00708D16E
:101540002068C00705D12068C00702D12068C00705
:10155000F3D020792868304328602868B043286099
:101560002068800708D42068800705D42068800799
:1015700002D420688007F3D5562020712068C00768
:1015800008D12068C00705D12068C00702D12068B3
:10159000C007F3D020792068800708D4206880072E
:1015A00005D42068800702D420688007F3D53E2048
:1015B00020712068C00708D12068C00705D12068C5
:1015C000C00702D12068C007F3D0207928683043D3
:1015D00028602868B04328602068800708D4206805
:1015E000800705D42068800702D420688007F3D5DF
:1015F0005A2020712068C00708D12068C00705D193
:101600002068C00702D12068C007F3D02079206885
:10161000800708D42068800705D42068800702D49A
:1016200020688007F3D51E2020712068C00708D1EC
:101630002068C00705D12068C00702D12068C00714
:10164000F3D020792868304328602868B0432860A8
:101650002068800708D42068800705D420688007A8
:1016600002D420688007F3D5582020712068C00775
:1016700008D12068C00705D12068C00702D12068C2
:10168000C007F3D020792068800708D4206880073D
:1016900005D42068800702D420688007F3D5002095
:1016A00020712068C00708D12068C00705D12068D4
:1016B000C00702D12068C007F3D0207928683043E2
:1016C00028602868B04328602068800708D4206814
:1016D000800705D42068800702D420688007F3D5EE
:1016E0002A2020712068C00708D12068C00705D1D2
:1016F0002068C00702D12068C007F3D02079206895
:10170000800708D42068800705D42068800702D4A9
:1017100020688007F3D5402020712068C00708D1D9
:101720002068C00705D12068C00702D12068C00723
:10173000F3D020792868304328602868B0432860B7
:101740002068800708D42068800705D420688007B7
:1017500002D420688007F3D5222020712068C007BA
:1017600008D12068C00705D12068C00702D12068D1
:10177000C007F3D020792068800708D4206880074C
:1017800005D42068800702D420688007F3D53D2067
:1017900020712068C00708D12068C00705D12068E3
:1017A000C00702D12068C007F3D0207928683043F1
:1017B0002860FFF77FFD01B0F0BDC046140000486F
:1017C0001404004810B59A490B68102293430B602B
:1017D000430098480468A40708D40468A40705D403
:1017E0000468A40702D40468A407F3D58024234323
:1017F00003710368DB0708D10368DB0705D10368C1
:10180000DB0702D10368DB07F3D0037903689B078A
:1018100008D403689B0705D403689B0702D40368B8
:101820009B07F3D5002303710368DB0708D1036826
:10183000DB0705D10368DB0702D10368DB07F3D0C0
:1018400000790B6813430B6010BDC04614000048BC
:1018500008300140F0B587B00390754A1068102336
:1018600098431060734E3068800708D43068800752
:1018700005D43068800702D430688007F3D51A2079
:10188000029030713068C00708D13068C00705D1B8
:101890003068C00702D13068C007F3D030793068B3
:1018A000800708D43068800705D43068800702D4E8
:1018B00030688007F3D5072030713068C00708D141
:1018C0003068C00705D13068C00702D13068C00752
:1018D000F3D004A926200870307910681C461843FC
:1018E000106005AF00970C2001252A460B4600F03A
:1018F00065F8002850D1388810284DD14C49086827
:101900002246A04308603068800708D4306880070A
:1019100005D43068800702D430688007F3D5029878
:1019200030713068C00708D13068C00705D1306811
:10193000C00702D13068C007F3D03079039C30680B
:10194000800708D43068800705D43068800702D447
:1019500030688007F3D5002030713068C00708D1A7
:101960003068C00705D13068C00702D13068C007B1
:10197000F3D030790868104308602020607093200D
:10198000207006A800900C20022521462A462346F6
:1019900000F014F8002802D0284607B0F0BD2078E7
:1019A00061784140A0784840E17841402079081AA8
:1019B000411E88414500284607B0F0BDF0B588B00B
:1019C000069303461A4D28681027B8432860194E1D
:1019D0000D9801903068800708D43068800705D4DE
:1019E0003068800702D430688007F3D50420307156
:1019F0003068C00708D13068C00705D13068C0071B
:101A000002D13068C007F3D030793068800708D43D
:101A10003068800705D43068800702D430688007BA
:101A2000F3D508247F200C2B049005D0C04304E09C
:101A30001400004808300140E04330713068C007AE
:101A400008D13068C00705D13068C00702D13068BE
:101A5000C007F3D030792868384328602868B84335
:101A600028603068800708D43068800705D4306863
:101A7000800702D430688007F3D588200790307142
:101A80003068C00708D13068C00705D13068C0078A
:101A900002D13068C007F3D00594039330793068E1
:101AA000800708D43068800705D43068800702D4E6
:101AB00030688007F3D5002434713068C00708D13E
:101AC0003068C00705D13068C00702D13068C00750
:101AD000F3D030792B683B432B602B68BB432B60E2
:101AE00033689B0708D433689B0705D433689B078A
:101AF00002D433689B07F3D5059B33713368DB074A
:101B000008D13368DB0705D13368DB0702D13368BE
:101B1000DB07F3D0337933689B0708D433689B071E
:101B200005D433689B0702D433689B07F3D5049B25
:101B3000184030713068C00708D13068C00705D13F
:101B40003068C00702D13068C007F3D03079286808
:101B5000384328602868B84328603068800708D474
:101B60003068800705D43068800702D43068800769
:101B7000F3D59420009030713068C00708D13068E8
:101B8000C00705D13068C00702D13068C007F3D064
:101B900030793068800708D43068800705D4306811
:101BA000800702D430688007F3D534713068C007ED
:101BB00008D13068C00705D13068C00702D130684D
:101BC000C007F3D030792B683B432B602B68BB43B5
:101BD0002B6033689B0708D433689B0705D43368B0
:101BE0009B0702D433689B07F3D514233371336802
:101BF000DB0708D13368DB0705D13368DB0702D187
:101C00003368DB07F3D0337933689B0708D4336834
:101C10009B0705D433689B0702D433689B07F3D531
:101C200080230293184330713068C00708D13068B0
:101C3000C00705D13068C00702D13068C007F3D0B3
:101C400030792868384328602868B84328603068AD
:101C5000800708D43068800705D43068800702D434
:101C600030688007F3D50220059030713068C007D6
:101C700008D13068C00705D13068C00702D130688C
:101C8000C007F3D030793068800708D43068800707
:101C900005D43068800702D430688007F3D53471EA
:101CA0003068C00708D13068C00705D13068C00768
:101CB00002D13068C007F3D03079286838432860F3
:101CC000002A00D0C2E02868B84328603068800746
:101CD00008D43068800705D43068800702D43068A3
:101CE0008007F3D50598307103993068C00708D193
:101CF0003068C00705D13068C00702D13068C0071E
:101D0000F3D030793068800708D43068800705D474
:101D10003068800702D430688007F3D531713068AD
:101D2000C00708D13068C00705D13068C00702D1AC
:101D30003068C007F3D030792868384328600C2910
:101D400000D0BCE0286810218843286030688007F4
:101D500008D43068800705D43068800702D4306822
:101D60008007F3D59A2030713068C00708D13068F9
:101D7000C00705D13068C00702D13068C007F3D072
:101D800030793068800708D43068800705D430681F
:101D9000800702D430688007F3D5002030713068A6
:101DA000C00708D13068C00705D13068C00702D12C
:101DB0003068C007F3D030792A680A432A602A685D
:101DC0008A432A603268920708D43268920705D4A1
:101DD0003268920702D432689207F3D51A22327120
:101DE0003268D20708D13268D20705D13268D207EB
:101DF00002D13268D207F3D032793268920708D420
:101E00003268920705D43268920702D4326892078A
:101E1000F3D5029A104330713068C00708D130689A
:101E2000C00705D13068C00702D13068C007F3D0C1
:101E30003079286808432860312041E030792868EB
:101E400038432860641C944200D13CE7085D2B684D
:101E5000BB432B6033689B0708D433689B0705D4CA
:101E600033689B0702D433689B07F3D51223337181
:101E70003368DB0708D13368DB0705D13368DB073C
:101E800002D13368DB07F3D0337933689B0708D47A
:101E900033689B0705D433689B0702D433689B07DC
:101EA000F3D530713068C007C8D13068C007C5D1DC
:101EB0003068C007C2D13068C007F3D0BEE7012048
:101EC0007D210C012968B94329603168890708D44C
:101ED0003168890705D43168890702D431688907D8
:101EE000F3D5079931713168C90708D13168C9073D
:101EF00005D13168C90702D13168C907F3D03179FA
:101F00003168890708D43168890705D431688907A1
:101F100002D431688907F3D5002131713268D207C4
:101F200008D13268D20705D13268D20702D13268AF
:101F3000D207F3D032792B683B432B60641E230415
:101F400000D1BBE01042BDD02868B843286030689B
:101F5000800708D43068800705D43068800702D431
:101F600030688007F3D59A203071039C3068C00731
:101F700008D13068C00705D13068C00702D1306889
:101F8000C007F3D030793068800708D43068800704
:101F900005D43068800702D430688007F3D53171EA
:101FA0003068C00708D13068C00705D13068C00765
:101FB00002D13068C007F3D030792B683B432B60E7
:101FC0002B68BB432B6033689B0708D433689B079F
:101FD00005D433689B0702D433689B07F3D51A23D3
:101FE00033713368DB0708D13368DB0705D1336809
:101FF000DB0702D13368DB07F3D0337933689B0703
:1020000008D433689B0705D433689B0702D4336830
:102010009B07F3D5049B184030713068C00708D186
:102020003068C00705D13068C00702D13068C007EA
:10203000F3D030792868384328602868B84328608E
:102040003068800708D43068800705D4306880077E
:1020500002D430688007F3D58C2030713068C00717
:1020600008D13068C00705D13068C00702D1306898
:10207000C007F3D030793068800708D43068800713
:1020800005D43068800702D430688007F3D53171F9
:102090003068C00708D13068C00705D13068C00774
:1020A00002D13068C007F3D030792B683B432B60F6
:1020B0001B2318427FD0059808B0F0BD2968102076
:1020C000814329603168890708D43168890705D4BC
:1020D0003168890702D431688907F3D59A213171B3
:1020E0003168C90708D13168C90705D13168C90706
:1020F00002D13168C907F3D031793168890708D432
:102100003168890705D43168890702D431688907A5
:10211000F3D5002131713168C90708D13168C90789
:1021200005D13168C90702D13168C907F3D03179C7
:102130002A6802432A602A6882432A60326892072A
:1021400008D43268920705D43268920702D4326804
:102150009207F3D51A2232713268D20708D1326859
:10216000D20705D13268D20702D13268D207F3D044
:1021700032793268920708D43268920705D43268FF
:10218000920702D432689207F3D5049A1140317154
:102190003168C90708D13168C90705D13168C90755
:1021A00002D13168C907F3D0317929680143296028
:1021B000059808B0F0BD012002400C2C00D0D0E002
:1021C00007902868B84328603068800708D43068D2
:1021D000800705D43068800702D430688007F3D5C3
:1021E000009830713068C00708D13068C00705D149
:1021F0003068C00702D13068C007F3D0307930684A
:10220000800708D43068800705D43068800702D47E
:1022100030688007F3D531713068C00708D1306865
:10222000C00705D13068C00702D13068C007F3D0BD
:1022300030792B683B432B602B68BB432B603368A2
:102240009B0708D433689B0705D433689B0702D4E7
:1022500033689B07F3D5982333713368DB0708D1C4
:102260003368DB0705D13368DB0702D13368DB074E
:10227000F3D0337933689B0708D433689B0705D4C0
:1022800033689B0702D433689B07F3D531713368F9
:10229000DB0708D13368DB0705D13368DB0702D1E0
:1022A0003368DB07F3D034792B683B432B6007237B
:1022B0002340C400002B08D0E418083C019B1C807C
:1022C000012806D9102812D306E0019B1C800128A2
:1022D000F8D8079810280AD3384608E034792F68D0
:1022E0001F432F60069B5C54491C814239D02C68E7
:1022F00010239C432C603468A40708D43468A407D6
:1023000005D43468A40702D43468A407F3D5922412
:1023100034713468E40708D13468E40705D13468BF
:10232000E40702D13468E407F3D034793468A407B1
:1023300008D43468A40705D43468A40702D43468E8
:10234000A407F3D5002434713468E407C6D1346897
:10235000E407C3D13468E407C0D13468E407F3D09C
:10236000BCE70592059808B0F0BD704780B5FEF750
:1023700031F980BD7047000010B5074C2078002867
:1023800001D000F071FA6068401C60600348016889
:1023900001229143016010BD600000201014004034
:1023A000B0B5416A0A070CD4CA0714D18A071CD4F5
:1023B0004A0724D4CA062CD48A0634D44A063CD40C
:1023C0004CE00122D20303685C689443426B2243D1
:1023D0005A60CA07EAD00122520403685C68944339
:1023E000826A22435A608A07E2D5012212040368F6
:1023F0005C689443C26A22435A604A07DAD50122D4
:10240000920403685C689443026B22435A60CA06D4
:10241000D2D50122120303689C689443826B224345
:102420009A608A06CAD50122520303689C689443C5
:10243000C26B22439A604A0610D501221305026836
:1024400054689C43056C2C4354609D4206D1032381
:102450005B0554689C43436C23435360090607D5CE
:102460000121C904026853688B43806C1843506093
:10247000B0BD0000F0B583B00446064678360025AE
:10248000F560FDF7D3FF034620680168090721D5F1
:1024900002952B48009001256905002220461F4621
:1024A00000F0F8F8002812D0EFF3108085F31088C0
:1024B00021680A6880239A430A6080F31088032009
:1024C00020227C21029D6250357003B0F0BD20684F
:1024D0003B46029D0068400726D519480090012719
:1024E000B9050022204600F0D5F800281CD0EFF3F3
:1024F000108087F3108809214901226813688B43F3
:10250000136080F31088EFF3108087F31088216840
:102510008A68BA438A6080F31088032020228021D1
:102520006250357003B0F0BD2020E067B0602566D2
:1025300064212A4628466250357003B0F0BDC0467B
:10254000FFFFFF01B0B5044600680168474A0A4032
:10255000A16823690B4365691D431543E1690D4378
:1025600005600322120343689343E2681A43426002
:10257000A269236A13430B221202856895431D4307
:10258000856000223A4B984206DC3C4B984212D0C0
:102590003B4B984216D00CE0364B984212D0364A4C
:1025A000904206D1374800688007000F364A12581B
:1025B00008E0102206E033480068800B0C2202403D
:1025C000314882580125EB033048994210D1082A3E
:1025D00047D8C0467A4412795200974404422442B4
:1025E000194242422300FEF7C1F900281BD137E00F
:1025F000082A36D87A441279520097440432253298
:102600000E3232322400FEF7B1F900281CD127E047
:10261000FEF7BAF9002806D122E0FEF7B5F9002846
:1026200012D11DE01846400061684A081018FDF7F5
:1026300071FD0246103A16498A4212D20140000743
:10264000400F08430AE0184661684A081018FDF771
:1026500061FD014610390E4A914202D22168C860DC
:1026600000250020A066E0662846B0BDF369FFEFB4
:10267000FF4B0040004C0040003801400044004047
:102680000048004030100240A831000800127A00D3
:10269000F0FF0000F0B585B01F4615460E460368F2
:1026A000D9693140891B4A424A410021AA4222D1BC
:1026B0000A9C002C22D00391611C24D1D96931409D
:1026C000891B4A424A41AA4231D1D9693140891B0A
:1026D0004A424A41AA422AD1D9693140891B4A4219
:1026E0004A41AA4223D1D9693140891B4A424A4111
:1026F000AA42E3D01BE0084605B0F0BDFDF796FE08
:10270000032005B0F0BD402E049001D0802E14D1DE
:10271000FDF78CFEC01BA0420CD80498006801682D
:10272000C0693040801B41424141A942F0D003982A
:1027300005B0F0BD032005B0F0BD78300190012058
:102740000090C002029006E0C8693040801B414200
:102750004141A942EBD1FDF769FEC11B0320A14213
:102760003ED8049909680A685207EDD5CA6912076C
:1027700038D4CA69029B1A42E6D0029A0A62EFF381
:102780001082012181F3108809235B01049C2468D5
:1027900025689D43256082F31088EFF3108281F352
:1027A0001088049B1B689C688C439C60049B82F38C
:1027B00010881A6E012A0BD1EFF3108281F3108872
:1027C00019680B681024A3430B60049B82F31088E4
:1027D0002021019CA16000221A669A662270E160A5
:1027E00005B0F0BD08250D62EFF31081009880F36D
:1027F000108809225201049B1B681C6894431C60CA
:1028000081F31088EFF3108180F31088049A126826
:10281000936883439360049B81F31088196E0129A8
:102820000CD1EFF31081012282F310881A6813682B
:102830001024A3431360049B81F310882021019A84
:1028400091600021196699661170D56005B0F0BDE0
:1028500080B5044A914202D00020C04380BD00F000
:1028600017FA80BD00000020B0B5354C2146143960
:102870000868344A104308600868334B03400B6013
:102880000120430308681843086030482568AD07F5
:1028900015D42568ED0637D42568AD070FD4256813
:1028A000ED0631D42568AD0709D42568ED062BD493
:1028B0002568AD0703D42568ED06E7D524E00D2093
:1028C00020610868104308600868214A02430A60D2
:1028D0000868184308601F482168490719D421680F
:1028E000C90611D42168490713D42168C9060BD43D
:1028F000216849070DD42168C90605D42168490714
:1029000007D42168C906E7D500F0D8F93020606007
:10291000B0BDE068C1B210A000F0D0F92068800618
:1029200008D42068800605D42068800602D4206878
:102930008006F3D56168202008436060B0BDC046C2
:1029400018540040A0000100FFFBFFFDB831000853
:1029500000040002C231000876616C75653D256493
:102960000A0D00009CB0FDF73FFE0EAC201D302686
:102970003146FDF7C4FB01201690119022270E97D7
:102980000025179510201290099508950795069532
:10299000059504952046FEF727F8002803D0EFF3AD
:1029A000108072B6FEE702960D950C9503200B90F1
:1029B00007240A940AA801263146FDF725FF0028BE
:1029C00003D0EFF3108072B6FEE7019407950695E9
:1029D000039703A8FDF774FE002803D0EFF31080DF
:1029E00072B6FEE71295119510950F950E95344627
:1029F000F104884802680A43026002680A400392B0
:102A00000399B10502680A43026002680A40039212
:102A10000399710402680A43026002680A40039243
:102A20000399B10402680A430260006808400390F9
:102A300003980920C606304602992A46FDF7EEFCA7
:102A4000754821462246FDF7E9FC10952120000437
:102A50000F9060030E9071480EAF3946FDF710FCE1
:102A60001095312000040F900E9430463946FDF742
:102A700007FC119510950F9402980E903046394638
:102A8000FDF7FEFB119510950F940E9462483946A0
:102A9000FDF7F6FB0526032130462A46FDF7F4FD37
:102AA0003046FDF7E5FD5E480C214B277A025D4B71
:102AB000036042608560C560056141618561C561F3
:102AC00005624562FEF788FB002803D0EFF3108013
:102AD00072B6FEE754485549554A02604160856028
:102AE000C460056145618561C5610562FDF7E4FC6F
:102AF000002803D0EFF3108072B6FEE74A480021A9
:102B0000FDF798FC002803D0EFF3108072B6FEE7C3
:102B1000454800263146FDF7AEFC002803D0EFF310
:102B2000108072B6FEE7434D802028624248434A37
:102B3000B901AA60E9602E6168610F960E962F4672
:102B400008373846FEF7A4FA002803D0EFF31080C8
:102B500072B6FEE70EA93846FEF76CFA002803D0DD
:102B6000EFF3108072B6FEE734490868204308602E
:102B7000C8682043C8603248066246628662019A8D
:102B8000C262066346631821029112027D239C00F3
:102B900023460C332746F03F2A4982C00660426034
:102BA0008660C6600361029941610838FEF766F9E4
:102BB000002803D0EFF3108072B6FEE7214A506878
:102BC00044210143516010684021014311601EA05F
:102BD00000F074F8FEF72EFC3720FEF7F3FD0146F7
:102BE0001EA000F06BF823A602E02046FDF738FB9C
:102BF0002846FEF72FFE0028F7D1AB786A782978AF
:102C0000E8780090304600F059F82046FDF728FBA0
:102C1000EBE7C046141002400004004800080048DA
:102C2000200100200044004068000020261E5000C3
:102C300000540040100000200F2700000014004046
:102C4000BC0000200030014073656E736F7220631A
:102C50006F6E74726F6C0A0D0000000052433532C3
:102C6000322076657273696F6E20253032780A0DD6
:102C7000000000005549443A2025303278202530A4
:102C80003278202530327820253032780A0D000045
:102C900008490A68120608D40A68120605D40A68A8
:102CA000120602D40A681206F3D5034A02408A814A
:102CB0007047C0461C440040FF0100000FB410B52F
:102CC00003A9044B044A029800F018F810BC08BC91
:102CD00004B01847512800080000002002E008C88E
:102CE000121F08C1002AFAD170477047002001E086
:102CF00001C1121F002AFBD170470000FFB591B03F
:102D00000F460546002606E025280AD0149A139996
:102D100090476D1C761C28780028F5D1304615B0F8
:102D2000F0BD002400940121F34A029400E0044322
:102D30006D1C2B780846203B98401042F7D128782C
:102D40002A280ED0022128780246303A092A15D8BE
:102D5000009A0A235A43303A80180C436D1C0090A5
:102D6000F1E701CF0090002805DA01204003044379
:102D7000009840420090022004436D1C28782E28C1
:102D800015D10420044368786D1C2A280AD101CF8C
:102D90006D1C02900BE002990A2251433039401811
:102DA0006D1C02902878014630390929F3D928781A
:102DB0006C2810D006DC4C281AD068280ED06A285F
:102DC00017D104E0742813D07A2812D110E0012022
:102DD000400504430CE00121090501E00321090538
:102DE0000C436978814203D10120000524186D1C31
:102DF0006D1C287803906E281ED00CDC632831D01F
:102E000004DC00288AD0582811D1B2E064287BD095
:102E100069280CD178E073282DD004DC6F2870D09D
:102E2000702804D1A7E075286CD078286BD0149A4C
:102E300013999047761C62E06002400F022807D089
:102E400003280AD0042838680AD006603F1D56E0DF
:102E50003868F11706604160F8E738680680F5E7E2
:102E60000670F3E73878694608740020487404A8AF
:102E70000390012003E0386803900020C0433F1D09
:102E800061070FD5002101E00199491C029A0191C7
:102E9000914213DA8142F7DB019A0399895C002998
:102EA000F2D10BE0002101E00199491C019181421E
:102EB000FADB019A0399895C0029F5D10199009800
:102EC000139A401A00902146149B00F03BF9019997
:102ED0008019461807E0039803990078491C03916C
:102EE000149A139990470198401E0190401CF2D10A
:102EF0002146149B139A009800F014F986196D1C52
:102F000009E741E033E034E00A2000210490059114
:102F10006002410F022905D001CFC2179446032950
:102F200005D007E0FF1DFF08FF0003CF06E000B259
:102F3000C2179446042902D140B2C1178C46002220
:102F40006146944506DA0A460021404291418C468A
:102F50002D2102E0210504D52B216A46117601219D
:102F600003E0E10701D02021F7E7019154E00A20B6
:102F70000BE0102009E010200490002104200443FD
:102F800008200591029003E008200021059104909B
:102F90006002410F022905D001CF00229446032987
:102FA00006D006E0FF1DFF08FF0003CF8C4603E0BC
:102FB00080B2042900D1C0B20021019121072BD594
:102FC0000399702906D0049A1021059B4A401A43A0
:102FD00005D00EE040216A461176012108E06146E5
:102FE000014306D030216A461176039951760221B9
:102FF0000191049A0821059B4A401A430CD161466D
:10300000014301D1610707D530216A4611760121BC
:1030100001910299491E02910399582904D037A1C0
:1030200003910FA90F910DE039A1F9E76146059BC6
:10303000049AFDF78EF8039B8C469B5C0F9A521EF8
:103040000F92137061460143F0D10F9807A9081A37
:1030500020300390600704D50120000484430298C7
:1030600001E0012002900399884201DD401A00E04E
:10307000002041180290019809180098401A009009
:10308000E00306D42146149B139A009800F05AF8E6
:1030900086190020049008E006A9085C149A139988
:1030A00090470498401C761C049001998842F3DBF9
:1030B000E0030CD52146149B139A009800F042F8C7
:1030C000861904E0149A302013999047761C0299CF
:1030D000481E02900029F5DC08E00F980F9900784F
:1030E000491C0F91149A13999047761C0399481E16
:1030F00003900029F1DCFBE609280100303132336E
:103100003435363738396162636465660000000023
:10311000303132333435363738394142434445460D
:1031200000000000F8B5044600251E461746880436
:1031300004D405E039462020B0476D1C641EF9D543
:103140002846F8BDFFB50446002581B01E46C803D9
:1031500001D5302700E02027880404D505E0384653
:103160000399B0476D1C641EF9D5284605B0F0BD23
:103170000000000000000000010203040607080927
:103180000000000001020304020304050607080909
:103190000A0B0C0D0E0F10100102030405060708A0
:1031A000090A0B0C0D0E0F100000000004000000B7
:1031B00008000000020000006572726F7220310A80
:1031C0000D006572726F7220320A0D00F031000836
:1031D0000000002010000000DC2C00080032000875
:1031E00010000020A0050000EC2C000800000000EA
:1031F00000000000010000000400000000127A003E
:04000005080000C12E
:00000001FF
