:020000040800F2
:10000000A8070020D50000083F1F0008311E000887
:1000100000000000000000000000000000000000E0
:10002000000000000000000000000000431F000866
:100030000000000000000000411F0008451F0008EC
:10004000E7000008E7000008E7000008E7000008F4
:10005000E7000008E7000008E7000008E7000008E4
:10006000E7000008E7000008E7000008E7000008D4
:10007000E7000008E7000008E7000008511F00083B
:10008000611F0008711F0008E7000008E700000872
:10009000E7000008E7000008E7000008E7000008A4
:1000A000E7000008E7000008E7000008E700000894
:1000B000E7000008E7000008E7000008E700000884
:1000C0000348854600F0D6FA004800477924000826
:1000D000A80700200448804704480047FEE7FEE7E1
:1000E000FEE7FEE7FEE7FEE74D1F0008C10000083F
:1000F000D2B201E00270401C491EFBD270470022C0
:10010000F6E710B513460A4604461946FFF7F0FF16
:10011000204610BD70B502464A40D50F40004A0047
:10012000ED0740085208002814D0002A12D0C40D50
:10013000D30D41020120C0055202490A520AE41AB5
:10014000091812187D34914201D3641C00E0490063
:10015000002C01DA002070BD0023914201D3891ADE
:100160000343400849000028F7D100290AD09142F2
:1001700002D10121C90705E0914201D2012101E02C
:100180000121C943E005C018401900F06BF870BDAB
:1001900010B500229623114600F06CF810BDC20F76
:1001A000D207400040080BD0C10D0723DB01C9185E
:1001B00040020905400A1143C20840071143704735
:1001C00000200146704770B50446002903D0002086
:1001D0002022012310E0002801D00020C043C046A7
:1001E000C0460DE02546D5408D4205D30D469540CD
:1001F000641B1D46954040191546521E002DF1DC2A
:10020000214670BDF0B51FB40646002082B00546F9
:100210004024019100901BE0019922460F46304690
:1002200000F050FA049A059B801A994110D31046A9
:100230001946224600F036FA361A8F4101972246B7
:1002400001200021009F00F02DFA38184D41009048
:100250002046641E0028DFDC019B009829463246B8
:1002600007B0F0BD002904DA401C490001D1400864
:100270004000704770B40024050C05D11024000420
:1002800002D1002921D01124050E01D10002083429
:10029000050F01D10001241D850F01D18000A41C90
:1002A000002801DB4000641C002908D020252E1BFB
:1002B0000D46F540A14000D0012129430843010625
:1002C0001B1B000ADB1D02D5002070BC7047DB053C
:1002D000181880180029F8DA401C4900F5D170BCC4
:1002E0004008400070470000F0B5074608465840F7
:1002F00087B0C00F049048000E46590040084908D6
:10030000BC1A884105D2384631461E4617460B4670
:1003100002465800400810434CD0300D0390400571
:100320005900400D490D0590401A0290402872DA9C
:1003300018030121000B090508430190049800925D
:10034000002805D001995242002088410092019076
:10035000029840210A1A0199009800F0A3F9054675
:100360000C466B4607CB00F0BEF9C0197141039AE9
:100370000E0D0023D71756401A467A40164344D034
:10038000049A002A2DD0029A012A039A15DC12053C
:10039000C01A914101263605001C7141D20F059EFD
:1003A000D2070093019202962A46234600F0BBF939
:1003B00007B0F0BD38463146FAE71605224A0F4627
:1003C000B218C01AB74101210905001C4F4100189D
:1003D0007F41114618187941E20F10436D196441AD
:1003E00013E0E2076D0815436408C2071443039A3B
:1003F00001261205C01A91413605001C7141CE0735
:10040000400830434908C01851412A46234600F0AD
:100410007DF9CDE7FFE7049801224000C117121AC9
:1004200000238B4104983146C417381AA141EEE7E6
:1004300030B40124E407634030BC55E730B40124F4
:10044000E407614030BC4FE70000E0FFF0B51FB4A7
:1004500088B00B990998002448400999C00F4900B9
:1004600049080991C0070B990090490049080B9170
:1004700009990898A64608431CD00B990A98084386
:1004800018D0099801244000420D4800410D0998F8
:1004900024050003000B204309900B980003000B78
:1004A00020430B9050181C4940180022019014461C
:1004B000104605E0002001460DB0F0BD032801DA2A
:1004C000034600E003239C46C11A0AAE0AE05F001F
:1004D00008ADED5B4F00F75B7D430027AA187C4118
:1004E000491C5B1E6145F2DD410004AB5A522104F8
:1004F000120C0A43240C401C0828DFDB01980290F0
:100500000099704601910090059B049A07990698FE
:1005100000F009F9D0E700000DFCFFFFF0B50C4634
:100520005C4085B0E40FE40703944C0000266408A7
:1005300059009446490802460296224321D0624659
:100540000A431ED06200570D4A000E032303550DC7
:10055000012402462C492405781B1B0B360B40183E
:1005600023432643614600901C46501AB44103D3EE
:100570000098401C009002E0921800985B4100280F
:1005800003DA0020014605B0F0BD00200121090575
:100590000746864611E064461D46141BB54106D346
:1005A0006546521BB341744607430C43A646CD072C
:1005B00040084908284392185B4105460D43EAD19B
:1005C0001046184313D06046194650407140084306
:1005D00006D06046101AB34106D20122002306E07D
:1005E00000220123DB0702E00122D24353100098CE
:1005F00074460105381C6141029C039D0019694144
:1006000000F084F8BFE70000FD0300004A00090382
:100610000123090B1B0519430A4B10B5520D9A42D1
:1006200002DA0020014610BD064B34339A4203DC47
:100630009A1A00F047F810BD034BD21800F032F8B8
:1006400010BD0000FF030000CDFBFFFF10B5002927
:1006500004DB0124E40740428C412146002B04DBEB
:100660001C460123DB075242A341994200D190422C
:1006700010BD00001CB509480090094801900546CE
:100680000126009C05E0E36807CC33430C3C984707
:100690001034AC42F7D3FFF717FD00000834000810
:1006A0002834000810B5202A04DB0146203A914086
:1006B000002010BD914020239C1A0346E3401943BB
:1006C000904010BD10B5202A04DB0846203AD040E7
:1006D000002110BD0B46D340D0402024A21A9140E7
:1006E0000843194610BD10B5202A06DBCB17084673
:1006F000203A1041C1170B4306E00B461341D0408E
:100700002024A21A91400843194610BD10B5002BB1
:1007100008DA0024401C614192185B411A4301D160
:100720004008400010BDF0B51FB482B005460C0073
:1007300003D0084602F06EF902E002F06BF92030B7
:100740000246009021462846FFF7ACFF049B059A1D
:1007500004460F4618431143084314D0184610436B
:100760001BD0009840210A1A18460599FFF7AAFFE6
:1007700005460E46009A05990498FFF793FF084333
:1007800005D0012004E02046394607B0F0BD002026
:10079000C11705430E432C43374300990E98630558
:1007A000401A7905E40A00220C43FD0A0A3002D5FA
:1007B00000200146E9E70105101969410C9C0D9DD7
:1007C00000196941FFF7A2FFDFE70000B0B504465A
:1007D00000F0E2F80546601C02D08C48007804194D
:1007E00000F0DAF8401BA042FAD3B0BDF0B58BB0F0
:1007F00006900C68002C00D1BDE06048069A824249
:1008000001D0052000E004201723DB06069AD21849
:100810000A23DA410192042A00D30190069820307D
:100820000090002635463346099122460BE03C43B2
:10083000089E14605B1C0A681046D840361DAD1C2B
:10084000002800D197E0012007469F403A40F1D0B0
:100850000490089603200446AC400295E54349689D
:100860000E460640741E012C05920795039110D880
:10087000069A90682840099CE468029DAC400443B5
:100880009460C806C00F98405468BC430443546049
:1008900006E0032E029D03D10646059F039C1FE040
:1008A000069AD0680799084009998C68AC400443BF
:1008B000D460022E059F039C12D11C200899084089
:1008C0000F218140DC08A400009A16598E43099F2D
:1008D00039698140314311517C68059F03262640C8
:1008E000AE4006990868079A104030430860A0039C
:1008F000800F0999089E049A9CD04F4908681043BC
:100900000860086810400A900C2030400F21814098
:1009100003241E46A6430A9C1A4AB4588C430199E4
:1009200081402143B1500999154A96684868C4022C
:100930000FD53E439660D66884020FD4BE43D6607E
:10094000566884030FD4BE4356601468C00310D5A4
:100950006DE7BE439660D6688402EFD53E43D6600D
:1009600056688403EFD53E4356601468C00300D533
:100970005DE7BC435CE70BB0F0BDC046001000482B
:100980000004014008000140002A02D018228150D2
:100990007047282281507047054800687047C0465C
:1009A0001A48007802490A68101808607047C04663
:1009B000A401002010B5DD48016810220A4302603E
:1009C0000024204600F004F800F022F8204610BD74
:1009D00070B504467D20C0000C4E3178FFF7F3FB64
:1009E0000146DA480068FFF7EEFB00F02DFC012518
:1009F000032C08D8002806D10025E84321462A46C2
:100A000000F028F87460284670BDC0460800002039
:100A100082B0094801680122114301600168114058
:100A200001910199110742680A43426040680840F9
:100A30000090009802B0704718100240002805D4BA
:100A40001F21084001218140014801607047C046D4
:100A500000E100E0002805D40322034693430A4A3C
:100A60009A1803E00C220240064BD2188007C00EF1
:100A70008901C9B28140FF2383401068984308432D
:100A80001060704714ED00E000E400E0F0B587B0BE
:100A900004468078C0074C4F4FD0012005900107D5
:100AA0003A1F10680840049006D11068084310608F
:100AB000106808400690069802920391434F3868E8
:100AC000C00512D405980602386830433860FFF735
:100AD00063FF05463868304207D1FFF75DFF401BD2
:100AE0006428F7D9032007B0F0BD0320019000026D
:100AF000354F3968014012D06268024091420ED0F1
:100B00000598000439683A6802433A603A688243BB
:100B10003A6008462E4A10403860C80745D1386808
:100B20002B4908406168014339600498002804D1CA
:100B3000029A10680399884310602168C8070AD197
:100B4000880710D4880617D488031DD400204905CF
:100B500023D407B0F0BD386903229043A268024352
:100B60003A618807EED5032000043A698243E068C1
:100B7000104338618806E7D538691022904322690E
:100B800002433A618803E1D5386980229043A26923
:100B900002433A6100204905DBD53969402291437F
:100BA00062690A433A6107B0F0BDFFF7F5FE0546FA
:100BB0005F4E38688007B2D4FFF7EEFE401BB042AC
:100BC000F7D9019807B0F0BD201002400070004036
:100BD000FFFCFFFFF0B581B0002842D00D4604466F
:100BE000524B186801210840A84208D21A68012017
:100BF00082432A431A601A680240AA4251D12068EF
:100C00008207674E0CD5420704D5072212023368CB
:100C1000134333603268F0239A43A368134333606D
:100C2000C00721D1414A116801200140A94205D9DC
:100C30001168814311601168C90732D121784907D1
:100C4000574F06D5072109023A688A43E1681143E4
:100C500039603B681907890F524A022912D214469B
:100C600055E0012001B0F0BD6268032A14D0022AC9
:100C70004B4B0BD0181F012A15D100688003084682
:100C80000FD514E003292CD1474C40E0181F006811
:100C90008001084605D50AE0414B186B80030846E1
:100CA00005D401B0F0BD006880070846F9D5186882
:100CB00003210091884310431860FFF76DFE06463C
:100CC0001B4F374800680C2101406068800081425A
:100CD000A8D0FFF761FE801BB842F2D9009801B09E
:100CE000F0BD0321CD0399022B40090F2F4C645C0A
:100CF000B96A0F260E402E49895DAB4203D000042D
:100D00008342104600E02848FFF75DFA4443386804
:100D10000006000F0749085CC4400C48046000242A
:100D20002046FFF755FE204601B0F0BD00200240EE
:100D300088130000903300080448006818490968C7
:100D40004905490F024A515CC84070471000002015
:100D5000A0330008B0B512490A681007830F114884
:100D6000022B02D3032B01D10F48B0BD0323DB03B9
:100D700094021A40240F0D4D2C5D896A0F250D40F9
:100D80000B49495D9A4203D001231B049A4200E0BB
:100D90000548FFF718FA014620464843B0BDC04653
:100DA0000410024000127A00006CDC02D833000804
:100DB000E8330008F0B587B004460120002C00D1CC
:100DC0003CE204902078C007F64E05940CD0716880
:100DD0000C200140042900D08FE03068800303D547
:100DE0006068002800D131E12078800721D5706843
:100DF0000007800F0ED070680C210140082900D038
:100E000098E00320C003716801400120C0038142C3
:100E100000D08FE030688007059C03D5E06801288A
:100E200000D013E13068F82188432169C9000143EB
:100E30003160059C2078000724D42078400736D400
:100E40002078C00600D4CEE0706B059949694A1D30
:100E500000D1BDE0012900D03EE1042108437063C8
:100E6000706B012101437163FFF796FD0546706BBE
:100E7000800700D5AFE0FFF78FFD411B032002295B
:100E8000F5D9DBE1706AE16900297ED001210843D0
:100E90007062FFF781FD0546706A8007CDD4FFF7C9
:100EA0007BFD401B0228F7D9032007B0F0BD0120CD
:100EB00003900107F0690840029006D1F0690843E9
:100EC000F061F0690840069006980191DC4F38689F
:100ED000C00546D403980402386820433860FFF701
:100EE0005BFD0546386820423BD1FFF755FD401BAE
:100EF0006428F7D9032007B0F0BD716801400829C4
:100F000008D10320C0037168014001200004814220
:100F100000D162E76268306801214F04002A00D1E5
:100F200029E1052A00D11FE1012A00D03CE1090492
:100F300008433FE13068059CE168002937D0012172
:100F400008433060FFF728FD05463068800700D56C
:100F500068E7FFF721FD401B0228F6D9032007B000
:100F6000F0BD05988168306AB64F002900D1DDE0F8
:100F7000052900D1C5E0012900D1C6E003998843C5
:100F80003062306A04218843C1E0012188437062E5
:100F9000FFF702FD0546706A800700D44DE7FFF7B2
:100FA000FBFC401B0228F6D9032007B0F0BD01214D
:100FB00088433060FFF7F0FC05463068800700D4B6
:100FC00037E7FFF7E9FC411B03200229F5D935E19A
:100FD000042188437063706BF821884305998969FF
:100FE000C900014371630598007880060BD57168CC
:100FF0000C2001400C294DD1706B800303D505985E
:10100000006A012822D10598446A002C1BD0706820
:101010000C21014008291CD1012C17D00320C20348
:1010200070680240F16A059CA36A9A420ED10F22B1
:101030001140236B994209D191040840E16A88422A
:10104000049800D0FAE0002007B0F0BD049807B083
:10105000F0BD0120020631680492914331604706D9
:10106000FFF79AFC0546022C0AD13068384200D1BD
:10107000C3E0FFF791FC411B03200229F5D9DDE015
:1010800030683842DFD0FFF787FC411B032002297C
:10109000F6D9D3E071680140082905D10320C003C7
:1010A000716801408142A7D0706B0599096A0029D7
:1010B00000D18FE001210A04104370634C04FFF754
:1010C0006BFC0546706B20429DD1FFF765FC411B10
:1010D00003200229F6D9B1E0042108437063706B44
:1010E000012188437063FFF757FC0546706B80074A
:1010F00000D478E7FFF750FC411B03200229F5D903
:101100009CE0042108433062306A0399084330624E
:10111000FFF742FC0546306A80071BD4FFF73CFC12
:10112000401BB842F7D9032007B0F0BD03998843AC
:101130003062306A042188433062FFF72DFC054697
:10114000306A800706D5FFF727FC411B0320B94210
:10115000F6D973E002980028059C00D070E6F0698B
:1011600001998843F0616BE68A04104330600904FA
:10117000306808431EE00A049043306088043168F8
:1011800081433160FFF708FC0546059C3068384212
:1011900000D129E6FFF700FC411B03206429F5D9A3
:1011A0004CE0C046001002400A04904330608904BD
:1011B000306888433060FFF7EFFB054630683842FF
:1011C00000D011E6FFF7E8FB401B6428F6D90320A6
:1011D00007B0F0BD01210A04904370634C04FFF78F
:1011E000DBFB0546706B204200D10CE7FFF7D4FB18
:1011F000411B03200229F5D920E0F06A0F21884322
:10120000059A116B0143F1627B20C0037168814331
:10121000D06A0843916A01437160306804990843B9
:101220003060FFF7B9FB04463068384200D00AE767
:10123000FFF7B2FB011B03200229F5D907B0F0BD6F
:101240000070004088130000401E010E01D00120F4
:1012500070470749074A5060074803680B4003215D
:1012600089075918016000209060072111607047BC
:10127000FFFFFF0010E000E020ED00E07047704746
:1012800010B53C22825C012A01D1022010BD024629
:101290003C3202235370006843687024A3430C68F7
:1012A0001C4383684460474CA04207DC0124A40728
:1012B000A04209D0844CA04206D00AE0454CA0428E
:1012C00002D03F4CA04204D18024A3434968194373
:1012D0008160002010700121517010BD70B5002890
:1012E00029D005463C356978002905D100212970AF
:1012F000044600F075F820460221697002681668FD
:1013000001218C07A24205D02D4B9A4202D06E4B90
:101310009A4219D170239E4383683343294EB242C7
:1013200016DD294CA24208DC254CA24218D0294CDB
:10133000A24215D042E0012070BD244CA2420FD041
:10134000234CA2420CD039E033461E4EB242E8DCB8
:10135000A24205D0F74CA24202D01F4CA2422DD18E
:1013600003242402A34304691C4380239C43836910
:1013700023431360C368D36243689362174BD31847
:101380000A24E341072B06D80C469C40E1231C426B
:1013900001D04069106351611069C00702D0106923
:1013A00088431061A972A970E97029716971A971E6
:1013B000E971297269726970002070BD1C46D4E71A
:1013C000002C0140FF2B0140FF4301400048014039
:1013D00000440140004001400020004000D4FEBF16
:1013E00070B586B00024059404940394029401948B
:1013F00001683448814250D0CE48814227D0012034
:10140000820791425BD1019030490A6802430A6029
:101410000A6802400092009A400408390A680243B0
:101420000A60096801400091022005900494039429
:10143000029000980920C00601A9FFF7D7F90F25EF
:10144000284621462246FFF705FB284635E00221C3
:1014500002911E4802680A43026002680A40009234
:10146000009901256904083802680A43026000688F
:101470000840009005950494039440200190009842
:101480000920C00601A9FFF7B1F910263046294608
:101490002246FFF7DFFA30460FE00C4801681022C1
:1014A000114301600068104000900098112402214F
:1014B00000222046FFF7CEFA2046FFF7BFFA06B01B
:1014C00070BDC04600100040000400401C100240E7
:1014D000F0B53C22825C012A01D10220F0BD024617
:1014E0003C3202235370504E3346773B0468A06869
:1014F0001840A0600D6800234F2D1FDC1F2D36DD26
:10150000202D38D0302D36D0402D00D087E0206AF5
:10151000256A0126B5432562A569F026B543CE6844
:1015200036012E43A6610A25A8434968014321627A
:10153000A06847210143302081436AE06F2D26DDFA
:1015400001204703BD4257D00003854218461AD0F8
:10155000702D64D1A06830404D688E68C9682E43F4
:10156000090231430143A160A068772150E0002DBA
:1015700001D0102D53D1A068702188430543072066
:101580002843A0601846137001215170F0BD502D02
:101590001BD0602D43D1256A1020C043266A064027
:1015A00026620F263603A769B743CE6836033E434B
:1015B000A661A026B5434968090129432162A168B3
:1015C00067250D430540A56024E0206A256A0126B1
:1015D000B5432562A569F026B543CE6836012E4392
:1015E000A6610A25A843496801432162A0685721E2
:1015F0000143202081430CE0A56835404E688F6888
:10160000C9683743090239432943A1608003A168AF
:101610000143A1601846137001215170F0BD0120F3
:10162000137001215170F0BDFF00FFFFF0B581B0D4
:1016300005460068E049884213D00126B107884278
:1016400075D100242846214600F01AFB3B498A68E0
:10165000904214D22A68D26A82188B68D21A521C1D
:101660000FE0354E377800242846214600F008FB6D
:101670003249002F19D04861347001B0F0BD8A683A
:10168000821A4A608860487801281BD000284ED111
:1016900048682D4A90424AD348682C4A904246D81E
:1016A0004E700C70CC6001B0F0BD886188694A69E9
:1016B000904235D22868C06A4A69801A8A698018BF
:1016C000401C30E048688008E12806D348681C4A7E
:1016D000904202D8C86840080DE0486800097D289B
:1016E0001BD34868174A904217D8C8684008C8609A
:1016F000F207C8681043C8600878401C0870087872
:10170000202814D3C868CA68120E000CC0B250401A
:10171000FF2802D1C86808618E704C7001B0F0BD1E
:1017200088694A69801AC86101203070C87001B0A8
:10173000F0BDC04600040040140000201800002046
:1017400014050000C4090000C8320000B0360000D3
:10175000F0B582B03C23C35C012B02D1022002B061
:10176000F0BD03463C330224E241032A00D984E061
:101770007A44127952009744015C15360268146A63
:10178000156A012085431562CD68019560C90096F0
:101790009769C74E0839B24274DC8607B24277D0E7
:1017A000C64E73E00068026A01242402056AA5435C
:1017B00005624C68F025AC43CD682D01EDB22C19C3
:1017C000C569F326B5432543C561052464020D6848
:1017D0002D022540A24352190262C2690C24A24381
:1017E000C261896823E00068026A01242403056A53
:1017F000A54305624C682402354D2540CC6824037E
:10180000A4B26419F3252D02C669AE432643C6610E
:10181000052464030D682D032540A243521902627A
:1018200003229202C4699443C461896809021C308E
:1018300045E00068026A046A1025AC4304624C6803
:101840002402234D2540CC682403A4B26419F32557
:101850002D028669AE43264386610C682401A025CB
:101860002C40AA4312190262032292028469944313
:10187000846189680902183021E001200021197073
:1018800002B0F0BD8B4EB24202D08B4EB24202D1BA
:10189000032087430098074310461830F026B743CB
:1018A000019E3601F6B2BE1996610A263540B44350
:1018B0006419146294690C25AC43946189680268C8
:1018C0000A43026000200021197002B0F0BDC0463A
:1018D000000FFFFF70B5002829D005463C35697818
:1018E000002905D100212970044600F071F8204636
:1018F000022169700268166801218C07A24205D096
:101900006D4B9A4202D06D4B9A4219D170239E437F
:1019100083683343664EB24216DD284CA24208DC8F
:10192000654CA24218D0634CA24215D042E001207F
:1019300070BD234CA2420FD0224CA2420CD039E001
:1019400033465B4EB242E8DCA24205D05B4CA24279
:1019500002D01D4CA2422DD103242402A3430469CA
:101960001C4380239C43836923431360C368D36271
:1019700043689362154BD3180A24E341072B06D81A
:101980000C469C40E1231C4201D040691063516128
:101990001069C00702D0106988431061A972A9704C
:1019A000E97029716971A971E971297269726970A7
:1019B000002070BD1C46D4E700040040FF430140F6
:1019C00000480140004401400020004000D4FEBF18
:1019D0007047000070B5024603463E3301200029DF
:1019E00009D0042904D0082914D14424402513E047
:1019F00043243F2510E01D781C79641E661EB44107
:101A0000012D054600D12546002D4DD102241C7024
:101A10001C7119E045244125555D145D641E661E48
:101A2000B441012D054600D12546002D3CD10224AC
:101A3000082904D0042905D15C705C7104E09C7015
:101A40009C7101E0DC70DC7102240B46E341032B46
:101A50002AD89800154B1B581068C2681A43C260F8
:101A60001F221140012213468B40016A99430162F3
:101A7000016A194301620E49884206DC91078842D7
:101A800009D00E49884206D00AE00A49884202D0AD
:101A90000949884204D1816807230B40062B02D0F4
:101AA000016811430160002070BDC046A8330008E2
:101AB000FF2B014000400140002C01400004004089
:101AC000F0B585B004460068C5680227294639404C
:101AD0004A424A410169049139404B424B41134308
:101AE00080210291C9430391002B13D103997E31C8
:101AF0000161012121778069800703D02046FFF72B
:101B000095FD05E0204600F0B8F8204600F0B6F854
:101B100000202077012604222946114048424841EE
:101B200004994907314600D501460320000201907F
:101B3000002916D10092206803997C310161277732
:101B400080690199084203D02046FFF76FFD05E048
:101B5000204600F092F8204600F090F80020207710
:101B6000009A082729463940484248410499090704
:101B7000314600D50146002913D1206803997831F8
:101B800001612277C069800703D02046FFF74EFD30
:101B900005E0204600F071F8204600F06FF80020C4
:101BA000207710212940484248410499C90631460E
:101BB00000D50146002914D12068039970310161D4
:101BC0002777C0690199084203D02046FFF72EFD10
:101BD00005E0204600F051F8204600F04FF80020C4
:101BE000207701212940484248410499C9073146DC
:101BF00000D00146002906D1206803997F31016198
:101C0000204600F03CF80299294048424841049996
:101C10000906314600D50146002905D120680399FF
:101C200001612046FFF72AFB4021294048424841F4
:101C300004994906314600D50146002906D120689D
:101C4000039940310161204600F025F8202005402D
:101C5000684268410499890603D4002E04D005B077
:101C6000F0BD0646002EFAD120680399603101616B
:101C70002046FFF704FB05B0F0BD70477047704782
:101C80000222D141032904D8890000684018406B22
:101C90007047002070477047B0B500281DD004463B
:101CA000C06F002805D1782000212154204600F083
:101CB0002BF82420E067206801680125A943016012
:101CC000606A002802D0204600F060F9204600F04B
:101CD0002FFA002803D02846B0BD0120B0BD09204E
:101CE000C00221684A6882434A6088682A22904379
:101CF00088600868012202430A60204600F0B0F9BB
:101D000005462846B0BD000080B586B0002105918B
:101D100004910391029101910068124A904201D00E
:101D200006B080BD10488268012305935B041A4306
:101D3000826082681A400092009A02681A43026028
:101D400000681840009004910391022002900C203A
:101D500001900920C006009901A9FEF747FD06B0D1
:101D600080BDC0460044004014100240F0B585B06C
:101D70000A4606465B4D012428462146FEF704FE2E
:101D8000F006C20F042104912846FEF7FDFDA102D2
:101D90000391B006C20F2846FEF7F6FDE10202915C
:101DA0007006C20F2846FEF7EFFD21030191F209EC
:101DB0002846FEF7E9FD0227284639462246FEF767
:101DC000E3FD2046FEF702FD002200922846394638
:101DD000FEF7DAFD2046FEF7F9FC3246224028469F
:101DE0000499FEF7D1FDB007C20F28460399FEF70C
:101DF000CBFD7007C20F28460299FEF7C5FD3007DC
:101E0000C20F28460199FEF7BFFD284639462246F3
:101E1000FEF7BAFD2046FEF7D9FC28463946009A5F
:101E2000FEF7B2FD2046FEF7D1FC05B0F0BDC0467E
:101E3000FEE70000F0B581B03220FEF7C7FC294F65
:101E400001240025384621462A46FEF79DFD02263C
:101E5000384631462A46FEF797FD042138462A4681
:101E6000FEF792FDA10238462246FEF78DFDE10203
:101E700038462A46FEF788FD210338462A46FEF7F3
:101E800083FD384631462246FEF77EFD2046FEF7AA
:101E90009DFC384631462A46FEF776FD2046FEF781
:101EA00095FC2046FEF792FC28202946FFF75EFFAE
:101EB0002046FEF78BFC0C202946FFF757FF2046F3
:101EC000FEF784FC20462946FFF750FF3046FEF718
:101ED0007DFC06202946FFF749FF2046FEF776FCE9
:101EE00001B0F0BD0004004810B501242146FFF701
:101EF0003DFF2046FEF76AFC10BDB0B50178002911
:101F00000DD0451CC8B201242146FFF72FFF204603
:101F1000FEF75CFC681C297800290546F2D1B0BDAB
:101F200080B5002801D04020414080200843C0B245
:101F30000021FFF71BFF0120FEF748FC80BDFEE7F4
:101F40007047704780B5FEF72BFD80BD70470000DD
:101F500080B50248FFF7B4FD80BDC04640000020B8
:101F600080B50248FFF7ACFD80BDC0468800002068
:101F700004480168491C016003480168012291433B
:101F800001607047A001002010100040B0B5416A08
:101F90000A070CD4CA0714D18A071CD44A0724D4D0
:101FA000CA062CD48A0634D44A063CD44CE001221A
:101FB000D20303685C689443426B22435A60CA07A9
:101FC000EAD00122520403685C689443826A224387
:101FD0005A608A07E2D50122120403685C689443C0
:101FE000C26A22435A604A07DAD501229204036882
:101FF0005C689443026B22435A60CA06D2D5012220
:10200000120303689C689443826B22439A608A0699
:10201000CAD50122520303689C689443C26B2243D1
:102020009A604A0610D501221305026854689C4341
:10203000056C2C4354609D4206D103235B05546814
:102040009C43436C23435360090607D50121C9040F
:10205000026853688B43806C18435060B0BD000029
:10206000F0B583B00446064678360025F560FEF7E5
:1020700093FC034620680168090721D502952B4887
:10208000009001256905002220461F4600F0F8F85F
:10209000002812D0EFF3108085F3108821680A68B9
:1020A00080239A430A6080F31088032020227C2139
:1020B000029D6250357003B0F0BD20683B46029D22
:1020C0000068400726D5194800900127B90500226D
:1020D000204600F0D5F800281CD0EFF3108087F3DD
:1020E000108809214901226813688B43136080F32B
:1020F0001088EFF3108087F3108821688A68BA434C
:102100008A6080F31088032020228021625035707D
:1021100003B0F0BD2020E067B060256664212A4648
:1021200028466250357003B0F0BDC046FFFFFF0186
:10213000B0B5044600680168474A0A40A1682369AF
:102140000B4365691D431543E1690D430560032297
:10215000120343689343E2681A434260A269236A08
:1021600013430B221202856895431D4385600022AC
:102170003A4B984206DC3C4B984212D03B4B98427B
:1021800016D00CE0364B984212D0364A904206D117
:10219000374800688007000F364A125808E01022BE
:1021A00006E033480068800B0C2202403148825818
:1021B0000125EB033048994210D1082A47D8C04680
:1021C0007A4412795200974404422442194242420E
:1021D0002300FEF7B1FD00281BD137E0082A36D8CE
:1021E0007A44127952009744043225320E32323248
:1021F0002400FEF7A1FD00281CD127E0FEF7AAFD70
:10220000002806D122E0FEF7A5FD002812D11DE02E
:102210001846400061684A081018FDF7D4FF0246CE
:10222000103A16498A4212D201400007400F084373
:102230000AE0184661684A081018FDF7C4FF014615
:1022400010390E4A914202D22168C8600025002050
:10225000A066E0662846B0BDF369FFEFFF4B004083
:10226000004C00400038014000440040004800405D
:1022700030100240F833000800127A00F0FF00002E
:10228000F0B585B01F4615460E460368D969314042
:10229000891B4A424A410021AA4222D10A9C002CB1
:1022A00022D00391611C24D1D9693140891B4A4253
:1022B0004A41AA4231D1D9693140891B4A424A4137
:1022C000AA422AD1D9693140891B4A424A41AA42CD
:1022D00023D1D9693140891B4A424A41AA42E3D0FD
:1022E0001BE0084605B0F0BDFEF756FB032005B025
:1022F000F0BD402E049001D0802E14D1FEF74CFB8F
:10230000C01BA0420CD8049800680168C069304026
:10231000801B41424141A942F0D0039805B0F0BD75
:10232000032005B0F0BD7830019001200090C0027C
:10233000029006E0C8693040801B41424141A942F9
:10234000EBD1FEF729FBC11B0320A1423ED8049923
:1023500009680A685207EDD5CA69120738D4CA69F4
:10236000029B1A42E6D0029A0A62EFF31082012120
:1023700081F3108809235B01049C246825689D4330
:10238000256082F31088EFF3108281F31088049B9C
:102390001B689C688C439C60049B82F310881A6EB7
:1023A000012A0BD1EFF3108281F3108819680B68B2
:1023B0001024A3430B60049B82F310882021019C0E
:1023C000A16000221A669A662270E16005B0F0BD35
:1023D00008250D62EFF31081009880F31088092220
:1023E0005201049B1B681C6894431C6081F3108895
:1023F000EFF3108180F31088049A12689368834386
:102400009360049B81F31088196E01290CD1EFF3BE
:102410001081012282F310881A6813681024A343E4
:102420001360049B81F310882021019A91600021A0
:10243000196699661170D56005B0F0BD0D490A683E
:102440000B689B1A834213D200BF0B689B1A83420E
:102450000ED200BF0B689B1A834209D200BF0B68E3
:102460009B1A834204D200BF0B689B1A8342EBD3B2
:102470007047C046A0010020A2B0FEF79BFA14AD41
:10248000281D30242146FDF73AFE00271D97012024
:102490001C90202014900F970E970D970C970B9778
:1024A0000A972846FEF786FC002803D0EFF3108039
:1024B00072B6FEE713971297032011900720109031
:1024C00010A801263146FEF785FB002803D0EFF364
:1024D000108072B6FEE70C970225099509A8FEF751
:1024E000D5FA002803D0EFF3108072B6FEE705940A
:1024F000079518971797169715971497F104A948F9
:1025000002680A43026002680A4009920999B1050B
:1025100002680A43026002680A400992099971043C
:1025200002680A43026002680A4009920999B104EC
:1025300002680A430260006808400990099809206F
:10254000C4062221089120463A46FEF71DFAC148EA
:10255000BF493A46FEF718FA169721200004159055
:1025600070031490BF4814AD2946FEF73FF9179742
:102570001697159608981490089420462946FEF759
:1025800035F9179716971596B5481490B748294608
:10259000FEF72CF9C04D80242C64C04A2F23B007CD
:1025A000A8620693EB622F636A63AF63179716976F
:1025B00015971197109728352846FEF78FFE0028AB
:1025C00003D0EFF3108072B6FEE704943403149442
:1025D00014A92846FEF77CFF002803D0EFF31080F3
:1025E00072B6FEE703942846FFF774F9002803D07B
:1025F000EFF3108072B6FEE710A92846FEF740FE02
:10260000002803D0EFF3108072B6FEE704200C9090
:102610000A96079809900B9709A928463A46FFF7AA
:1026200097F8002803D0EFF3108072B6FEE7079505
:10263000A2480C21A24A076247624B235B028CC06E
:10264000076047608160C76007610C38FFF724FBB3
:10265000002803D0EFF3108072B6FEE7C648049955
:102660008161C6490160069941608760C149C160C6
:10267000076117971697159711971097FEF72EFE7B
:10268000002803D0EFF3108072B6FEE70398149091
:10269000B94814A9FEF71CFF002803D0EFF31080FF
:1026A00072B6FEE7B448FFF715F9002803D0EFF340
:1026B000108072B6FEE7B04810A9FEF7E1FD0028D1
:1026C00003D0EFF3108072B6FEE708200C900A9654
:1026D0000A2009900B97A84809A93A46FFF738F84D
:1026E000002803D0EFF3108072B6FEE7A4480499E7
:1026F0008161A44C04600699416087609D49C16076
:1027000015971497FEF7EAFD002803D0EFF3108029
:1027100072B6FEE79A4814A9FEF7B2FD002803D06E
:10272000EFF3108072B6FEE7206830432060E06867
:102730003043E060FFF77EFB002738463946FFF75D
:10274000EFFB91A0FFF7D9FB30463946FFF7E8FBD6
:102750008FA0FFF7D2FB07983946FFF73BF9864871
:102760003946FFF737F9824EB078002800D1B4E03F
:10277000B7703269316930693369120600D0ACE054
:102780007C4AFF3A1140914200D0A6E0000CC0B252
:10279000C01F532800D97BE0312503A14000085A0F
:1027A000400087441410024059006F005B00750020
:1027B0007500750061007500750075007500750085
:1027C000750075006500770075007D008300750059
:1027D0007500850075007500750075007500750041
:1027E0007500750075007500750075007500750041
:1027F0007500750075007500750075007500750031
:102800007500750075007500750075007500750020
:10281000750075007500750075006700750075001E
:1028200069006B0090006D008F00750075007500E9
:102830007500750075007500750075007500D8008D
:102840007500750075007500750075007500DE0077
:10285000071C000000040048372534E0392532E029
:10286000071C00000008004823252CE00004004855
:10287000382528E0352526E0362524E0342522E0D9
:10288000322520E001200821FFF74AFB49A022E081
:102890003F2518E02A2516E018000020FFFF000061
:1028A00001200821FFF73CFB44A014E0059D0AE04D
:1028B00001200821FFF734FB3CA00CE018010020A8
:1028C00000440040332501200821FFF729FB28465A
:1028D000FFF70AFB3BA0FFF710FBFEF75DF8716AFC
:1028E000401A3D2812D3FEF757F8706202250122E4
:1028F000089E30462946FEF747F80A20FFF79EFD5E
:10290000002230461A4E2946FEF73EF8F07800289D
:1029100000D129E7F770F069FDF73AFC2B49FDF784
:10292000F9FB3062092000F0FDFC002800D11BE714
:10293000054600200621FFF7F3FA306AFDF72FFC69
:10294000009001910921284621A200F047F828466D
:10295000FFF7D3FA08E701200821FFF7E1FA0FA0FB
:10296000B9E701200821FFF7DBFA0EA0B3E7C04664
:1029700018000020FFFF0000880000200004004035
:10298000D000002000100040446973743A202D00EC
:102990004952204B65793A202D000000444F574E94
:1029A0002000000052494748540000004F4B2020AF
:1029B000200000004C4546542000000055502020C7
:1029C000200000002020202000000000CDCC684224
:1029D00025332E326620636D000000000FB47CB5F5
:1029E0000C0009AD01D0611E00E0002101910090B2
:1029F000074B6A462946089800F0ECF8002C02D0F4
:102A0000009A002111707CBC08BC04B0184700007B
:102A10000D3300082021020C01D010211046020ABB
:102A200001D010460839020901D01046091F82085A
:102A300001D01046891E420801D0881E7047081A2E
:102A4000704702E008C8121F08C1002AFAD1704777
:102A50007047002001E001C1121F002AFBD170471E
:102A6000F0B51FB486B00998089A030D00210243FF
:102A700014D05148514A1818504305141198012890
:102A800010981AD0281A401C00264D4F4D49009628
:102A900001910490002812DA444211E011980124B7
:102AA00049A3012801D11098C1430698119A846066
:102AB0000360C26041600BB0F0BD4042E4E70446F1
:102AC000210500203F4A001C51410391029012E071
:102AD000E00707D032463B4601990098FDF7B6FC67
:102AE0000191009032463B4610461946FDF7AEFC78
:102AF00006460F466410002CEAD10498039B002878
:102B0000029A0999089806DAFDF7A0FC019B009A41
:102B1000FDF79CFC05E0FDF701FD019B009AFDF728
:102B2000FDFC04460E460022284BFDF78FFD03D81E
:102B30000020C043014607E00022254B20463146D5
:102B4000FDF7D2FBFDF762FD102409E0002C0ADB43
:102B50000A220023FDF756FB079B30321A55641EEC
:102B600002460A43F2D11122641C079B121B1C1956
:102B7000119B012B03D0012308430ED10AE0084327
:102B800004D0112010900020119077E71098151AAA
:102B90006D1E0BE01098824202DD00236D1C03E0E5
:102BA000824201DA00236D1E002BEED006981199A7
:102BB0008260C16030C07EE701FCFFFF104D000065
:102BC000000014400000F03F300000000000F0431F
:102BD0000000E03FFFB597B00646002518E2252823
:102BE00077D100242746FD49049400E00443761C75
:102BF00032780120203A90400842F7D130782A28D4
:102C00000ED00222307801463039092916D80499AD
:102C10000A235943303940181443761C0490F1E7D5
:102C2000189802C804911890002904DA0120400382
:102C300004434842049002200443761C30782E2836
:102C400014D1042004437078761C2A2809D11898DE
:102C5000761C80C8189009E00A214F43303FC719FD
:102C6000761C3078014630390929F5D930786C283E
:102C700010D006DC4C281AD068280ED06A2817D14C
:102C800004E0742813D07A2812D110E00120400506
:102C900004430CE00121090501E0032109050C436F
:102CA0007178814203D1012000052418761C761C1E
:102CB0003078119066280BD013DC58287DD009DCC1
:102CC00000287BD04528F6D04628F4D047281AD1D2
:102CD000A5E118E0632835D0642870D0652812D1AA
:102CE0009DE170286CD008DC6728F1D069287BD082
:102CF0006E280DD06F2806D1BAE073282ED0752823
:102D000071D0782859D01A9A199990476D1C7EE194
:102D10006002400F022809D003280DD0042818981B
:102D200001680DD00D60001D189070E11898EA1729
:102D300001680D604A60F6E7189801680D80F2E7B7
:102D40000D70F0E718986A4601781172001D18900E
:102D50000020507202A80090012005E0189802C8D7
:102D6000189000200091C04361070DD5002101E0BB
:102D70000199491C0191B94212DA8142F8DB009AAB
:102D8000515C0029F4D10BE0002101E00199491CBC
:102D900001918142FADB019A0099895C0029F5D101
:102DA000019904981A9B471A21463846199A00F04F
:102DB00097FA0199401945180BE04FE02CE113E018
:102DC0004EE0009800990078491C00911A9A1999D0
:102DD00090470198401E0190401CF2D12146384690
:102DE0001A9B199A10E137E00A2000210090019106
:102DF0006002410F022907D0189A01CA1892C2171F
:102E00009446032908D00AE01898C01DC108C900DB
:102E100005C91891944607E000B2C21794460429E8
:102E200002D140B2C1178C4600226146944506DAB1
:102E30000A460021404291418C462D2102E02105A5
:102E400004D52B216A461173012103E0E10701D06B
:102E50002021F7E7029155E00A200AE0102008E05F
:102E6000102000900021042004430191082703E072
:102E700008200021019100906002410F022907D033
:102E8000189A01CA189200229446032908D008E033
:102E90001898C01DC108C90005C91891944603E0DF
:102EA00080B2042900D1C0B200210291210729D5A6
:102EB0001199702906D0009A1021019B4A401A43AB
:102EC00005D00EE040216A461173012108E06146F9
:102ED000014306D030216A461173119951730221C2
:102EE0000291009A0821019B4A401A430AD1614687
:102EF000014301D1610705D530216A4611730121D3
:102F00007F1E02911199582904D035A10E910DA967
:102F10000D910DE037A1F9E76146019B009AFDF79D
:102F200071F90E9B8C469B5C0D9A521E0D9213708C
:102F300061460143F0D10D9805A9081A203001908F
:102F4000600703D501200004844300E001270198B5
:102F5000874201DD381A00E00020019900904118F5
:102F6000029809180498401A0490E00306D42146F8
:102F70001A9B199A049800F0B3F94519002706E046
:102F800003A81A9AC05D199990476D1C7F1C02987E
:102F90008742F5DBE0030CD521461A9B199A049869
:102FA00000F09EF9451904E01A9A302019999047CB
:102FB0006D1C0099481E00900029F5DC08E00D9872
:102FC0000D990078491C0D911A9A199990476D1C1A
:102FD0000199481E01900029F1DC63E109280100F4
:102FE000303132333435363738396162636465667F
:102FF0000000000030313233343536373839414241
:10300000434445460000000000F05AF94519761C7B
:103010003078002800D0E2E528461BB0F0BD6007FC
:1030200000D406271898C01DC108C90048680A685E
:103030000831C30FDB071891190001D09CA108E0EB
:10304000210501D59BA104E0E10701D09AA100E090
:103050009AA1430011985B08109165280CD006DCFA
:10306000452809D046281DD0472841D141E066288F
:1030700018D067283CD13CE00021112F01DB112042
:1030800000E0781C0191009008A911A8FFF7E8FC66
:10309000139905910021119A15927F1C129801979E
:1030A000009150E00120C00703900120019008A981
:1030B000009711A8FFF7D4FC139A149905920022E7
:1030C000119B009212981593059A0192002901D044
:1030D000104602E0791C40180190381A01D5019879
:1030E00004E04042401E0090781C0190C01B0290FA
:1030F00043E0012F00DA01270021112F01DD11200B
:1031000000E038460191009008A911A8FFF7A8FC3B
:1031100013990591119A0021129815920091019727
:1031200021070CD40599B94201DB019900E0019116
:10313000012904DD159A491E515C302906D0B84298
:1031400001DA011D05DA0121029115E00199491EFC
:10315000EDE7002805DC0099411800910199091A52
:1031600003E0019A411C914200DD01910099401A4F
:10317000401C02900120C0070390200706D402994A
:103180000198814202DB0020C04302900020694682
:10319000C87707AF012103980337C907884224D0B5
:1031A000022011902B201290039800280CDA404244
:1031B00003902D20129007E00A210398FDF703F8F1
:1031C00030317F1E039039701199481E11900029EB
:1031D000F2DC03980028EFD1791E1298087030783D
:1031E000202108404530BF1E387006A8C01BC01DF6
:1031F000039010980078002800D001200199411810
:103200000298C0170918039809180498401A401E1C
:103210000490E00306D421461A9B199A049800F002
:103220005FF8451910980078002803D01A9A199968
:1032300090476D1CE00324D521461A9B199A0498E7
:1032400000F04EF845191CE00098002807DB0099B3
:103250000598884203DD1598405C199901E0199999
:1032600030201A9A904700986D1C401C00900298DC
:10327000401E0290002804D11A9A2E2019999047D6
:103280006D1C0199481E01900029DDDC05E03878AD
:103290001A9A7F1C199990476D1C0399481E039038
:1032A0000029F4DC21461A9B199A0498ACE6000028
:1032B0002D0000002B000000200000000000000096
:1032C000F8B5044600251E461746880404D405E0D8
:1032D00039462020B0476D1C641EF9D52846F8BD3C
:1032E000FFB50446002581B01E46C80301D530272E
:1032F00000E02027880404D505E038460399B0474C
:103300006D1C641EF9D5284605B0F0BD4A68002A38
:1033100006D00A68531C0B6010704868401E486055
:1033200070470000F0B50B30C108C900144F0026EB
:10333000144A0FE003688B420BD38B4205D95C1A09
:103340004318456830C3083B00E04368136002C07F
:1033500004E0021D10680028ECD13046002803D19B
:103360003868002801D00020F0BD064A06481060E9
:10337000064A121AD208D20044C001203860D7E7AA
:103380000400002000000020AC010020A803002061
:103390000000000000000000010203040607080905
:1033A000000000000102030402000000040000000D
:1033B0000800000010000000FDFFFFFFFBFFFFFF03
:1033C000F7FFFFFFEFFFFFFFFFFDFFFFFFFBFFFF2B
:1033D000FFF7FFFFFFEFFFFF0203040506070809E1
:1033E0000A0B0C0D0E0F101001020304050607084E
:1033F000090A0B0C0D0E0F10000000000400000065
:10340000080000000200000028340008000000202E
:1034100018000000422A000840340008180000206C
:1034200090070000522A0008000000000000000081
:10343000010000000400000000127A0001000000FA
:04000005080000C12E
:00000001FF
